:020000040800F2
:100000001007002045010008550A000809070008EC
:10001000A5090008C9030008351100080000000008
:10002000000000000000000000000000D90C0008E3
:1000300007040008000000005F0A00084D0D0008DA
:100040005F0100085F0100085F0100085F01000810
:100050005F0100085F0100085F0100085F01000800
:100060005F0100085F0100085F0100085F010008F0
:100070005F0100085F0100085F0100085F010008E0
:100080005F0100085F0100085F0100085F010008D0
:100090005F0100085F0100085F0100085F010008C0
:1000A0005F0100085F0100085F0100085F010008B0
:1000B0005F0100085F010008890E00085F01000869
:1000C0005F0100085F0100085F0100085F01000890
:1000D0005F01000865100008A11000085F0100081A
:1000E0005F0100085F0100085F0100085F01000870
:1000F0005F0100085F0100085F0100085F01000860
:100100005F0100085F010008B10E00085F010008F0
:100110005F0100085F0100085F0100085F0100083F
:100120005F0100085F0100085F0100085F0100082F
:10013000DFF80CD000F04AF80048004773220008AE
:10014000100700200648804706480047FEE7FEE704
:10015000FEE7FEE7FEE7FEE7FEE7FEE7FEE7FEE777
:100160007D0D0008310100082DE9F05F05460020F3
:1001700092469B4688460646814640241BE0284618
:1001800041464746224600F042F853465A46C01AB6
:10019000914110D311461846224600F029F82D1A35
:1001A00067EB01084F4622460120002100F020F8AD
:1001B00017EB00094E41201EA4F10104DFDC484684
:1001C00031462A464346BDE8F09F0000064C074DE5
:1001D00006E0E06840F0010394E807009847103417
:1001E000AC42F6D3FFF7A8FFCC330008EC3300088D
:1001F000202A04DB203A00FA02F1002070479140E7
:10020000C2F1200320FA03F3194390407047202ADB
:1002100004DB203A21FA02F00021704721FA02F3B0
:10022000D040C2F12002914008431946704770B592
:100230008C1810F8015B15F0070301D110F8013B91
:100240002A1106D110F8012B03E010F8016B01F818
:10025000016B5B1EF9D12B0705D40023521E0DD470
:1002600001F8013BFAE710F8013BCB1A921C03E0BE
:1002700013F8015B01F8015B521EF9D5A142D8D3F6
:10028000002070BD10B501210B4801F0EAFFC0F15C
:100290000100C4B222460121074801F077FF022184
:1002A000054801F0DEFFC0F10100C4B22246022180
:1002B000014801F06BFF10BD000C014010B540F289
:1002C000096002F01FFA022002F07CF8002001F021
:1002D00071FB012202211A4801F007FC0021184895
:1002E00001F015FB01221146154801F0EDFA072334
:1002F0000D220021124801F08FFB4FF460220121F2
:100300000F4801F037FB012211460D4801F013FBA5
:100310000C23802200210A4801F05AFB084801F012
:1003200074FB074801F0FEFA322000F08BF8044815
:1003300001F0B5FA0121024801F0C8FB10BD000030
:100340000024014010B540F20A6002F0DBF90220FF
:1003500002F038F8002001F02DFB002202211348A2
:1003600001F0C3FB0021114801F0D1FA012211462E
:100370000E4801F0A9FA06230E2200210B4801F0D5
:100380004BFB4FF460220121084801F0F3FA0122EF
:100390001146064801F0CFFA044801F0C3FA3220B2
:1003A00000F050F8014801F07AFA10BD0028014031
:1003B00010B5044800F0FAFD00F0F6FA00F002FA79
:1003C00010BD0000450F000800BFFEE730B5024633
:1003D0000B46FF20002113E0545C604008240BE032
:1003E00000F0800525B1312585EA4005E8B201E03D
:1003F0004506280E651EECB2002CF1DC4C1CE1B267
:100400009942E9D330BD70470C48006820F08070F5
:100410000A4908600846006840F080700860084893
:10042000006820F00100064908600846006840F0B6
:10043000010008600020486070470000FCED00E00B
:10044000001000E070B5044607484568012002F03E
:1004500003F80649B0FBF1F0444300BF024840688E
:10046000401BA042FAD370BD001000E040420F00D4
:1004700010B5FFF7C9FF00F067FA00F0C1F900F00E
:100480005BFE00F0A3FB00F028FC00F005F800F094
:10049000E2FA00F0C7FC10BD10B500F0CBF810BDBB
:1004A00010B500F009FC062000F0E4FB00F00CFCA5
:1004B00010BD2DE9F04105460C460CB9BDE8F081B0
:1004C000EEB2C6F58050A0421CD2284600F01FF8BC
:1004D000C6F580500544C6F58050241AC4F307378A
:1004E00004E0284600F013F805F58055381EA7F102
:1004F0000101CFB2F5D1C4F30B0030B1284600F0B2
:1005000006F802E0284600F002F800BFD6E710B572
:100510000446FFF7C5FF00F0CFFB202000F0AAFB48
:10052000C4F3074000F0A6FBC4F3072000F0A2FBD1
:10053000E0B200F09FFB00F0C7FB00F047FE10BDEB
:1005400010B50121064801F0C1FA00BF022104489C
:1005500001F028FA0028F9D0014801F0B3FA10BDE3
:10056000002801400348007800EE100AB8EE400A67
:10057000704700008601002070B50025002407E0C8
:10058000204600F05DF9054605B103E0601CC4B2E9
:10059000032CF5D300BF284670BD10B5044600F00B
:1005A00011F884ED000AFFF7DDFFBCEEC00A10EE83
:1005B000100A207110BD00000149086849687047A1
:1005C00090010020014890ED000A70477C01002056
:1005D00010B540F2046002F095F8082301220021D2
:1005E000014801F0D8FD10BD0010014010B540F2E7
:1005F000046002F087F81023042200210B4801F068
:10060000CAFD40F2036002F07DF803231A46102170
:10061000074801F0C0FD01221146054801F0B6FD72
:1006200000220221024801F0B1FD10BD001001407E
:10063000000C014010B540F2036002F063F8C023E3
:1006400001221421014801F0A6FD10BD000C01405B
:1006500000B587B040F2066002F054F8042303228C
:1006600010211B4801F097FD0421194801F08CFD71
:1006700040F2036002F046F840F20E7002F042F8D9
:100680004FF4204303221821124801F084FD4FF457
:100690008043032248210F4801F07DFD684602F0A7
:1006A000E7F8002001904FF4827000900020029043
:1006B00005904FF400700390002006900490694666
:1006C000054802F0BCF8044802F0A6F807B000BDE7
:1006D00000180140000C01400038004010B50949E5
:1006E000C88802F00FF80749CB68012288681821F2
:1006F00001F051FD03490B6901228868482101F08E
:100700004AFD10BDBC01002000BFFEE710B5FFF799
:1007100033FF0446812C1BD006DC012C09D0022CAF
:100720001AD0032C28D11FE0822C19D0832C23D17E
:100730001EE0002000F080FC022000F0D5FA18B185
:100740000FA000F00BFE02E013A000F007FE14E083
:10075000002000F05BFC10E0012000F06DFC0CE0DC
:10076000012000F053FC08E0022000F065FC04E0EA
:10077000022000F04BFC00E000BF00BF10BD0000F5
:100780005365744D6F64627573506172616D20734F
:1007900075636573730A00005365744D6F64627509
:1007A00073506172616D206661696C0A000000001F
:1007B00010B5FFF71BFFFFF7C5FD4FF47A7000F08F
:1007C00001FC10BD08B5684600F0EAF968B1BDF853
:1007D000000045F65A21884207D107480099016078
:1007E0000146887801F0A0FC08BD03480349096868
:1007F000016000BFF8E70000240000205431000829
:1008000010B5002417E004EB44010C4A32F8210033
:1008100001F078FF04EB4401084A02EB81018B6888
:1008200004EB440102EB810102224868042101F03B
:10083000B2FC601CC4B2032CE5D310BD340100200F
:100840002DE9F041044604EB44023D4B03EB8202E8
:10085000916804EB440203EB8202506801F0F9FC5A
:100860000746384800EB0410007830B1012812D058
:1008700002282ED0032859D14DE05FB9012031491B
:1008800001EB04110870FFF797FE2E4A02EB0412E9
:10089000C2E9020150E0B7B9FFF78EFE05460E46E9
:1008A000284800EB0410D0E90232EB1A66EB020193
:1008B0000020D3F10A0288410AD20220214901EB2B
:1008C0000411087004E000201E4901EB04110870B7
:1008D00032E047B100201B4901EB04110870601C95
:1008E000C0B2BDE8F081FFF767FE05460E46154829
:1008F00000EB0410D0E9023CEA1A66EB0C014FF45D
:100900007A7300209A1A884104D203200D4901EB22
:100910000411087010E047B100200A4901EB0411EE
:10092000087004F18100C0B2DBE705E00020054952
:1009300001EB0411087000BF00BF0020D1E70000E8
:1009400034010020E002002010B5002424E004EB74
:100950004401134A32F8210001F0D4FE04EB4401B3
:100960000F4A02EB81018B6804EB440102EB810129
:1009700002224868102101F00EFC04EB4402084BEF
:1009800003EB8202916804EB440203EB820250689D
:1009900001F0F8FB601CC4B2032CD8D310BD0000DA
:1009A0005801002000BFFEE71FB5044B0FCB8DE8B8
:1009B0000F00684600F038F81FBD000058310008ED
:1009C0001CB504466846FFF7E8FD9DF8040000EBFF
:1009D0008000400020801CBD1CB504466846FFF71F
:1009E000DCFD9DED000AF2EE040A20EE200ABCEECA
:1009F000C00A10EE100A20801CBD10B504461CB9B8
:100A0000002000F003FB02E0002000F015FB10BD09
:100A100010B504461CB9012000F0F8FA02E00120EC
:100A200000F00AFB10BD000038B50446002000901D
:100A300021780246636801F06DF901F0BFF80248C1
:100A4000D4E9021206C038BD2C01002010B501F017
:100A5000D1F910BD704710B500F002F910BD704714
:100A600070B504460D461646FFF71AFD00F024F94E
:100A7000022000F0FFF8C4F3074000F0FBF8C4F3D5
:100A8000072000F0F7F8E0B200F0F4F803E028786F
:100A900000F0F0F86D1C301EA6F10106F7D100F051
:100AA00013F900F093FB70BD2DE9F04106460C46AA
:100AB00015462A462146304600F00EF8691E2046AB
:100AC000FFF784FC0746681E205CB84202D0002075
:100AD000BDE8F0810120FBE72DE9F04104460E4618
:100AE000174600F0E9F8032000F0C4F8C4F307400B
:100AF00000F0C0F8C4F3072000F0BCF8E0B200F04A
:100B0000B9F8002504E0FF2000F0B4F870556D1C22
:100B1000BD42F8D300F0D8F8BDE8F0812DE9F047E8
:100B200080468946154615B90220BDE8F0870024A5
:100B30002FE00026002726E0184800EB0710408829
:100B400008EB0401884200D01CE0144800EB0716B3
:100B5000307800F0010008B90220E6E7B06880B103
:100B6000022202FB0450B168884715F814A0600007
:100B7000401C285C05F814006000401C05F800A02B
:100B800000BF00BF7F1C042FD6D30EB90120CCE7D5
:100B9000641C4C45CDD30020C7E70000280000208E
:100BA00070B5044604252A4621460020FFF77CFF45
:100BB00008B1012070BD2A4621464FF48050FFF74E
:100BC00073FF08B10120F5E70020F3E710B501201D
:100BD00000F0BEFF45F65A2188422ED040F21C702C
:100BE00001F090FD40F21B7001F08CFD01F0B6FBAE
:100BF00000F0A8FF4FF4006001F0ECFC4FF400603F
:100C000001F0F8FC4FF4807001F0ACFD40F60F00ED
:100C100001F078FD01F0F0FD01F0D4FD47F6FF7022
:100C200001F0DAFD01F0CEFD0C4801F0BBFD45F608
:100C30005A21012000F0A8FF10BD40F21C7001F005
:100C400061FD40F21B7001F05DFD01F087FB01F0DA
:100C5000D3FD01F0B7FD00BFEEE70000F624FE6310
:100C600010B5FFF7F5FC0421014801F08DFA10BD25
:100C70000018014070B5054600BF02210C4801F084
:100C8000D6FD0028F9D02946094801F0CEFD094CCF
:100C900002E0641E04B905E00121054801F0C7FD2A
:100CA0000028F6D000BF024801F0BBFDC0B270BD05
:100CB00000380040A086010010B50421014801F071
:100CC00061FA10BD0018014010B50421014801F07F
:100CD0005BFA10BD00180140704710B500F06CF9C8
:100CE000FFF766FD10BD000038B504460F48807858
:100CF000A04201D1012038BD0C48006800908DF859
:100D00000240204601F010FA08B10020F3E76846DF
:100D100000F00CFB28B90549887801F005FA00209D
:100D2000E9E70248009901600120E4E7240000207F
:100D300010B540F2046001F0E5FC202303221021ED
:100D4000014801F028FA10BD0010014010B5094813
:100D500002684068521C40F1000006490A60486081
:100D60000548006800B910BD03480068804700BF0F
:100D7000F9E70000900100209801002008B52648FE
:100D8000006840F47000244908602448006840F07E
:100D900001002249086000BF2048006800F00200FE
:100DA0000028F9D000BF1D48406840F080001B4972
:100DB00048600020009002E00098401C00900098DD
:100DC0005028F9D31548406840F090001349486016
:100DD0000020009002E00098401C009000985028ED
:100DE000F9D300BF0D48406820F003000B4948606C
:100DF000084600680A490840084908604FF41F0087
:100E000088600846006820F4802008600020486060
:100E1000C86201F0C1FD08BD88ED00E0001002408D
:100E2000FFFFF6FE70B5012001F016FB4FF47A715A
:100E3000B0FBF1F4601EB0F1807F01D301201BE014
:100E4000601E4FF0E021486148170F21002807DAA3
:100E50000A07150E0A4A00F00F031B1FD55403E0C2
:100E60000A07130E074A135400BF00204FF0E02179
:100E7000886107200861002008B100BFFEE770BD4F
:100E800018ED00E000E400E010B50121074801F092
:100E900058FE012809D10121044801F04FFE00212C
:100EA000024801F07DFD01F075FA10BD0008004018
:100EB00010B50121124801F044FE01281FD1012183
:100EC0000F4801F03BFE0F480088401C0D49088088
:100ED000088800EBD0714910A0EB410109B9FFF778
:100EE000D1F9084800884FF4C87190FBF1F201FB7A
:100EF0001200012803D1FFF723FB0349088010BD2E
:100F0000000C0040880100208401002010B500245E
:100F100013E004EB44000A4911F8200058B1002006
:100F200004EB4401064A02F8210004EB440102EB01
:100F3000810188688047601CC4B2032CE9D310BDCE
:100F40000000002000202BE000EB4001164A02EBDD
:100F50008101498811B300EB400102EB810149880E
:100F6000491E00EB4002104B03EB8202518000EB64
:100F700040011A4602EB8101498879B9012100EB51
:100F8000400203F8221000EB40011A4602EB8101F7
:100F9000898800EB400203EB82025180411CC8B2F9
:100FA0000328D1D3704700000000002001490860E9
:100FB000704700009801002010B5FFF709FBFFF70C
:100FC0007DF910BD1FB5044640F2037001F09AFB95
:100FD0000D4801F0E7FC684601F0BFFD7720ADF851
:100FE0000000601E02906946074801F053FD012190
:100FF000054801F09FFD00221146322001F042F920
:10100000014801F042FD1FBD000C004010B5044630
:10101000032C00D310BD04EB4402064B03EB820209
:10102000916804EB440203EB8202506801F0AAF8D5
:1010300000BFEFE75801002010B50446032C00D391
:1010400010BD04EB4402064B03EB8202916804EBF3
:10105000440203EB8202506801F096F800BFEFE70C
:101060005801002010B50B4908680B4901F06DFECE
:1010700070B108490868084901F05EFE0549086832
:1010800001F0DAFDC4B2204604490968884700BF70
:1010900010BD00009C01002005030500B4010020E4
:1010A00010B50D4908680D4901F04FFE30B101F04F
:1010B00079F9094908680A4901F03EFE06490868BD
:1010C000084901F042FE30B101F074F902490868A4
:1010D000044901F031FE10BDBC01002005030500EC
:1010E000050303000603060010B50446104988886E
:1010F00001F008FB0E49086801F0A8FD0C490868DA
:10110000214601F051FD0A490868082101F043FE1B
:1011100007490868042101F034FE0549087D0022D2
:10112000114601F0AFF80249086801F0D7FD10BD83
:10113000BC01002000BFFEE710B500F005F84FF439
:10114000E13000F017F810BD10B50949C88801F06A
:10115000D9FA0749CB6801228868182101F01BF8E9
:1011600003490B6901228868482101F014F810BD79
:101170009C01002010B504461349888801F0C2FA8A
:101180001149086801F062FD0F490868214601F025
:101190000BFD0D490868082101F0FDFD0A490868AA
:1011A000042101F0EEFD0849086840F2053101F024
:1011B000B6FD0549087D0022114601F063F8024999
:1011C000086801F08BFD10BD9C01002010B50A4C91
:1011D000FFF772FD0520FFF74DFD02E0641E04B924
:1011E00006E0FF20FFF746FD00F001000028F5D1E2
:1011F00000BFFFF769FD10BDA086010070B506466F
:101200000D461446611E2846FFF7E0F8611E68543B
:1012100021463046FFF74DF922462946304600F078
:1012200002F8012070BD2DE9F04106460F46144634
:10123000F5B2C5F58070A0422AD2C5F58072394654
:101240003046FFF70DFCC5F580700644C5F580708B
:101250000744C5F58070241AC4F307280BE04FF447
:10126000807239463046FFF7FBFB06F5807607F5BE
:101270008077A4F58074B8F10000A8F1010101F0B5
:10128000FF08ECD1224639463046FFF7E9FB04E07F
:10129000224639463046FFF7E3FBBDE8F081000007
:1012A0002DE9F04781468A46164616B90220BDE868
:1012B000F087002534E0002400272BE01A4800EBDB
:1012C0000710408809EB0501884200D021E016484C
:1012D00000EB0714207800F0020008B90220E6E7CE
:1012E00016F815004FF47F4101EA00206900491CFF
:1012F000715C40EA0108A088404502DCE088404576
:1013000001DA0220D3E7E06810B14046E16888477F
:1013100000BF7F1C042FD1D30CB90120C7E76D1C7F
:101320005545C8D30020C2E72800002070B5044608
:101330000425B5F5805F01DD002070BD2A462146F9
:101340000020FFF75BFF08B90020F6E72A46214698
:101350004FF48050FFF752FF0120EEE70FB4054B2A
:1013600010B503A9044A029800F066F810BC5DF8B5
:1013700014FB000045210008D80100200EB50746E7
:101380000E46144619491AA000F0F0FE17493846D7
:1013900000F0ECFE15491CA000F0E8FE13493046B1
:1013A00000F0E4FE11491AA000F0E0FE03AD0021B8
:1013B000681E054601700A21681E054601700CE092
:1013C0000A2094FBF0F100FB11403030C1B2681EDE
:1013D000054601700A2094FBF0F4002CF0DC034970
:1013E000284600F0C3FE00F058FA0000D4010020A7
:1013F0002A2A2A20617373657274696F6E20666190
:10140000696C65643A2000002C2066696C652000D8
:101410002C206C696E65200002E008C8121F08C10C
:10142000002AFAD170477047002001E001C1121F65
:10143000002AFBD1704700002DE9FF4F8DB00F4609
:101440000546002606E025280BD0DDE90F1290475F
:101450006D1C761C28780028F5D111B03046BDE807
:10146000F08F0024A246A1460122EC4900E004438B
:1014700015F8013F203B02FA03F00842F7D1287823
:101480002A2810D06FF02F022878A0F13001092906
:1014900014D80AEB8A0102EB410144F0020400EB8C
:1014A000010A6D1CF0E701CF5FEA000A03D544F49E
:1014B0000054CAF1000A44F002046D1C28782E285A
:1014C00017D115F8010F44F004042A280ED06FF04C
:1014D0002F022878A0F1300109290AD809EB8901E7
:1014E00002EB410100EB01096D1CF2E757F8049B88
:1014F0006D1C28786C280FD006DC4C2817D0682883
:101500000DD06A2814D104E0742810D07A280FD1A5
:101510000DE044F400140AE044F4801401E044F4C3
:1015200040146978814202D104F580146D1C6D1C51
:101530002A786E2A1FD00CDC632A31D004DC002A02
:101540008BD0582A11D1A3E0642A68D0692A0CD123
:1015500065E0732A2ED004DC6F2A73D0702A04D180
:101560009BE0752A6FD0782A6ED01046DDE90F1205
:101570009047761C50E1C4F30250022806D003289D
:1015800009D0042801CF09D0066045E101CFF11749
:10159000C0E9006140E101CF06803DE106703BE11A
:1015A00017F8040B8DF8000000208DF80100EB46C1
:1015B000012003E057F804BB4FF0FF3061074FF004
:1015C000000102D40DE008F10101884649450FDA17
:1015D0008045F8DB1BF808100029F4D108E008F179
:1015E000010188468142FADB1BF808100029F6D178
:1015F000DDE90F23AAEB08008146214600F036F909
:10160000304400EB080604E0DDE90F121BF8010B83
:101610009047B8F10108F7D221464846F7E00A2181
:10162000C4F302534FF0000B0891022B04D001CFFA
:10163000C117032B09D00AE0FF1D27F00707F7E8C1
:10164000020108E032E01FE020E000B2C117042BE5
:1016500001D140B2C117031E71F1000307DA4FF048
:10166000000CD0EB0C006CEB01012D2302E02305F4
:1016700004D52B238DF82430012303E0E30701D0A8
:101680002023F7E7984658E00A2110E010210EE0E9
:1016900010204FF0000B08900CE010214FF0000BD1
:1016A00044F004044FF00809089103E008214FF0CA
:1016B000000B0891C4F30253022B04D001CF002188
:1016C000032B06D006E0FF1D27F00707F7E802010D
:1016D00003E080B2042B00D1C0B24FF00008230712
:1016E0002BD5702A07D0DDF820C08CF0100C5CEAF6
:1016F0000B0C05D00EE040238DF82430012308E0C8
:1017000050EA010306D030238DF824308DF82520CF
:1017100002239846DDF820C08CF0080C5CEA0B0C24
:101720000BD150EA010301D1630706D530238DF8B0
:1017300024304FF00108A9F10109582A04D038A239
:101740000B9208AA0A920BE03AA2F9E75B46089AC4
:10175000FEF70AFD0B9B9B5C0A9A521E0A921370BD
:1017600050EA0102F2D10A98ADEB000000F1200B23
:10177000600702D524F4803401E04FF00109D94517
:1017800002DDA9EB0B0000E0002000EB0B0141445F
:101790000890AAEB010AE00306D4DDE90F232146F5
:1017A000504600F063F806444FF0000908E009A92C
:1017B00011F80900DDE90F12904709F10109761CC3
:1017C000C145F4DBE0030CD5DDE90F23214650468B
:1017D00000F04CF8064404E0DDE90F123020904799
:1017E000761C0899481E08900029F5DC08E00A9844
:1017F0000A990078491C0A91DDE90F129047761C7E
:10180000BBF10001ABF1010BF1DC21465046DDE9F3
:101810000F2300F019F806446D1C1BE6092801008F
:101820003031323334353637383961626364656656
:101830000000000030313233343536373839414218
:1018400043444546000000002DE9F04104460025D0
:101850001E461746880404D405E039462020B047C8
:101860006D1C641EF9D52846BDE8F0812DE9F041D4
:10187000044600251E469046C80301D5302700E0E7
:101880002027880404D505E041463846B0476D1C42
:10189000641EF9D52846BDE8F08100BFFEE78168E7
:1018A00041F00801816000BF816801F00801002952
:1018B000FAD1816841F00401816000BF816801F0C4
:1018C00004010029FAD1704730B5012902D002295C
:1018D0001AD10CE0C36A23F47003C362C36A541EB6
:1018E0004FF4700505EA04542343C3620DE0836B93
:1018F00023F440138363836B541E4FF4401505EAB1
:1019000004542343836300E000BF00BF30BD21B116
:10191000826842F40062826003E0826822F400621E
:1019200082607047816801F0010119B9816841F056
:1019300001018160704772B101F001031BB183683E
:1019400043F48013836001F0020393B1836843F48E
:10195000004383600DE001F001031BB1836823F4B1
:101960008013836001F002031BB1836823F40043FA
:1019700083607047012902D0022910D107E08368F3
:1019800023F46023836083681343836008E08368E3
:1019900023F4E043836083681343836000E000BF67
:1019A00000BF70470246002013680B4003B10120BE
:1019B000704700000549096821F47021034A11604D
:1019C000114609680143116070470000042401407A
:1019D00030B5B1F5007F06D1D0F8804044F40074F2
:1019E000C0F8804005E0D0F8804024F40074C0F8CE
:1019F000804050F8804F24F4FE740460046842EA8A
:101A000003052C4340F8804930BDD0F8801041F0E8
:101A10000101C0F880107047F0B51D4606290CD2B0
:101A2000436B01EB81071F26BE40B34301EB8106E8
:101A300002FA06F63343436322E00C290ED2036B0D
:101A40008E1F06EB86071F26BE40B3438E1F06EB94
:101A5000860602FA06F63343036311E010290FD21B
:101A6000C36AA1F10C0606EB86071F26BE40B343EE
:101A7000A1F10C0606EB860602FA06F63343C362B2
:101A80000A2A0CD2046902EB42070726BE40B4437F
:101A900002EB420605FA06F63443046111E0122A0D
:101AA0000FD2C468A2F10A0606EB46070726BE401D
:101AB000B443A2F10A0606EB460605FA06F63443DD
:101AC000C460F0BD0146C86C80B2704701F00102ED
:101AD0001AB1826842F48002826001F002021AB1F7
:101AE000826842F4001282607047AAB101F48073E8
:101AF0001BB1436843F48073436001F480631BB1FE
:101B0000436843F48063436001F00203CBB1836810
:101B100043F00203836014E001F480731BB1436857
:101B200023F48073436001F480631BB1436823F4A2
:101B30008063436001F002031BB1836823F002035A
:101B40008360704710B500F07DFC00F071FC10BDA3
:101B5000014600200B2909DB2A2907DCA1F10B0231
:101B6000084B03EB8202B2F8400C09E0012907DBC5
:101B70000A2905DC4A1E034B03EB8202B2F8040C6F
:101B800070470000006000400B2809DB2A2807DCB2
:101B9000A0F10B02084B03EB8202A2F8401C09E003
:101BA000012807DB0A2805DC421E034B03EB8202F7
:101BB000A2F8041C704700000060004010B500242B
:101BC00006480078012806D10548006880470020B3
:101BD0000249087000E00624204610BD6A0000207B
:101BE000700000202DE9F04705460C464FF0000A32
:101BF0002088052834D168784FEA0029A87840EA7F
:101C00000909E878060228790643012E25DB7D2E96
:101C100023DC2F4600202080032007F8010B2088BA
:101C2000401C20807006000E07F8010B2088401C25
:101C30002080002332464946384600F057FA804655
:101C4000B8F1000F04D0404600F092FB824609E054
:101C5000208800EB4600208004E04FF0030A01E0FA
:101C60004FF0030A5046BDE8F0872DE9F0410446E5
:101C70000E464FF000083088052810D16078070222
:101C8000A078074301231A463946E01C00F02EFADB
:101C9000054635B1284600F06BFB804601E04FF069
:101CA00003084046BDE8F0812DE9F04704460E46A2
:101CB0004FF0000A3088062826DB60784FEA0028BB
:101CC000A07840EA0808E07805022079054394F8F6
:101CD0000590012D15DB782D13DC6806000E4845B4
:101CE0000FD101232A464146A01D00F0FFF9074607
:101CF00027B1384600F03CFB824607E005203080E3
:101D000004E04FF0030A01E04FF0030A5046BDE83B
:101D1000F08700002DE9F04705460C4616461F46A1
:101D2000DDF820904FF000081CB1012C01DBF72CEE
:101D300002DD4FF0020835E01C48047005BB1C486A
:101D40001C4908601C481D4908601D481D49086061
:101D50001D481E49086000201D4908601D481E4995
:101D600008601E481E4908601E481F4908604B460F
:101D70003A4631460D48007800F0D8F8804602E037
:101D80004FF0020800BF00BFB8F1000F0AD101F008
:101D90007DF810B94FF0030804E0144805700120E5
:101DA000134908704046BDE8F08700006800002035
:101DB000C120000870000020DD2000087400002011
:101DC000192000086C0000207D1F0008780000200A
:101DD0007C0000204D2F0008800000209D3000086E
:101DE000840000201D3000088800002069000020C9
:101DF0006A00002038B500254148007808B1062067
:101E000038BD684601F030F8012877D19DF8000010
:101E100030B1012805D0022818D003286DD16BE01D
:101E20006BE0384A38493948394B1B6898470546B2
:101E30005DB93648007837490978884202D033487E
:101E4000007810B9022001F029F856E02E48006809
:101E5000007831490870012030490870002417E0EB
:101E60002F4810F8340000B914E02D4810F8340061
:101E70002949097888420AD1294800EBC400214940
:101E800042682148006890472449087002E0641CB9
:101E9000102CE5DB00BF1D48007858B31F480078C0
:101EA000C8B10020174908801B48007840F0800125
:101EB000144802880088401C124B188012480068A1
:101EC000815416480278184601880088401C188002
:101ED0000D480068425413480078012800D100BF23
:101EE00008480288084801680A4800780E4B1B68B9
:101EF0009847054601E001E000BF00BF00207FE7F2
:101F00006A0000201A01002014010020180100209E
:101F10007800002068000020190100201C0100202A
:101F200094000020690000206C0000202DE9F0479B
:101F300081460E4614461F464FF000083B460822D5
:101F40002146304600F0C2FF012802D04FF00308BE
:101F50000FE0B4F5964F01D9232503E06000064950
:101F6000B1FBF0F5A8B200F0CDFF012801D04FF091
:101F700003084046BDE8F087A07F17002DE9F04137
:101F800004460D461646002711480088FF2800DC4D
:101F900004E09C220FA115A0FFF7F0F90C4800887F
:101FA000042810DB0A4801881A4800F0E1FD50B906
:101FB00018480078207006480088C01E30801548F8
:101FC000401C286000E005273846BDE8F08100008D
:101FD0002A0100204D69645F4D6F646275735C7205
:101FE00074755C6D627274752E6300007573526354
:101FF00076427566666572506F73203C204D425F75
:102000005345525F5044555F53495A455F4D4158BF
:1020100000000000DC0100202DE9F04105460E46DD
:1020200017464FF0000821480078012838D1701E6B
:102030001F49086001201F4908801D48006805707D
:102040000846008838440880084601881848006817
:1020500000F08EFD044617490888411C154B198075
:1020600015490C54221219460888411C198012493E
:102070000A540120114908700D490968087800F0D8
:1020800035FF0B480068401C094908600948008872
:10209000401E084908800121002000F087FE01E071
:1020A0004FF005084046BDE8F08100002101002006
:1020B0002401002028010020DC0100202001002054
:1020C00010B50020044908700021012000F06EFEC8
:1020D00000F0B6FE10BD00002101002010B5002167
:1020E000084600F063FE00F097FE10BD2DE9F041B8
:1020F00007460C4615469846B8F1000F07D1E9B2DD
:10210000E0B2084A13683A469847064606E0E9B244
:10211000E0B2044A53683A46984706463046BDE85E
:10212000F08100002C0100200146002019B1012996
:1021300001DBF72901DD022001E0014A117070473F
:102140006800002070B504460D46E1B2064A1068EA
:1021500000F077FD00BF04490868072100F0C3FDC7
:102160000028F8D0204670BD9C01002070B50D46B7
:10217000044602E02946FFF7E5FF14F8010B0028AA
:10218000F8D170BD41617047016170470AB10161CA
:1021900000E041617047F0B5044616460025002274
:1021A00001F00F0501F0100747B1042E05D145F0ED
:1021B0000305E76B1F43E76300E0354300201EE0A3
:1021C000012787401F40C7B122684FEA800C0F27C4
:1021D00007FA0CF7BA43870005FA07F73A432829AC
:1021E00004D1012787401F40676105E0482903D1DA
:1021F000012787401F4027612260471CB8B208288A
:10220000DED3082022E0012787401F40E7B1626843
:10221000A0F108074FEA870C0F2707FA0CF7BA431B
:10222000A0F10807BF0005FA07F73A43282904D1AF
:10223000012787401F40676105E0482903D1012736
:1022400087401F4027616260471CB8B21028DAD36C
:10225000F0BD02469068084008B101207047002098
:10226000FCE70246D068084008B101207047002012
:10227000FCE7FEF7FDF8FEF79BF801E0FEF746FEEF
:10228000FCE700002DE9F04103460D461646002408
:102290000027A0462A48006800F4E060B0F5E06F2F
:1022A00003D100BF4FF0040830E02548006800F477
:1022B000E060B0F5C06F03D101274FF0030825E0BF
:1022C0001F48006800F4E060B0F5A06F02D102275B
:1022D000B8461BE01A48006800F4E060B0F5806F73
:1022E00003D103274FF0010810E01548006800F4FF
:1022F000E060B0F5407F03D104274FF0000805E00F
:102300004FF4A06000F020F80227B846C7F104009F
:1023100005FA00F4C8F104010F20C840304004431E
:1023200024010848C45403F01F01012088405911BA
:10233000890001F1E021C1F80001BDE8F081000051
:102340000CED00E000E400E002490143024A1160A4
:10235000704700000000FA050CED00E0034800683B
:1023600040F4807001490860704700000070004030
:10237000014621B1012904D0072906D103E000203C
:1023800005E0022003E0062001E0042000BF00BFBA
:102390007047000010B502480068804710BD00007B
:1023A0008800002010B502480068804710BD00007A
:1023B0008000002010B502480068804710BD000072
:1023C00084000020184B5968184B1940164BDA6AE4
:1023D00022F000520C2820D2DFE800F0060708099E
:1023E0001F0C1F0D1516171800BF00BF00BF41EAD4
:1023F000803113E000BF20F004004FF0805343EA27
:10240000803319430AE000BF00BF00BF20F00C007A
:1024100041EA803142F0005200E000BF00BF024BB1
:102420005960DA627047000000100240FF3FFFEF82
:102430000348006A20F480300149086270470000B8
:10244000001002400348006A40F4803001490862ED
:1024500070470000001002402DE9F04F8CB0074695
:1024600000200A904AA090E8004CC068CDE905BE63
:10247000CDF810A007900FF21C1ADAE9000ACDE996
:10248000020A0FF2101ADAE9000ACDE9000A4448FC
:102490004068C0F381000B900B9820B1012804D054
:1024A00002283FD103E03F4A3EE03E4A3CE03C4840
:1024B000406800F4803CBCF5803F12D13848C06AC7
:1024C00000F08048B8F1000F01D1364B00E0364BE8
:1024D0003348406800F40039B9F5003F02D15B0889
:1024E00000E0324B2E484068C0F383412C484068DE
:1024F00000F0006008B141F010012948406800F088
:10250000804008B141F020010F2901D2891C06E06A
:102510000F2903D33E2901D8491C00E03F2103FBCA
:1025200001F201E01F4A00BF00BF1D484068C0F330
:10253000031504A8465D22FA06F419484068C0F362
:10254000022502A8465D24FA06F009901448406866
:10255000C0F3C2251DF8056024FA06F0089037B1D3
:10256000012F06D0022F06D0032F0AD106E00A92CF
:1025700008E00A9406E009980A9003E008980A9097
:1025800000E000BF00BF0A980CB0BDE8F08F00006B
:102590000000000000000000010203040607080913
:1025A0000010024000127A00006CDC0200093D00BD
:1025B0000146074A02EB9110006801F01F03012257
:1025C0009A40104008B1012070470020FCE700004D
:1025D00000100240064A02EB9011096800F01F0348
:1025E00001229A401143024B03EB90121160704795
:1025F00000100240F0B50646002400270025B6F57D
:10260000006F20D005DC8EB3102E0BD0182E73D1A6
:1026100061E0B6F5106F4CD0A6F540501038002898
:102620006AD134E004E01120FFF7C2FF0546641CC4
:102630001DB94FF6FF708442F5D11120FFF7B8FFA6
:1026400000B1012759E005E040F60100FFF7B0FFB7
:102650000546641C1DB96FF07C408442F4D140F6FD
:102660000100FFF7A5FF00B1012746E0FFE704E006
:102670000120FFF79DFF0546641C15B9B4F5A06F56
:10268000F6D10120FFF794FF00B1012735E005E006
:1026900043F21100FFF78CFF0546641C15B918487A
:1026A0008442F5D143F21100FFF782FF00B1012708
:1026B00023E005E040F60110FFF77AFF0546641CB1
:1026C00015B90F488442F5D140F60110FFF770FFAD
:1026D00000B1012711E004E01920FFF769FF05466A
:1026E000641C15B906488442F6D11920FFF760FF33
:1026F00000B1012701E0FFE700BF00BF3846F0BD91
:10270000FFFF0F00064A02EB9011096800F01F035B
:1027100001229A401143024B03EB90121160704763
:1027200000100240064A02EB9011096800F01F03F6
:1027300001229A409143024B03EB901211607047C3
:1027400000100240064A02EB9011096800F01F03D6
:1027500001229A401143024B03EB90121160704723
:1027600000100240044A116A21F4407141EA00025B
:10277000014B1A62704700000010024003480068D5
:1027800040F0100001490860704700000428004034
:102790000348006820F010000149086070470000FD
:1027A0000428004000B50246FFF7E8FF100C04497A
:1027B000086090B2091D0860FFF7EAFF00BD000045
:1027C0001828004000BF0348006800F020000028DF
:1027D000F9D070470428004000B50246FFF7CEFF4D
:1027E000C2F303400349086090B2091D0860FFF777
:1027F000CFFF00BD082800400648006820F0080010
:102800000449086000BF0348006800F00800002881
:10281000F9D0704704280040016841F04001016090
:1028200070470146C86880B27047C1607047024671
:102830009068084008B1012070470020FCE702467C
:102840000020106800F441500B6818434B6818438F
:102850008B681843CB6818430B6918434B691843BE
:102860008B6918431060D36923F40063D361704708
:102870000021016041608160C1604161816101614D
:1028800070470000002000213F4A126842F4803265
:102890003D4B1A6000BF401C3B4A126802F40031F5
:1028A00019B94FF6FF729042F5D1374A126802F417
:1028B00000320AB900BFFEE7334AD26942F08052C3
:1028C000314BDA61314A126842F440422F4B1A60B0
:1028D0002D4A52682C4B5A601A4652685A601A4662
:1028E000526842F480625A601A46526822F44032BA
:1028F0005A601A46526842F440325A601A46526888
:10290000234B1A40204B5A601A465268214B1A43F7
:102910001D4B5A601A46126842F080721A6000BF5E
:10292000194A126802F00072002AF9D0174A126898
:1029300042F48032154B1A6000BF144A526802F408
:102940008032002AF9D0114A126842F400320F4B4B
:102950001A6000BF0D4A526802F40032002AF9D012
:10296000094A526822F00302074B5A601A4652681D
:1029700042F002025A6000BF034A526802F00802A5
:10298000002AF9D07047000000100240007000409B
:10299000FFFFC3B70000340810B5FFF773FF10BD89
:1029A0004162704710B504463349601A8C4244D0E6
:1029B0000CDCB4F1804F1CD03048204410B3B0F58B
:1029C000806F28D0B0F5006F52D12DE0B0F5806F48
:1029D0003CD0B0F58E3F03D0B0F5923F48D13EE0F9
:1029E00040F20B30FFF7AEFE40F20B30FFF79AFEDD
:1029F0003FE04FF48060FFF7A5FE4FF48060FFF7E3
:102A000091FE36E040F20140FFF79CFE40F20140AB
:102A1000FFF788FE2DE040F20240FFF793FE40F200
:102A20000240FFF77FFE24E040F20340FFF78AFEFA
:102A300040F20340FFF776FE1BE040F20440FFF750
:102A400081FE40F20440FFF76DFE12E040F20540C7
:102A5000FFF778FE40F20540FFF764FE09E040F220
:102A60000D30FFF76FFE40F20D30FFF75BFE00E028
:102A700000BF00BF10BD00000010004000FCFFBF01
:102A8000016821F0010101607047016841F0010116
:102A9000016070470A8882621D4A90420ED0B0F1F0
:102AA000804F0BD01B4A904208D01B4A904205D061
:102AB0001A4A904202D01A4A90420BD1026822F080
:102AC0007002026002684B881A43026002688B88B9
:102AD0001A4302608A68C262124A90420AD0124ABD
:102AE000904207D0026822F4407202600268CB88EC
:102AF0001A430260064A904202D0094A904201D12C
:102B00000A7B0263426942F00102426170470000A1
:102B1000002C01400004004000080040000C004070
:102B2000003401400010004000140040C2688A4395
:102B3000C2607047C2680A43C2607047CA430261FC
:102B400070470246D06800EA01031069084010B1DE
:102B50000BB1012070470020FCE70021018041807B
:102B600081804FF6FF7181600021C1800173704741
:102B700070B502460C46FF25FF2309E012F8010B51
:102B800080EA03010648405C80EA05030548455C8D
:102B9000201EA4F10106B4B2F0D143EA052070BDB5
:102BA00068310008683200082DE9F04704460D46F8
:102BB0000027B846B94600261D49601A8C421CD031
:102BC00006DC1C48204470B1B0F5806F1FD10FE0C7
:102BD000B0F5806F16D0B0F56C4F18D10320FFF719
:102BE0003BFC074614E00220FFF736FC07460FE0E7
:102BF0000220FFF731FC07460AE00220FFF72CFC19
:102C0000074605E00220FFF727FC074600E000BF6B
:102C100000BF07EB5500B0FBF5F64FF6F07006EA83
:102C2000000806F00F0948EA0900A060BDE8F08737
:102C3000004C004000BCFFBF01464868C0F30800DC
:102C40007047C1F3080242607047000010B50446A7
:102C50002049601A8C4228D006DC1F48204490B1DD
:102C6000B0F5806F33D117E0B0F5806F26D0B0F5A6
:102C70006C4F2CD140F20E30FFF764FD40F20E3065
:102C8000FFF750FD24E040F21140FFF75BFD40F2FA
:102C90001140FFF747FD1BE040F21240FFF752FDE5
:102CA00040F21240FFF73EFD12E040F21340FFF702
:102CB00049FD40F21340FFF735FD09E040F21440B2
:102CC000FFF740FD40F21440FFF72CFD00E000BF8D
:102CD00000BF10BD004C004000BCFFBFC16841F404
:102CE0000051C160704710B5024602EB91100068B8
:102CF00001F01F040123A340184008B1012010BDBA
:102D00000020FCE710B500EB9112126801F01F04DF
:102D10000123A3409A4300EB91131A6010BD10B534
:102D200000EB9112126801F01F040123A3401A4323
:102D300000EB91131A6010BDC1F3044301229A40C5
:102D4000D24300EB91531A60704770B502460023DE
:102D50000024C1F38910105801F01F060125B54069
:102D600000EA050302EB91500068C1F30446012517
:102D7000B54000EA050414B10BB1012070BD00207C
:102D8000FCE7C26822F00402C260C26801F00403DA
:102D90001A43C2607047C26822F00802C260C2686B
:102DA00001F008031A43C2607047000070B5044682
:102DB0000D46012C0AD11649086840F20531FFF78B
:102DC000AEFF20211348FFF7DDF909E0104908683C
:102DD00040F20531FFF796FF20210E48FFF7D4F9A6
:102DE000012D0AD10A49086840F20631FFF797FF22
:102DF00020210848FFF7C8F909E00549086840F2B2
:102E00000631FFF77FFF20210248FFF7BBF970BDB5
:102E1000BC0100200010014010B500210748FFF759
:102E2000BFFD01210548FFF789FE01210348FFF797
:102E30007DFE0248FFF724FE10BD000000080040A0
:102E400010B500210748FFF7ABFD01210548FFF74A
:102E500075FE01210348FFF76DFE0248FFF715FEDE
:102E600010BD00000008004001460020054A12780D
:102E700032B1054A12780A700022024B1A70012002
:102E800070470000B9010020B8010020002002496D
:102E90000870012070470000B901002001460120A0
:102EA000024A10700248017001207047B9010020E9
:102EB000B801002010B5044603490868FFF7BCFEBE
:102EC0002070012010BD0000BC0100202DE9F04160
:102ED00005460C4616461F46FDF72AFFFDF7FEFB8A
:102EE0002046FEF701F90120BDE8F08110B5044647
:102EF000034908682146FFF7A4FE012010BD000029
:102F0000BC0100201FB5044640F20270FFF7FAFB37
:102F10000D48FFF747FD6846FFF71FFE41F26F704F
:102F2000ADF80000601E029069460748FFF7B2FD49
:102F300001210548FFF7FEFD002211461E20FFF784
:102F4000A1F9012004B010BD0008004038B50024EC
:102F50002148007800B904E0EC2220A125A0FEF76A
:102F60000DFA6846FFF7A6FF2948007830B101281E
:102F70000AD0022819D003282BD102E0FFF760FF06
:102F800027E0FFF75DFF24E00020224908809DF83C
:102F900000200888411C1F4B19801F490A54022039
:102FA0001B490870FFF74CFF13E01A480088FF2800
:102FB00009DC9DF8002017490888411C154B198031
:102FC00015490A5402E0032011490870FFF738FF41
:102FD00000BF00BF204638BD200100204D69645F5E
:102FE0004D6F646275735C7274755C6D627274753A
:102FF0002E63000065536E645374617465203D3D1B
:103000002053544154455F54585F49444C45000097
:10301000210100202A010020DC01002010B500243D
:103020001648007820B1022807D003280BD109E008
:103030000020FFF733FF044618E00120FFF72EFFC2
:10304000044613E012E00D48007838B10B480078D0
:10305000022803D009480078032800D105E04FF486
:10306000B07207A10C48FEF789F900BF00BFFFF757
:10307000D3FE012001490870204610BD2101002027
:103080004D69645F4D6F646275735C7274755C6DDD
:10309000627274752E6300006833000810B5002456
:1030A0001B480078012800D105E040F2271219A141
:1030B0001EA0FEF763F92448007810B1012824D13E
:1030C00004E000210120FFF771FE1EE01F48008888
:1030D00078B11F4909680878FFF708FF1C480068A5
:1030E000401C1B49086019480088401E1749088089
:1030F0000AE00320FFF7D2FE044600210120FFF77B
:1031000055FE00201049087000BF00BF204610BDCA
:10311000210100204D69645F4D6F646275735C72BC
:1031200074755C6D627274752E630000655263760F
:103130005374617465203D3D2053544154455F52A2
:10314000585F49444C450000200100202801002020
:10315000240100205A5A01000100000080250000CF
:103160001D0B0008A112000800C1814001C0804170
:1031700001C0804100C1814001C0804100C1814047
:1031800000C1814001C0804101C0804100C1814037
:1031900000C1814001C0804100C1814001C0804127
:1031A00001C0804100C1814001C0804100C1814017
:1031B00000C1814001C0804100C1814001C0804107
:1031C00001C0804100C1814000C1814001C08041F7
:1031D00001C0804100C1814001C0804100C18140E7
:1031E00000C1814001C0804101C0804100C18140D7
:1031F00000C1814001C0804100C1814001C08041C7
:1032000001C0804100C1814000C1814001C08041B6
:1032100001C0804100C1814001C0804100C18140A6
:1032200000C1814001C0804100C1814001C0804196
:1032300001C0804100C1814001C0804100C1814086
:1032400000C1814001C0804101C0804100C1814076
:1032500000C1814001C0804100C1814001C0804166
:1032600001C0804100C1814000C0C101C30302C24E
:10327000C60607C705C5C404CC0C0DCD0FCFCE0EB6
:103280000ACACB0BC90908C8D81819D91BDBDA1A26
:103290001EDEDF1FDD1D1CDC14D4D515D71716D696
:1032A000D21213D311D1D010F03031F133F3F23206
:1032B00036F6F737F53534F43CFCFD3DFF3F3EFE76
:1032C000FA3A3BFB39F9F83828E8E929EB2B2AEAE6
:1032D000EE2E2FEF2DEDEC2CE42425E527E7E62656
:1032E00022E2E323E12120E0A06061A163A3A262C6
:1032F00066A6A767A56564A46CACAD6DAF6F6EAE36
:10330000AA6A6BAB69A9A86878B8B979BB7B7ABAA5
:10331000BE7E7FBF7DBDBC7CB47475B577B7B67615
:1033200072B2B373B17170B0509091519353529285
:1033300096565797559594549C5C5D9D5F9F9E5EF5
:103340005A9A9B5B99595898884849894B8B8A4A65
:103350004E8E8F4F8D4D4C8C4484854587474686D5
:1033600082424383418180402820655263765374B2
:10337000617465203D3D2053544154455F52585F70
:10338000494E49542029207C7C20282065526376B0
:103390005374617465203D3D2053544154455F5240
:1033A000585F5243562029207C7C20282065526398
:1033B000765374617465203D3D2053544154455FFC
:1033C00052585F4552524F5220290000EC330008FA
:1033D00000000020DC0100002E0200087C34000800
:1033E000DC0100203405000028140008211A050221
:1033F00021130D0722081A0102212B4D0A0CA510DA
:103400002710272918412BD9091C692A215AC110D4
:1034100012037A02261AFB141A031269103A115089
:1034200029200126293A13E51B33081013A91C3360
:1034300008061A6B0801882A02912C080140DE391F
:103440009D142001409A200C8A40241119252A0637
:103450000C1C18014017112A070C4A1C0C01211ED4
:103460003801400E064A294832022204C22512447D
:0C3470004C40110720191B113208B22635
:0400000508000131BD
:00000001FF
