:020000040800F2
:1000000048D500204901000821180008F50E000815
:1000100071170008F10500087921000800000000B0
:10002000000000000000000000000000C91A0008E5
:10003000F10900080000000023180008191B00083F
:100040006301000863010008630100086301000800
:1000500063010008630100086301000863010008F0
:1000600063010008630100086301000863010008E0
:1000700063010008630100086301000863010008D0
:1000800063010008630100086301000863010008C0
:1000900063010008630100086301000863010008B0
:1000A00063010008630100086301000863010008A0
:1000B0006301000863010008591C0008630100087F
:1000C0006301000863010008630100086301000880
:1000D00063010008A9200008E5200008630100086A
:1000E0006301000863010008630100086301000860
:1000F0006301000863010008630100086301000850
:100100006301000863010008811C00086301000806
:10011000630100086301000863010008630100082F
:10012000630100086301000863010008630100081F
:10013000DFF810D000F0FAF800480047B5FF0208D9
:10014000AFF3008048D500200648804706480047A6
:10015000FEE7FEE7FEE7FEE7FEE7FEE7FEE7FEE777
:10016000FEE7FEE7491B0008310100082DE9F05FBA
:100170000546002092469B46884606468146402416
:100180001BE0284641464746224600F0BFF853464A
:100190005A46C01A914110D311461846224600F023
:1001A000A6F82D1A67EB01084F46224601200021D0
:1001B00000F09DF817EB00094E41201EA4F1010448
:1001C000DFDC484631462A464346BDE8F09F2DE92C
:1001D000FE43994615468846074601AC022942D39C
:1001E000002D40D000200290A8F101004FF0FF3612
:1001F000009022E000FB057201FB057011464A46A3
:100200009047002805DC54F82600304444F82600C6
:1002100013E060682A4600FB057154F8040C00FBEB
:10022000057007E00B7890F800C001F801CB00F8EA
:10023000013B521E002AF5D1764254F8040C616845
:100240008842D7DC4B462A463846FFF7C0FF54F8B1
:10025000040C4B46A8EB0001401C00FB05702A462D
:10026000491EFFF7B4FFBDE8FE8340EA01039B0788
:1002700003D009E008C9121F08C0042AFAD203E01B
:1002800011F8013B00F8013B521EF9D27047D2B27F
:1002900001E000F8012B491EFBD270470022F6E76F
:1002A00010B513460A4604461946FFF7F0FF2046EC
:1002B00010BD421C10F8011B0029FBD1801A7047A9
:1002C00010B5002200E0521C835C8C5CA34201D17B
:1002D000002BF8D1D8B2E1B2401A10BD034611F894
:1002E000012B00F8012B002AF9D118467047202A6B
:1002F00004DB203A00FA02F1002070479140C2F17D
:10030000200320FA03F3194390407047202A04DBAE
:10031000203A21FA02F00021704721FA02F3D0407E
:10032000C2F120029140084319467047064C074D20
:1003300006E0E06840F0010394E8070098471034B5
:10034000AC42F6D3FFF7F8FEC0DA0308E0DA0308A0
:1003500070B58C1810F8015B15F0070301D110F887
:10036000013B2A1106D110F8012B03E010F8016BB4
:1003700001F8016B5B1EF9D12B0705D40023521E37
:100380000DD401F8013BFAE710F8013BCB1A921C9F
:1003900003E013F8015B01F8015B521EF9D5A1429D
:1003A000D8D3002070BD000010B501210B4813F018
:1003B000FEFEC0F10100C4B222460121074813F03D
:1003C0008BFE0221054813F0F2FEC0F10100C4B219
:1003D00022460221014813F07FFE10BD000C0140AF
:1003E00010B540F2096030F0D3FF022030F030FE4B
:1003F000002004F0D9FF012202211A4805F06FF80D
:100400000021184804F07DFF01221146154804F030
:1004100055FF07230D220021124804F0F7FF4FF487
:10042000602201210F4804F09FFF012211460D4870
:1004300004F07BFF0C23802200210A4804F0C2FF55
:10044000084804F0DCFF074804F066FF322000F0A3
:10045000FBFA044804F01DFF0121024805F030F8C2
:1004600010BD00000024014010B540F20A6030F0D9
:100470008FFF022030F0ECFD002004F095FF0022F9
:100480000221134805F02BF80021114804F039FF30
:10049000012211460E4804F011FF06230E2200210E
:1004A0000B4804F0B3FF4FF460220121084804F028
:1004B0005BFF01221146064804F037FF044804F0B0
:1004C0002BFF322000F0C0FA014804F0E2FE10BD1C
:1004D000002801402DE9F04105460E463246122122
:1004E000284600F05EF8044614B90A20BDE8F08101
:1004F00035F81410601E35F81000091A601E35F822
:100500001000301A00EB800090FBF1F1601E00EB50
:1005100080000A300844C7B23846E7E770B50546A0
:100520002A4664210F4800F0A5FA04460CB90020C1
:1005300070BD601E0B4931F8100031F81410411ADB
:10054000601E084A32F81000401B00EB800040009B
:1005500090FBF1F1601E00EB800001EB400086B2E1
:100560003046E5E7BC7B030810B5054801F006FC02
:1005700001F000F900F050FF00F0BEFC10BD0000DB
:10058000151D000810B502460023002003E032F8D4
:1005900010402344401C8842F9D3B3FBF1F080B2F1
:1005A00010BDF0B504460B46154600225E1E581ECF
:1005B0000CE0B71A07EBD77C02EB6C0134F8117032
:1005C000AF4202DB4E1E084600E04A1CB242F0DD9C
:1005D000F0BD000010B540F2026030F0D9FE0223F9
:1005E0001A461021014813F07CFD10BD000801409F
:1005F00000BFFEE730B502460B46FF20002113E0A6
:10060000545C604008240BE000F0800525B13125E2
:1006100085EA4005E8B201E04506280E651EECB209
:10062000002CF1DC4C1CE1B29942E9D330BD000052
:100630002DE9F04106460C46052094FBF0F0C5B2CA
:10064000052094FBF0F100FB114050B905EBC5000B
:10065000194A02EB800124223046FFF706FEBDE86E
:10066000F081002024E0052194FBF1F201FB12410E
:100670006A1C02EBC202104B03EB820232F810201C
:1006800005EBC5030C4F07EB830333F81030D21A88
:100690005143052291FBF2F105EBC5023B4603EB0A
:1006A000820232F81020114426F81010411CC8B202
:1006B0001228D8DB00BFD2E7847C030870B502465D
:1006C00013460C4600201D882688B54201DD401ED9
:1006D00006E01D882688B54201DA012000E00020EE
:1006E00070BD00B597B008A811F048F84FF4A160AC
:1006F00030F04EFE002001900790069003200590F8
:100700000020049003900290032008900020149091
:10071000139010201290002011900E9010900F90C6
:100720000B900A9001200D9000200C90099001A8D8
:10073000159008A810F094FF032010F086FF17B062
:1007400000BD000010B54FF40071154813F0C0FC57
:100750004FF4805303221021114813F0C2FC4FF4D0
:1007600080510F4813F0B4FC012000F061F94FF400
:1007700080510B4813F0AEFC012000F059F94FF402
:100780000071074813F0A6FC0A2000F051F94FF45D
:10079000805303220421024813F0A3FC10BD000083
:1007A000000C014010B540F2056030F0F1FD40F260
:1007B000066030F0EDFD40F2076030F0E9FD4FF4E7
:1007C000C16030F0E5FD012304221821844813F0B4
:1007D00088FC022304221821814813F082FC0423A0
:1007E0001A4618217E4813F07CFC082304221821A5
:1007F0007B4813F076FC102304221821784813F06C
:1008000070FC202304221821754813F06AFC4FF471
:10081000805304221821724813F063FC4FF40053F4
:10082000042218216E4813F05CFC4FF4804304222C
:1008300018216B4813F055FC4FF400430422182193
:10084000674813F04EFC012304221821654813F079
:1008500048FC022304221821624813F042FC0423BE
:100860001A4618215F4813F03CFC08230422182183
:100870005C4813F036FC102304221821594813F069
:1008800030FC202304221821564813F02AFC4FF490
:10089000006304221821544813F023FC4FF48053C2
:1008A00004221821504813F01CFC4FF4005304227A
:1008B00018214D4813F015FC4FF4804304221821F1
:1008C000494813F00EFC4FF4004304221821464817
:1008D00013F007FC012304221821434813F001FC04
:1008E000022304221821404813F0FBFB802304223A
:1008F00018213E4813F0F5FB4FF4807304221821B1
:100900003A4813F0EEFB4FF40073042218213748E5
:1009100013F0E7FB4FF4806304221821334813F0EF
:10092000E0FB4FF4006304221821304813F0D9FB98
:100930004FF48053042218212C4813F0D2FB4FF4BB
:10094000005304221821294813F0CBFB4FF48043B5
:1009500004221821254813F0C4FB4FF4004304225D
:100960001821224813F0BDFB4FF480730422182194
:100970001D4813F0B6FB4FF40073042218211A48E7
:1009800013F0AFFB4FF4806304221821164813F0D4
:10099000A8FB4FF4007304221821124813F0A1FBA6
:1009A000102304221821104813F09BFB202304225B
:1009B00018210D4813F095FB4FF4805304221821A1
:1009C000084813F08EFB012304221821074813F076
:1009D00088FB022304221821044813F082FB10BD77
:1009E000001C01400020014000140140001801409B
:1009F000704700000C48006820F080700A490860C9
:100A00000846006840F0807008600848006820F0E0
:100A10000100064908600846006840F001000860CF
:100A20000020486070470000FCED00E0001000E08E
:100A300070B50446002504E04FF47A7000F004F825
:100A40006D1CA542F8D370BD70B5044607484568D3
:100A5000012030F047FB0649B0FBF1F0444300BFF2
:100A600002484068401BA042FAD370BD001000E06D
:100A700040420F00F0B504460B46154600225E1EAC
:100A8000581E0CE0B71A07EBD77C02EB6C0134F868
:100A90001170AF4202DC4E1E084600E04A1CB24212
:100AA000F0DDF0BD10B5FFF7A5FF00F023FE00F06C
:100AB000D1FC01F063FB00F0BDFF01F006F800F08F
:100AC00003F801F097F810BD10B500F0B7F810BDAD
:100AD00010B5FFF767FEFFF704FE10BD00B59DB02F
:100AE0000EA810F04BFE4FF4A16030F051FC002036
:100AF00007900D900C900F200B9000200A90099009
:100B00000890009006900590022004900020039029
:100B10000290019001200E9000201A901990102050
:100B200018900020179015901190012010901390AC
:100B3000002012900F9007A81B90CDF870D00EA83F
:100B400010F08EFD012010F080FD1DB000BD0000F2
:100B500010B500BF0221044804F01EFC0028F9D0A3
:100B6000014804F0A9FC10BD0024014010B501218A
:100B7000064804F0A5FC00BF0221044804F00CFC68
:100B80000028F9D0014804F097FC10BD002801406E
:100B90000348007800EE100AB8EE400A70470000E3
:100BA0009201002010B5044600F010F884ED000A10
:100BB000FFF7EEFFBCEEC00A10EE100A207110BD68
:100BC000014908684968704798010020014890ED84
:100BD000000A70478801002010B540F2046030F030
:100BE000D7FB082301220021014813F07AFA10BD37
:100BF0000010014010B540F2046030F0C9FB102332
:100C0000042200210B4813F06CFA40F2036030F02C
:100C1000BFFB03231A461021074813F062FA012292
:100C20001146054813F058FA00220221024813F039
:100C300053FA10BD00100140000C014010B540F205
:100C4000036030F0A5FBC02301221421014813F0FA
:100C500048FA10BD000C014010B540F2056030F0BC
:100C600097FB40F2066030F093FB40F2076030F0F3
:100C70008FFB4FF4C16030F08BFB0123042218215D
:100C80007B4813F02EFA022304221821784813F02F
:100C900028FA04231A461821754813F022FA08236B
:100CA00004221821724813F01CFA10230422182180
:100CB0006F4813F016FA2023042218216C4813F011
:100CC00010FA4FF4805304221821694813F009FAEE
:100CD0004FF4005304221821654813F002FA4FF430
:100CE000804304221821624813F0FBF94FF40043BB
:100CF000042218215E4813F0F4F90123042218217C
:100D00005C4813F0EEF9022304221821594813F02D
:100D1000E8F904231A461821564813F0E2F908238B
:100D200004221821534813F0DCF91023042218215F
:100D3000504813F0D6F92023042218214D4813F00F
:100D4000D0F94FF40063042218214B4813F0C9F97D
:100D50004FF4805304221821474813F0C2F94FF48E
:100D6000005304221821444813F0BBF94FF4804388
:100D700004221821404813F0B4F94FF40043042230
:100D800018213D4813F0ADF90123042218213A48F7
:100D900013F0A7F9022304221821374813F0A1F910
:100DA000802304221821354813F09BF94FF48073F7
:100DB00004221821314813F094F94FF400730422EF
:100DC00018212E4813F08DF94FF480630422182166
:100DD0002A4813F086F94FF40063042218212748AB
:100DE00013F07FF94FF4805304221821234813F0A5
:100DF00078F94FF4005304221821204813F071F9B8
:100E00004FF48043042218211C4813F06AF94FF470
:100E1000004304221821194813F063F94FF480733A
:100E200004221821144813F05CF94FF400730422D3
:100E30001821114813F055F94FF48063042218214A
:100E40000D4813F04EF94FF400730422182109489D
:100E500013F047F9102304221821074813F041F931
:100E6000202304221821044813F03BF910BD000090
:100E7000001C014000200140001401400018014006
:100E800010B540F2076030F083FA4FF4C0630122DE
:100E900014210B4813F025F940F2036030F078FA82
:100EA0004FF4007301221021064813F01AF94FF491
:100EB000805301221021034813F013F910BD0000E4
:100EC000001C0140000C014010B50949C88830F0F1
:100ED0005FFA0749CB6801228868182113F001F9ED
:100EE00003490B6901228868482113F0FAF810BD04
:100EF000D401002000BFFEE710B521F0D7FB2AF097
:100F000079FB2AF0A3FB00F001F810BDF8B5002230
:100F10001146104619F002F900902AF004FF044629
:100F20000022009929F098FF2E482BF0EBFEF922C1
:100F300097214C2019F0F2F80146009029482CF036
:100F4000ACF97F2127482CF0CCF9082125482CF05A
:100F5000E3FB50202AF044FA0446214621482CF0B5
:100F60006FFC14202AF03CFA044621461D482CF060
:100F700015FA00211B482CF0E9F900242EE02AF094
:100F8000D2FE064617F018FA054600BF164A0021A1
:100F9000284629F0F9F900BF0221284629F08CFCE7
:100FA000C4EBC40000EB8000282101EB800003B2F9
:100FB00000220221284624F0D9FC002209492846B3
:100FC00024F073FC0948031907220949284624F034
:100FD0006DFB204601F03CF8601CC4B2032CCEDB54
:100FE000F8BD00006C000020FFFF0F00680000202B
:100FF0009516000810B500BF2EF06CF810BD10B5A6
:10100000FFF7F8FDFFF730FA4FF47A7000F004FFB5
:1010100010BD000010B58AB004463C2C00DD05244C
:10102000214601A8FFF704FB0448018801A8FFF747
:1010300051FA034908700AB010BD00009001002069
:101040009201002070B500248021114813F042F86D
:10105000002518E040210E4813F03CF80420FFF76B
:10106000F3FC6006040E8021094813F098F808B1DB
:10107000601CC4B24021064813F02AF80420FFF790
:10108000E3FC681CC5B2082DE4DB204670BD0000FF
:10109000000C014070B500244FF40071124813F0A9
:1010A00019F800251BE04FF480610F4813F012F887
:1010B0000420FFF7C9FC6006040E4FF400710A48D3
:1010C00013F06DF808B1601CC4B24FF4806106489B
:1010D00012F0FEFF0420FFF7B7FC681CC5B2082D14
:1010E000E1DB204670BD0000001C014010B58021EE
:1010F0000C4812F0EDFF0420FFF7A6FC4021094840
:1011000012F0E8FF0420FFF79FFC4021054812F091
:10111000DFFF0420FFF798FC8021024812F0DAFF7D
:1011200010BD0000000C014010B54FF400710E48D6
:1011300012F0CEFF0420FFF787FC4FF480610A48CD
:1011400012F0C8FF0420FFF77FFC4FF480610648CF
:1011500012F0BEFF0420FFF777FC4FF40071024845
:1011600012F0B8FF10BD0000001C014070B504462D
:10117000002520E004F0800020B180210F4812F00B
:10118000A9FF03E080210D4812F0A2FF6006040EC3
:101190000420FFF759FC4021084812F09BFF04206F
:1011A000FFF752FC4021054812F092FF0420FFF7A0
:1011B0004BFC681CC5B2082DDCDB70BD000C014087
:1011C00070B50446002524E004F0800028B14FF4F7
:1011D0000071114812F07EFF04E04FF400710E48D8
:1011E00012F076FF6006040E0420FFF72DFC4FF48A
:1011F0008061094812F06EFF0420FFF725FC4FF4D0
:101200008061054812F064FF0420FFF71DFC681C94
:10121000C5B2082DD8DB70BD001C014010B580217F
:101220000A4812F057FF0420FFF70EFC4021074840
:1012300012F050FF0420FFF707FC4021034812F092
:1012400047FF0420FFF700FC10BD0000000C014028
:1012500010B54FF400710B4812F03CFF0420FFF76B
:10126000F3FB4FF48061074812F034FF0420FFF7CE
:10127000EBFB4FF48061034812F02AFF0420FFF7D4
:10128000E3FB10BD001C014010B580210C4812F09A
:1012900021FF40210A4812F01DFF0420FFF7D4FB74
:1012A0008021074812F014FF0420FFF7CDFB4021F6
:1012B000034812F00DFF0420FFF7C6FB10BD00002D
:1012C000000C014010B54FF400710E4812F002FFFF
:1012D0004FF480610B4812F0FDFE0420FFF7B4FBD1
:1012E0004FF40071074812F0F3FE0420FFF7ACFB47
:1012F0004FF48061034812F0EBFE0420FFF7A4FBDB
:1013000010BD0000001C014010B58021084812F0FB
:10131000DFFE0420FFF798FB4021054812F0DAFEBB
:101320000420FFF791FB8021014812F0D3FE10BD8D
:10133000000C014010B54FF400710A4812F0C8FECD
:101340000420FFF781FB4FF48061064812F0C2FED3
:101350000420FFF779FB4FF40071024812F0BAFE47
:1013600010BD0000001C014010B50024802112486F
:1013700012F0B0FE0420FFF767FB40210E4812F088
:10138000A9FE0420FFF760FB07E0601CC4B2FA2C42
:1013900003DDFFF7B9FF002010BD8021064812F0E1
:1013A000FEFE0028F1D14021034812F091FE0420F6
:1013B000FFF74AFB0120EFE7000C014010B50024C5
:1013C0004FF40071134812F085FE0420FFF73CFB38
:1013D0004FF480610F4812F07DFE0420FFF734FBCC
:1013E00007E0601CC4B2FA2C03DDFFF7A3FF002066
:1013F00010BD4FF40071074812F0D1FE0028F0D163
:101400004FF48061034812F063FE0420FFF71CFBD9
:101410000120EDE7001C014008B5684600F0B6FA6F
:1014200068B1BDF8000045F65A21884207D1074847
:1014300000990160014688780FF02AFF08BD034833
:1014400003490968016000BFF8E70000240000209C
:10145000A879030810B5002417E004EB44010C4AF6
:1014600032F821002FF094FF04EB4401084A02EB0C
:1014700081018B6804EB440102EB81010222486880
:10148000042112F02EFE601CC4B2032CE5D310BD63
:101490004001002010B5FFF7DFFBFFF71FFBFFF750
:1014A00099F800F02BF80221014812F013FE10BD4C
:1014B000000801402DE9F04704460D4616461F4638
:1014C000DDF82080301B401C791B491C00FB01F912
:1014D0003B4632462946204600F0C4F82C204FF007
:1014E000C8410880002005E038F810104FF0C842CD
:1014F0005180401C4845F7D3BDE8F08710B5D32094
:101500004FF0C841088008464488448844884FF614
:10151000FF7000EA042408464088044321464AA09C
:1015200000F0EEFE49F28840844203D049A000F06A
:10153000E7FE10BDF7204FF0C8410880A920488081
:10154000512048802C20488082204880C02008807C
:101550001120488009204880C1200880412048800F
:10156000C5200880002048800A20488080204880CC
:10157000B1200880B020488011204880B420088025
:1015800002204880B620088002204880222048801F
:10159000B7200880C6204880BE20088000204880F0
:1015A00004204880E92008800020488036200880F8
:1015B000082048803A20088055204880E020088094
:1015C000002048800720488010204880092048805B
:1015D000172048800B20488041204880892048807F
:1015E0004B2048800A2048800C2048800E204880EC
:1015F000182048801B2048800F204880E120088068
:1016000000204880172048801A2048800420488005
:101610000E204880062048802F20488045204880A2
:1016200043204880022048800A20488009204880C2
:1016300032204880362048800F20488011200880C2
:101640002920088000BF74E74C43442049443A25D0
:10165000780A00004C434420696E697420657272F8
:101660006F720A0030B52A244FF0C8452C8004124E
:101670006C80C4B26C8014126C80D4B26C802B2449
:101680002C800C126C80CCB26C801C126C80DCB292
:101690006C8030BDF8B5054628461EF08AF807462E
:1016A00028461EF089F804461148201AC6B2207850
:1016B00068B900221146FF2018F030FD00220146D3
:1016C0000090384629F0C8FB012020700CE0F92278
:1016D00097214C2018F022FD002201460090384648
:1016E00029F0BAFB00202070304600F0B9FBF8BDAD
:1016F0006800002010B5002424E004EB4401134AE4
:1017000032F821002FF044FE04EB44010F4A02EBB3
:1017100081018B6804EB440102EB810102224868DD
:10172000102112F0DEFC04EB4402084B03EB8202B2
:10173000916804EB440203EB8202506812F0C8FC8B
:10174000601CC4B2032CD8D310BD0000640100207B
:1017500070B504460D46054B022229462046FEF789
:1017600036FDA91EA01CFEF70DFF70BDBD060008CA
:1017700000BFFEE71FB5044B0FCB8DE80F00684696
:1017800000F038F81FBD0000AC7903081CB5044612
:101790006846FFF707FA9DF8040000EB8000400060
:1017A00020801CBD1CB504466846FFF7FBF99DED83
:1017B000000AF2EE040A20EE200ABCEEC00A10EE87
:1017C000100A20801CBD10B504461CB9002000F092
:1017D0003FFC02E0002000F051FC10BD10B50446B3
:1017E0001CB9012000F034FC02E0012000F046FCAE
:1017F00010BD000038B50446002000902178024654
:1018000063680FF03BFB0FF08DFA0248D4E9021237
:1018100006C038BD3801002010B50FF09FFB10BD89
:101820007047704709490A4A128821F8120008498E
:101830000988491C064A1180114609880A2291FB31
:10184000F2F302FB1311024A118070474805002091
:101850008C0100202DE9F04107460C4615462A462A
:101860002146384600F011F810B90020BDE8F0819B
:10187000691E2046FEF7BEFE0646681E205CB0428A
:1018800001D00020F2E70120F0E770B506460C46D3
:1018900015467019B0F5807F00DC0CB9002070BDD2
:1018A000FFF7F2FCA020FFF761FCFFF75DFD00B938
:1018B00026E03046FFF75AFCFFF756FD00B91FE05F
:1018C000FFF7E2FCA120FFF751FCFFF74DFD00B947
:1018D00016E0681E85B205E0FFF7B4FB04F8010BC3
:1018E000FFF704FC281EA5F101018DB2F4D1FFF72A
:1018F000A9FB2070FFF792FCFFF706FD0120CEE761
:10190000FFF702FD0020CAE72DE9F047804689462F
:10191000154615B90220BDE8F08700242FE0002607
:10192000002726E0184800EB0710408808EB040168
:10193000884200D01CE0144800EB0716307800F015
:10194000010008B90220E6E7B06880B1022202FB7C
:101950000450B168884715F814A06000401C285C4A
:1019600005F814006000401C05F800A000BF00BF8F
:101970007F1C042FD6D30EB90120CCE7641C4C4544
:10198000CDD30020C7E700002800002070B5044632
:1019900004252A4621460020FFF75CFF08B10120FC
:1019A00070BD2A4621468020FFF754FF08B1012070
:1019B000F6E70020F4E770B505460C461646FFF73B
:1019C00081FC2820FFF7FCFBFFF7F8FC00B92DE0B5
:1019D000280AFFF7F5FBFFF7F1FC00B926E0E8B2B3
:1019E000FFF7EEFBFFF7EAFC00B91FE0FFF76AFC28
:1019F0002920FFF7E5FBFFF7E1FC00B916E0701EB8
:101A0000C6B205E0FFF746FB04F8010BFFF78CFBBD
:101A1000301EA6F10101CEB2F4D1FFF73BFB2070DE
:101A2000FFF716FCFFF786FC012070BDFFF782FC74
:101A30000020FAE710B5012004F078FC45F65A21A1
:101A400088422ED040F21C702FF0A2FC40F21B7096
:101A50002FF09EFC2FF0E2F904F062FC4FF40060DE
:101A60002FF0FEFB4FF400602FF00AFC4FF4807063
:101A70002FF0BEFC40F60F002FF08AFC30F068FF1C
:101A800030F04CFF47F6FF7030F052FF30F046FF69
:101A90000C4830F033FF45F65A21012004F062FC77
:101AA00010BD40F21C702FF073FC40F21B702FF041
:101AB0006FFC2FF0B3F930F04BFF30F02FFF00BF79
:101AC000EEE70000F624FE63704710B500F05CF905
:101AD000FFF795FA10BD10B500F05CF9FFF776F846
:101AE000BCEEC00A10EE100AC4B22046FFF792FA0C
:101AF00010BD10B5FFF7EFFF10BD000010B540F2AC
:101B000004602FF045FC202303221021014812F02D
:101B1000E8FA10BD0010014010B50948026840689D
:101B2000521C40F1000006490A6048600548006800
:101B300000B910BD03480068804700BFF9E7000006
:101B400098010020A001002008B52748006840F453
:101B50007000254908602548006840F001002349CD
:101B6000086000BF2148006800F002000028F9D09A
:101B700000BF1E48406840F080001C4948600020BB
:101B8000009002E00098401C009000985028F9D383
:101B90001648406840F090001449486000200090CA
:101BA00002E00098401C009000985028F9D300BF34
:101BB0000E48406820F003000C4948600846006861
:101BC0000B490840094908604FF41F008860084627
:101BD000006820F48020086000204860C86233F06C
:101BE00035FCFEF775FF08BD88ED00E000100240EF
:101BF000FFFFF6FE70B501202FF074FA4FF47A71F2
:101C0000B0FBF1F4601EB0F1807F01D301201BE036
:101C1000601E4FF0E021486148170F21002807DAC5
:101C20000A07150E0A4A00F00F031B1FD55403E0E4
:101C30000A07130E074A135400BF00204FF0E0219B
:101C4000886107200861002008B100BFFEE770BD71
:101C500018ED00E000E400E010B50121074834F081
:101C600040FE012809D10121044834F037FE00214B
:101C7000024834F064FD2FF087F910BD00080040E1
:101C800010B50121124834F02CFE01281FD101218A
:101C90000F4834F023FE0F480088401C0D4908808F
:101CA000088800EBD0714910A0EB410109B9FEF79B
:101CB0007BFB084800884FF4C87190FBF1F201FBF0
:101CC0001200012803D1FEF751FF0349088010BD1F
:101CD000000C0040940100209001002010B5002469
:101CE00013E004EB44000A4911F8200058B1002029
:101CF00004EB4401064A02F8210004EB440102EB24
:101D0000810188688047601CC4B2032CE9D310BDF0
:101D10000000002000202BE000EB4001164A02EBFF
:101D20008101498811B300EB400102EB8101498830
:101D3000491E00EB4002104B03EB8202518000EB86
:101D400040011A4602EB8101498879B9012100EB73
:101D5000400203F8221000EB40011A4602EB810119
:101D6000898800EB400203EB82025180411CC8B21B
:101D70000328D1D37047000000000020014908600B
:101D800070470000A001002010B5FEF725FFFEF708
:101D900027FB10BD70B5FEF7DBFE04462046FEF7BC
:101DA000BDFB05462846FFF73DFD18480088401C4E
:101DB000164908800846008803280DDA1448008870
:101DC00000EE100AB8EE400AF2EE040A80EE201A85
:101DD000104880ED001A70BD0C4800880A2802DD0A
:101DE0000A200A490880094801880948FFF7B0FC21
:101DF00000EE100AB8EE400AF2EE040A80EE201A55
:101E0000044880ED001A00BFE5E700008E010020C5
:101E100048050020880100201FB5044640F20370E9
:101E20002FF0B6FA0D4834F08DFC684634F065FDAD
:101E30007720ADF80000601E02906946074834F034
:101E4000F9FC0121054834F045FD002211463220FD
:101E50002EF01AFE014834F0E8FC1FBD000C0040D3
:101E600070B50446032C00D370BD04EB44020F4B45
:101E700003EB8202916804EB440203EB8202506898
:101E800012F08DF90546C5F10100C5B204EB44021C
:101E9000064B03EB8202916804EB440203EB8202DF
:101EA00050682A4612F018F900BFDDE764010020EF
:101EB0001CB5FEF7E5FFFEF745FC0422694648F233
:101EC0004010FFF778FD38B100208DF80400694616
:101ED00004A000F015FA1CBD06A000F011FA00BF26
:101EE000F9E70000546F7563682049443A20257370
:101EF0000A000000546F75636820696E697420657C
:101F000072726F720A0000003EB50446FEF758FE7A
:101F1000394B0CCB801A61EB0301143871F10001CD
:101F200005D2364801682160406860603EBDFEF71A
:101F300047FE314A03C2012202A948F24E10FFF7C0
:101F40003AFD50B92EA000F0DBF9002020702B489C
:101F50002168016061684160E8E79DF8080000F0D1
:101F6000800050B92EA000F0CBF90020207023484B
:101F70002168016061684160D8E79DF8080000F0C1
:101F80000F0529462DA000F0BBF900200290012288
:101F900002A948F24E1000F081F90DB1052D07DDC0
:101FA0000020207015482168016061684160BDE72C
:101FB0000622694648F25010FFF7FDFC9DF800002C
:101FC0009DF8011040EA012060809DF802009DF814
:101FD000031040EA0121A1809DF804009DF805103E
:101FE00040EA0121E180012020700448216801605D
:101FF0006168416000BF99E7C8010020C00100206E
:10200000726561642047543931315F5354415455EE
:10201000535F524547206572726F720A00000000DC
:10202000497420686173206E6F74206265656E204C
:10203000746F75636865640A00000000746F7563EF
:1020400068206E756D73203D2025640A0000000035
:1020500010B50446032C00D310BD04EB4402064B1C
:1020600003EB8202916804EB440203EB82025068A6
:1020700012F02EF800BFEFE76401002010B504460F
:10208000032C00D310BD04EB4402064B03EB820289
:10209000916804EB440203EB8202506812F01AF8D4
:1020A00000BFEFE76401002010B50B4908680B4939
:1020B00035F04FF970B108490868084935F040F922
:1020C0000549086835F0BCF8C4B2204604490968DF
:1020D000884700BF10BD0000A401002005030500D3
:1020E000BC01002010B50D4908680D4935F031F9E3
:1020F00030B12EF051FF094908680A4935F020F93E
:1021000006490868084935F024F930B12EF04CFF33
:1021100002490868044935F013F910BDD4010020C4
:1021200005030500050303000603060010B5044679
:10213000104988882FF02CF90E49086835F08AF884
:102140000C490868214635F033F80A490868082127
:1021500035F025F907490868042135F016F90549D5
:10216000087D002211462EF08FFC0249086835F0E8
:10217000B9F810BDD401002000BFFEE710B500F093
:1021800005F84FF4E13000F017F810BD10B509491B
:10219000C8882FF0FDF80749CB680122886818210C
:1021A00011F09FFF03490B6901228868482111F053
:1021B00098FF10BDA401002010B50446134988887B
:1021C0002FF0E6F81149086835F044F80F4908681F
:1021D000214634F0EDFF0D490868082135F0DFF89D
:1021E0000A490868042135F0D0F80849086840F227
:1021F000053135F098F80549087D002211462EF08A
:1022000043FC0249086835F06DF810BDA4010020B8
:102210002DE9F04781468A46164616B90220BDE8E8
:10222000F087002534E0002400272BE01A4800EB5B
:102230000710408809EB0501884200D021E01648CC
:1022400000EB0714207800F0020008B90220E6E74E
:1022500016F815004FF47F4101EA00206900491C7F
:10226000715C40EA0108A088404502DCE0884045F6
:1022700001DA0220D3E7E06810B14046E168884700
:1022800000BF7F1C042FD1D30CB90120C7E76D1C00
:102290005545C8D30020C2E7280000202DE9F041B1
:1022A00004460E461746FFF70DF82820FEF788FF74
:1022B000FFF784F800B91FE0200AFEF781FFFFF75F
:1022C0007DF800B918E0E0B2FEF77AFFFFF776F884
:1022D00000B911E0002508E0705DFEF771FFFFF71F
:1022E0006DF800B908E0681CC5B2BD42F4DBFFF729
:1022F00021F80120BDE8F081FFF71CF80020F9E784
:102300000FB4054B10B503A9044A029802F08AFAEB
:1023100010BC5DF814FB0000E52B0108440400200C
:102320000EB507460E46144619491AA010F06EFC69
:102330001749384610F06AFC15491CA010F066FCDD
:102340001349304610F062FC11491AA010F05EFCEF
:1023500003AD0021681E054601700A21681E05466E
:1023600001700CE00A2094FBF0F100FB11403030CA
:10237000C1B2681E054601700A2094FBF0F4002CDF
:10238000F0DC0349284610F041FC02F080FF000019
:10239000400400202A2A2A20617373657274696FD1
:1023A0006E206661696C65643A2000002C206669C5
:1023B0006C6520002C206C696E65200002E008C866
:1023C000121F08C1002AFAD170477047002001E0AF
:1023D00001C1121F002AFBD1704770B504460025C9
:1023E00008E02168481C20600878303805EB85013A
:1023F00000EB41052168087800F004F80028F0D1CE
:10240000284670BD0146302903DB392901DC012053
:1024100070470020FCE7000010B54421074801F098
:1024200058FA00220A2106482CF09EFD0549086052
:1024300003F018FC00200449087010BDF0060020CD
:10244000455D0008600300205C0300202DE9F04F8B
:1024500087B007460C4615462946204600F066F927
:1024600020B94FF0FF3007B0BDE8F08F00222946B9
:10247000204600F0FDF808B10020F4E700262046D1
:1024800015F0D7FC401E00B20490204615F042FC27
:10249000401E00B2039068886188401A0FFA80FAE3
:1024A000BAF1000F16DD2088ADF814006088ADF891
:1024B0001600A088ADF818006088504400B2ADF84E
:1024C0001A003046711C4EB207EBC000059901603E
:1024D00006994160E8886188411A0398401A0FFA0A
:1024E00080FBBBF1000F1CDDB5F90600B4F9061046
:1024F000884216DA2088ADF81400E888ADF8160096
:10250000A088ADF81800E888584400B2ADF81A0069
:102510003046711C4EB207EBC00005990160069968
:102520004160B5F90200B4F90210884202DDB5F944
:10253000020001E0B4F902008046B5F90600B4F9E2
:102540000610884202DAB5F9060001E0B4F9060087
:1025500002900298A0EB08000FFA80F928882188E1
:10256000401A00B20190019800281BDDB9F1000F5C
:1025700018DD2088ADF81400ADF816802188019888
:10258000084400B2ADF8180008EB090000B2ADF83D
:102590001A003046711C4EB207EBC000059901606D
:1025A00006994160A8882188411A0498401A00B20F
:1025B00000900098002818DDA888ADF81400ADF848
:1025C0001680A9880098084400B2ADF8180008EBFE
:1025D000090000B2ADF81A003046711C4EB207EB8C
:1025E000C000059901600699416030463BE730B56F
:1025F0000346B1F90040B2F90050AC4202DDB1F936
:10260000004001E0B2F900401C80B1F90240B2F98B
:102610000250AC4202DDB1F9024001E0B2F90240E1
:102620005C80B1F90440B2F90450AC4202DAB1F96D
:10263000044001E0B2F904409C80B1F90640B2F9CF
:102640000650AC4202DAB1F9064001E0B2F90640A8
:10265000DC800120B3F90040B3F90450AC4205DC42
:10266000B3F90240B3F90650AC4200DD002030BDA2
:10267000F8B504460D4616460027B4F90000B5F932
:102680000010884212DBB4F90200B5F9021088424A
:102690000CDBB4F90400B5F90410884206DCB4F987
:1026A0000600B5F90610884200DC01270FB90020AA
:1026B000F8BD0EB90120FBE72088ADF80000608866
:1026C000ADF8020032466946284600F0A7F808B97E
:1026D0000020EDE7A088ADF800006088ADF80200AA
:1026E00032466946284600F099F808B90020DFE72D
:1026F0002088ADF80000E088ADF802003246694657
:10270000284600F08BF808B90020D1E7A088ADF882
:102710000000E088ADF8020032466946284600F025
:102720007DF808B90020C3E70120C1E70246B2F9ED
:102730000000B1F90430984213DCB2F90400B1F999
:10274000003098420DDBB2F90200B1F90630984230
:1027500007DCB2F90600B1F90230984201DB012032
:1027600070470020FCE7F8B504460D461646B4F95C
:102770000400B5F90010884211DBB4F90600B5F980
:10278000021088420BDBB4F90000B5F9041088424E
:1027900005DCB4F90200B5F90610884201DD01201C
:1027A000F8BD0EB90020FBE72088ADF80000608876
:1027B000ADF8020032466946284600F02FF808B10D
:1027C0000020EDE7A088ADF800006088ADF80200B9
:1027D00032466946284600F021F808B10020DFE7BC
:1027E0002088ADF80000E088ADF802003246694666
:1027F000284600F013F808B10020D1E7A088ADF812
:102800000000E088ADF8020032466946284600F034
:1028100005F808B10020C3E70120C1E72DE9FC5FFE
:1028200005460E4614464FF0000AB6F90000B5F909
:102830000010884213DBB6F90000B5F90410884295
:102840000DDCB6F90200B5F90210884207DBB6F9D3
:102850000200B5F90610884201DC4FF0010ABAF116
:10286000000F02D10020BDE8FC9F002C01DC0120FC
:10287000F9E7284615F0DDFA834600EBDB704710D8
:10288000284615F047FA834600EBDB704FEA6008F4
:10289000474501DA384600E0404681464C4500DDB8
:1028A0004C462888ADF800002888204400B2ADF8D6
:1028B00004006888ADF802006888204400B2ADF8D2
:1028C0000600002231466846FFF7A8FF80B1BDF838
:1028D0000400204400B2ADF80400BDF80600204416
:1028E00000B2ADF806003146684628F05BFEBAE754
:1028F000E888001B00B2ADF80200E888ADF80600D9
:10290000002231466846FFF789FF80B1BDF8040018
:10291000204400B2ADF80400BDF80200001B00B274
:10292000ADF802003146684628F03CFE9BE7A888D7
:10293000001B00B2ADF80000A888ADF8040000222A
:1029400031466846FFF76AFF80B1BDF80000001B02
:1029500000B2ADF80000BDF80200001B00B2ADF8F7
:1029600002003146684628F01DFE7CE76888ADF815
:1029700002006888204400B2ADF80600002231460B
:102980006846FFF74BFF80B1BDF80000001B00B2A6
:10299000ADF80000BDF80600204400B2ADF8060016
:1029A0003146684628F0FEFD5DE701205BE710B583
:1029B000B1F90030B2F90040A34202DAB1F90030B7
:1029C00001E0B2F900300380B1F90230B2F90240FF
:1029D000A34202DAB1F9023001E0B2F902304380D9
:1029E000B1F90430B2F90440A34202DDB1F9043078
:1029F00001E0B2F904308380B1F90630B2F9064043
:102A0000A34202DDB1F9063001E0B2F90630C3801D
:102A100010BD00002DE9F0478AB0804600BF00BF1E
:102A20002CF043FA814600200990B8F1000F04D041
:102A3000D149D8F80C00086003E018F065FACE49D7
:102A40000860CD490968086928F098FBCA48006801
:102A5000406920B1C8490968486928F08FFBC64918
:102A60000968C86928F08AFBC3490968086A28F020
:102A700085FBC1480068006990B90020BE4909681B
:102A8000A1F85001BDA0C44B4FF49F72C3A10090A8
:102A9000022000F0F5FF00BF00BF0AB0BDE8F087DC
:102AA00028F052FE2FF0FEFB2FF00CF8B248006821
:102AB000B0F85001002856D0AF4800680068007C8C
:102AC00000F0010040B3AC4800680068C06840688E
:102AD00010B3002419E0A848006800F59870005D64
:102AE00000B110E0A448006800F5AC7000F053FF9E
:102AF0000546A1480068303000EBC4000168296039
:102B00004068686000BF601C84B29B480068B0F8F1
:102B10005001A042DFDC00BF4FF48071964800688E
:102B2000303022F0BCF920219348006800F59870FD
:102B300022F0B5F9002090490968A1F850014846F3
:102B40002CF0A6F909908C4800680068406A50B1E2
:102B50008949096808688849096809684B6A96497B
:102B60000A680999984721F0F5FD00F07DF900F019
:102B700045F992484669002E3FD121F0DCFA04461F
:102B800020F02AF8064600227F21304628F080F9FE
:102B900017F06EF9002201460890304628F05CF9E3
:102BA00017F0CBFC002201460890304628F02CFAA2
:102BB00000220321304628F00FFA0022032130467C
:102BC00028F0E6F900220321304628F0EDF9002232
:102BD0000321304628F0F4F900220321304628F082
:102BE00007FA77A1304621F05BF900231A46062147
:102BF000304622F0BBFE71484661704908682CF0EF
:102C000047F9B0F5967F10D26B48006841F28831E1
:102C100088424BD969484068099908446749486027
:102C200008468068401C886040E02CF03EF963490B
:102C3000086051480068406840B14F4800684068EB
:102C400000684FF47A71B1FBF0F400E064245B4853
:102C5000406810B90120594948605848806808B94F
:102C6000254608E0554880684FF47A714843534937
:102C70004968B0FBF1F50020504948608860A542E2
:102C800000D925464D48006928444C49086108464A
:102C9000C068401CC8602CF017FAC0F1640A5346A3
:102CA0002A4648A1304621F09DF900BF49484768AF
:102CB000D7BB21F040FA04461FF08EFF07460022E2
:102CC0007F21384628F0E4F817F0D2F800220146B8
:102CD0000890384628F0C0F817F02FFC0022014673
:102CE0000890384628F090F900220321384628F051
:102CF00073F900220321384628F04AF90022032103
:102D0000384628F051F900220321384628F058F9B6
:102D10002BA1384621F0C4F800231A460421384676
:102D200022F024FE2B4847602A4908682CF0B0F8AE
:102D3000B0F5967F1CD92CF0B8F82649086002A897
:102D400021F092FE04990298451AAC0AA5EB842062
:102D50006621B0FBF1FA9DF821009DF82010534642
:102D60002246CDE900101CA1384621F03BF900BFF6
:102D700000BF00BF00BF90E61802002074686572B3
:102D800065206973206E6F206163746976652073B6
:102D9000637265656E000000268203084D69645FFA
:102DA0006C76676C5C7372635C636F72655C6C7687
:102DB0005F726566722E6300140200205C050020BD
:102DC0003F0000002575204650530A257525252013
:102DD000435055001C02002025752E2575206B429E
:102DE000207573656420282564202525290A25641B
:102DF000252520667261672E0000000010B50024B2
:102E000016E0C4EBC4000C4951F8200030B1C4EB0B
:102E1000C401094A52F8210021F0F2FDC4EBC401BB
:102E2000054A02EB81001C2122F039F8601CC4B273
:102E3000042CE6DB10BD0000CC0700200146094A47
:102E400010680BE042688A4202D002688A4204D1CC
:102E5000027E22F00102521C027640690028F1D164
:102E600070470000EC0100207047000010B50421FD
:102E7000014800F02EFD10BDE406002010B5202111
:102E8000014800F026FD10BDFC0600202DE9FF479B
:102E900004460D4616461F46DDE90C896FB9B8F5A4
:102EA000807F0AD1002020806080681E00B2A08050
:102EB000701E00B2E080BDE8FF8700200090019006
:102EC00002900390ADF80450ADF80A60ADF80C50D4
:102ED000ADF80E604B4642463946684628F098FAEF
:102EE0004B464246394601A828F092FA4B464246E4
:102EF000394602A828F08CFA4B464246394603A8C8
:102F000028F086FABDF90000BDF90410884202DA03
:102F1000BDF9000001E0BDF90400BDF90810BDF9DC
:102F20000C20914202DABDF9081001E0BDF90C1045
:102F300088420BDABDF90000BDF90410884202DABC
:102F4000BDF900000DE0BDF904000AE0BDF908007C
:102F5000BDF90C10884202DABDF9080001E0BDF9A4
:102F60000C00801E00B22080BDF90000BDF90410E5
:102F7000884202DDBDF9000001E0BDF90400BDF9A1
:102F80000810BDF90C20914202DDBDF9081001E0E6
:102F9000BDF90C1088420BDDBDF90000BDF904102D
:102FA000884202DDBDF900000DE0BDF904000AE031
:102FB000BDF90800BDF90C10884202DDBDF908001A
:102FC00001E0BDF90C00801C00B2A080BDF9021028
:102FD000BDF90600814202DABDF9020001E0BDF947
:102FE0000600BDF90A20BDF90E108A4202DABDF9C9
:102FF0000A1001E0BDF90E1088420BDABDF902108B
:10300000BDF90600814202DABDF902000DE0BDF90A
:1030100006000AE0BDF90A10BDF90E00814202DA8D
:10302000BDF90A0001E0BDF90E00801E00B260800B
:10303000BDF90210BDF90600814202DDBDF90200B2
:1030400001E0BDF90600BDF90A20BDF90E108A4263
:1030500002DDBDF90A1001E0BDF90E1088420BDD5A
:10306000BDF90210BDF90600814202DDBDF9020082
:103070000DE0BDF906000AE0BDF90A10BDF90E0029
:10308000814202DDBDF90A0001E0BDF90E00801C9D
:1030900000B2E08000BF0EE72DE9F74181B00546A0
:1030A00016460024164C2BF000FF80463346294676
:1030B0002046029A1EF08CFC074697B911A01C4BC3
:1030C0007D221CA10090022000F0DAFC2C21204679
:1030D00021F0E5FE4FF00040A062002004B0BDE802
:1030E000F0810020A062E06918B940462BF0D0FEC4
:1030F000E061E06908B90120E0612046EEE70000E8
:1031000020070020496D6167652064726177206344
:10311000616E6E6F74206F70656E207468652069D3
:103120006D616765207265736F757263650000007D
:103130004D8503084D69645F6C76676C5C737263E0
:103140005C647261775C6C765F696D675F63616315
:1031500068652E63000000003EB51421194800F098
:10316000B8FB1EF0A9FB044600BF002C0DD116A031
:1031700019A11DA2244BCDE900210290402223A1D8
:10318000032000F07DFC00BFFEE700BF44B928A08B
:103190001D4B42221DA10090022000F071FC3EBD9B
:1031A0002C4920461EF006FD2B4920461EF004FD4A
:1031B0002A4920461EF002FD294920461EF0F8FC4F
:1031C00000BFECE7080700204F7574206F66206D84
:1031D000656D6F72790000006465636F64657220CD
:1031E000213D204E554C4C004173736572746564EB
:1031F0002061742065787072657373696F6E3A2010
:103200002573202825732900768503084D69645F9E
:103210006C76676C5C7372635C647261775C6C760D
:103220005F696D675F6465636F6465722E6300003C
:103230006C765F696D675F6465636F6465725F6913
:103240006E69743A206F7574206F66206D656D6FBE
:1032500072790000090D0208F912020851170208DC
:10326000D10C020838B504460D461021284621F03D
:1032700016FE20680078012804D1A08A2880E08A00
:1032800068800CE020680078022802D1E06868605D
:1032900005E020680078042801D10A2068602068D1
:1032A000406830B100BF00BF20682946426890479F
:1032B00007E004A00B4BBD220BA10090022000F000
:1032C000DFFB38BD696E6465765F726561645F635C
:1032D00062206973206E6F7420726567697374650C
:1032E0007265640036C603084D69645F6C76676C6E
:1032F0005C7372635C68616C5C6C765F68616C5F68
:10330000696E6465762E63002DE9FE4F0446A08A3F
:1033100018B9E08A08B9BDE8FE8FE66A96B920467A
:103320000EF0D0FD064606B9F5E7204612F026FA63
:103330000022092130461CF043FA6078C0F34000B7
:1033400000B1E8E700274FF48078B14616E000218D
:10335000484625F041FB384407B20021484625F095
:1033600077FB8246C0170AEB1060001200FB08F0E2
:103370000FFA80F8484623F0C5FE8146B9F1000FE8
:10338000E5D117B9B8F5807F11D0784207B24FF474
:10339000803090FBF8F00FFA80F8002000906B4628
:1033A0004246394604F1140028F032F800BF0020EC
:1033B0000290019094F8400000F00F00032812D111
:1033C000304623F0BDFF8246304623F041FF83465E
:1033D00003200090B4F9141053465A4630460DF0BD
:1033E00065FF029012E0304624F02CF88246304609
:1033F00023F0A0FE83460C200090B4F916105B4623
:10340000524630460DF052FF019000BF304623F087
:10341000F1FE054605F0010028B9BDF908000028B5
:1034200001DD0020029005F0020028B9BDF9080076
:10343000002801DA0020029005F0040028B9BDF947
:103440000400002801DD0020019005F0080028B9E3
:10345000BDF90400002801DA0020019001AA02A9A8
:1034600020462FF04BFCBDF90420BDF90810304672
:1034700000F09FFB6078C0F3400000B14BE7208B69
:10348000BDF80810084401B22183608BBDF8041018
:10349000084401B2618300BF3DE72DE9F84F0446BF
:1034A000D4F82CB0BBF1000F01D1BDE8F88F94F82F
:1034B000400000F00F0000B9F7E71EF015FF0646C8
:1034C0003068477E4021584625F07CFC10B9002129
:1034D000E183A183584623F0A1FF8046584623F09C
:1034E000A7FF054694F8400000F00F000C2843D1D8
:1034F0000021A1831DBBB4F91E00C7F1640148433C
:10350000642190FBF1F001B2E183584623F012FEF2
:103510008146584623F096FF82460C200090B4F96D
:103520001E104B46524658460DF0C0FEE083B4F9DB
:103530001E2000231946584626F0F0FF69E0204679
:103540002FF033FC00900021E1836A4620462FF0E3
:10355000D5FBBDF9003041F6FF72514258460EF0DE
:10356000A3FE8146BDF80000484402B201230021B9
:10357000584626F0D3FF4CE094F8400000F00F00CE
:10358000032846D10021E183B8F1000F23D1B4F91B
:103590001C00C7F164014843642190FBF1F001B2C3
:1035A000A183584623F054FE8146584623F0C8FEB6
:1035B000824603200090B4F91C1053464A465846F0
:1035C0000DF074FEA083B4F91C1000231A4658466F
:1035D00026F0A4FF1DE020462FF0CCFB0090002138
:1035E000A1830022694620462FF088FBBDF90030F8
:1035F00041F6FF72514258460EF0BCFD8146BDF8BF
:103600000000484401B201230022584626F086FFFC
:1036100000BFA08B002860D1E08B00285DD11DBBCE
:10362000584623F00FFF8146584623F083FD82461B
:10363000B9F1000F02DCBAF1000F14DDB9F1000F8F
:1036400006DA01234A460021584626F067FF0AE0C1
:10365000BAF1000F07DA0123CAF1000002B200211B
:10366000584626F05BFF00BFB8F1000F23D1584643
:1036700023F0EEFD8146584623F062FE8246B9F102
:10368000000F02DCBAF1000F14DDB9F1000F06DA09
:10369000012300224946584626F040FF0AE0BAF1CD
:1036A000000F07DA01230022CAF1000001B25846D8
:1036B00026F034FF00BF32460A2158461CF080F83D
:1036C0006078C0F3400000B1EFE694F8400020F0CD
:1036D0000F0184F840100021E16200BFE5E6000020
:1036E000F0B585B004460F4614B917F00DFC04463A
:1036F0000CB905B0F0BD204617F06AFD00B9F8E737
:1037000094F82800C0F3800040B13DA0474BD5227B
:1037100047A10090032000F0B3F9EAE71FB90020A9
:10372000A4F85001E5E70020ADF80C00ADF80E005C
:10373000204617F001FC401E00B2ADF810002046F4
:1037400017F02AFD401E00B2ADF8120003AA394658
:1037500001A8FEF74CFF064606B9CAE72068007CC0
:10376000C0F3400060B103982063049860630120B7
:10377000A4F85001606810B160682BF095FDB8E7BF
:103780002068806918B1206801A9826990470025E6
:103790000BE004F1300000EBC501002201A8FEF7A8
:1037A00067FF00B1A5E7681C85B2B4F85001A842D4
:1037B000EFDCB4F85001202809DAB4F8502104F104
:1037C000300101EBC20001A914F00BFA0BE000205C
:1037D000A4F85001B4F8502104F1300101EBC2000B
:1037E00003A914F0FEF9B4F85001401CA4F85001EC
:1037F000606810B160682BF057FD00BF79E70000EA
:103800006465746563746564206D6F646966796965
:103810006E672064697274792061726561732069D2
:103820006E2072656E6465720000000019820308E4
:103830004D69645F6C76676C5C7372635C636F7216
:10384000655C6C765F726566722E630070B50546C6
:10385000284600F013F8044600260CE021462846CE
:1038600000F024F806462146284600F0C0F820461D
:1038700021F0C6F83446002CF0D170BD014609B9DC
:10388000002070474868FCE770B5064600243046C3
:10389000FFF7F4FF054605E0641C2946304600F0BA
:1038A00005F80546002DF7D1204670BD02460B46AF
:1038B0001068001D03441868704702460B461068E4
:1038C000034418687047014609B9002070478868AA
:1038D000FCE7002242608260CA1C22F00301016002
:1038E000704770B50446216801F1080020F000FF20
:1038F0000546A5B10022294620462DF0B7F82946F5
:10390000204662682DF0A4F8606820B12A4620465F
:1039100061682DF0ABF86560A06800B9A560284625
:1039200070BD2DE9F04106460D4606B115B90020DF
:10393000BDE8F0813046FFF7A1FFA84206D130462E
:10394000FFF7CFFF044624BB0020F1E7316801F107
:10395000080020F0CDFE04460CB90020E8E7294617
:103960003046FFF7AAFF07462246394630462DF07B
:103970006FF83A46214630462DF078F8224629461F
:1039800030462DF073F82A46214630462DF060F877
:1039900000BF2046CCE770B50446216801F108005D
:1039A00020F0A6FE0546A5B10022294620462DF0AE
:1039B0004FF829462046A2682DF058F8A06820B19B
:1039C0002A462046A1682DF043F8A560606800B93A
:1039D0006560284670BD014609B9012070474868F6
:1039E00018B9886808B90120F8E70020F6E72DE942
:1039F000F04104460D460CB9BDE8F0812046FFF7C2
:103A00003DFFA8420FD129462046FFF74FFF6060D7
:103A1000606810B90020A0602FE000222046616895
:103A20002DF024F829E02046FFF74DFFA8420FD1E2
:103A300029462046FFF741FFA060A06810B900208A
:103A400060601AE000222046A1682DF001F814E021
:103A500029462046FFF731FF064629462046FFF754
:103A600025FF07463A46314620462CF0F1FF324604
:103A7000394620462CF0FAFF00BF00BFBCE700002B
:103A80002DE9F04FADF50B7D07460E469046994661
:103A9000062F03DB0DF50B7DBDE8F08F022F43DB16
:103AA00095A88A903046FCF704FC044608E0305D97
:103AB0002F2802D0305D5C2801D1641C02E0641E16
:103AC000002CF4D100BF2BF0F0F905461748006830
:103AD00028B3949808908AA809904FF47A70B5FB9F
:103AE000F0F100FB115AB5FBF0FB301908A9CDE944
:103AF0000391CDE905080E480068281ACDE900BAFF
:103B000002900C4850F827300BA24FF400710AA81D
:103B100028F030FD0AA805490968884700BF044815
:103B2000056000208A9000BF00BFB3E78803002033
:103B30008C030020900300205B25735D0928256419
:103B40002E253033642C202B256429092025733A37
:103B500020257056200928696E202573206C696E17
:103B60006520232564290A0010B504462068806872
:103B700018B120682146826890472068006828B103
:103B80002068006820602046FFF7EEFF10BD014668
:103B9000886818B18868B0F9160070470020FCE703
:103BA0000146886818B18868807E800970470020C7
:103BB000FCE72DE9F04104460D4616461DB916B93D
:103BC0000120BDE8F081204622F01CF9A068008A9F
:103BD000284400B2A1680882A068408A304401B23B
:103BE000A0684182012332462946204625F086FD01
:103BF00000220B2120461BF0E3FD0746012F01D0D8
:103C00003846DEE7204625F0A1FC0120D9E7F7B5CC
:103C100082B004460E4614B9049805B0F0BD00BF4A
:103C200062223146204624F05DFD0190019D00BFD7
:103C3000BDB12868A8B100BF63223146204624F0F8
:103C400051FD01900198C0B207464FB13A462B682A
:103C50002846049998470190BDF80400ADF810007B
:103C600000BF0498D9E700002DE9F04F97B0044653
:103C70008B4691469A46209D608C20F00400001DE2
:103C80006084A4F820902A895946204624F02AFD11
:103C90001690A4F820A02A895946204624F022FD37
:103CA0001590608C20F004006084DDE915108842D6
:103CB0000CD1DDE91510884208D1BDF85800BDF8D7
:103CC0005410884202D117B0BDE8F08FA4F82090BC
:103CD0002A895946204624F005FD1690A4F820A014
:103CE0005946204610F092F914902989149A1068C8
:103CF000169A29F027FC28890B2833D147F6FF7143
:103D00001698884202D0159888422BD1204624F07C
:103D1000FCFF029000EBD0704710204623F0A2F980
:103D2000029000EBD0704FEA600847F6FF711698DA
:103D3000884208D1781C08F10101884200DA01E0CC
:103D400008F10100169047F6FF711598884208D1D6
:103D5000781C08F10101884200DA01E008F1010055
:103D6000159000BF2948FFF7BCFD064600BF76B995
:103D700027A02BA12DA2354BCDE9002102904FF4B5
:103D8000B27233A10320FFF77BFE00BFFEE700BF46
:103D900006B998E71698F060159830613460288964
:103DA000B080C6F808B003A812F09CFF314603A803
:103DB00013F04AF82F4903A813F017F82E4805907E
:103DC00000BF2E4903A813F01EF8FF22002103A80C
:103DD00013F02AF8298803A813F01CF8698803A8AF
:103DE00012F0FEFFE8680A9000BF03A8002190F8D7
:103DF000422061F3000280F8422000BF2869099048
:103E000003A813F039F800BF5DE700001407002095
:103E10004F7574206F66206D656D6F7279000000BC
:103E2000747220213D204E554C4C00004173736547
:103E3000727465642061742065787072657373694B
:103E40006F6E3A202573202825732900BC81030852
:103E50004D69645F6C76676C5C7372635C636F72F0
:103E6000655C6C765F6F626A5F7374796C652E63F4
:103E700000000000B1690308596C0308896B03084E
:103E800010B514210148FFF724FD10BD14070020D0
:103E90002DE9FE4F04460F4690464FF000090025DD
:103EA0004CE1E06800EBC5004068C0F3406000B141
:103EB00043E1E16801EBC501496821F07F4027F04B
:103EC00023F9064626EA070008B9012000E0002091
:103ED000029026EA080008B9012000E000200190C5
:103EE000DDE90101814270D0E06850F835A04FF063
:103EF000000B6A461021504628F000FE10B14FF02A
:103F0000010B98E06A461121504628F0F7FD10B1E8
:103F10004FF0010B8FE06A461221504628F0EEFD6B
:103F200010B14FF0010B86E06A461321504628F08D
:103F3000E5FD10B14FF0010B7DE06A4615215046BA
:103F400028F0DCFD10B14FF0010B74E06A4614213B
:103F5000504628F0D3FD10B14FF0010B6BE06A46DC
:103F60000A21504628F0CAFD10B14FF0010B62E063
:103F70006A466B21504628F0C1FD10B14FF0010B8D
:103F800059E06A466C21504628F0B8FD10B14FF058
:103F9000010B50E06A460121504628F0AFFD10B1F8
:103FA0004FF0010B47E06A460421504628F0A6FD79
:103FB00010B14FF0010B3EE06A460221504628F056
:103FC0009DFD18B14FF0010B35E0B5E06A460321C5
:103FD000504628F093FD10B14FF0010B2BE06A46DC
:103FE0000521504628F08AFD10B14FF0010B22E068
:103FF0006A460621504628F081FD10B14FF0010BB2
:1040000019E06A463221504628F078FD10B14FF091
:10401000010B10E06A466E21504628F06FFD10B18A
:104020004FF0010B07E06A466D21504628F066FD0F
:1040300008B14FF0010BBBF1000F02D00320BDE827
:10404000FE8F6A466921504628F058FD10B14FF0A6
:10405000020970E06A466A21504628F04FFD10B10F
:104060004FF0020967E06A466E21504628F046FD8F
:1040700010B14FF002095EE06A466D21504628F00B
:104080003DFD10B14FF0020955E06A463721504618
:1040900028F034FD10B14FF002094CE06A46382197
:1040A000504628F02BFD10B14FF0020943E06A465C
:1040B0003521504628F022FD10B14FF002093AE0B8
:1040C0006A464021504628F019FD10B14FF0020910
:1040D00031E06A464521504628F010FD10B14FF0FE
:1040E000020928E06A464121504628F007FD10B138
:1040F0004FF002091FE06A464221504628F0FEFCBC
:1041000010B14FF0020916E06A464321504628F0EC
:10411000F5FC10B14FF002090DE06A464921504606
:1041200028F0ECFC10B14FF0020904E0B9F1000FE7
:1041300001D14FF0010900BF00BF6D1C608CC0F3BE
:10414000C500A8423FF6ADAE484678E70148006892
:10415000704700001802002010B503482CF0B0FD95
:1041600002482CF099FA10BD5C0500201C020020CA
:104170000146C1F30412072A00DD0722D0B27047BE
:1041800001464FF6FF70814201D11F20704709B9E7
:104190000020FBE7712902DA0948405CF6E7A1F14B
:1041A000710081B20748006838B107480068814251
:1041B00003D204480068405CE8E70020E6E700001E
:1041C0002CC9030884030020B403002010B5182173
:1041D0000348FFF77EFB01202AF03EFF10BD0000E0
:1041E000C00600202DE9F04105460F4616460DB9E0
:1041F000BDE8F0812846FCF75CF880463946284641
:104200000A4A126890470746E8193146074A126879
:10421000904706463C4603E0A019285C2855641CDC
:10422000A8EB0600A042F7D200BFE1E7E4030020BC
:104230002DE9F04106460C4617461D4629463046F4
:10424000084A126890472060206830B129688819B0
:104250000021044A1268904700E000203860BDE861
:10426000F0810000DC0300202DE9F04F87B0044608
:104270000F4692469846DDE910560DB10020288081
:104280001CB9002007B0BDE8F08F207808B90020E5
:10429000F8E70FB90020F5E74FF0000906F002003B
:1042A00010B906F0040098B1002000E0401C215C29
:1042B0000A2905D0215C0D2902D0215C0029F5D105
:1042C000215C01B1401C15B14FF0FF312980D9E7C5
:1042D00006F0020008B141F6FF7800200690059034
:1042E00038E000200490059808B9012000E0002083
:1042F00006A904AACDE90062CDE90210059960186B
:104300004346524639462BF0ADFA83460498A8EB53
:1043100000000FFA80F8049848440FFA80F9BBF1C6
:10432000000F00D11CE005985844059020780A2819
:1043300002D020780D2800D112E00598205C0A28D0
:1043400003D00598205C0D2803D10598401C0590EA
:1043500006E000BF0598205C10B1B8F1000FC0DC8A
:1043600000BF059870B905A92046094A1268904710
:10437000834635B10022594638461BF075FC0FFACA
:1043800080F900BF0DB1A5F8009005987AE700000C
:10439000DC0300202DE9F04706468846174606B1A3
:1043A0000FB9BDE8F0873046FBF783FF81463846FA
:1043B000FBF77FFF044604B9F3E704EB090A414623
:1043C00030460B4A126890478046554603E0281B4A
:1043D000305C70556D1E08EB0400A842F7D906EB5F
:1043E00008002246394620F014FD00BFD9E700003E
:1043F000E4030020024600200FA31B788B4211D15A
:1044000013781BB90123137001200BE01378012BE3
:1044100002D10023137005E01378022B02D1002390
:10442000137001201378012B04D1202901D102231C
:1044300013700120704700002300000073B584B0A2
:10444000064605980390324600210846039B2BF050
:104450005FFD0546002003900024681C20F048F909
:10446000044600BF74B90FA012A116A21D4BCDE9DE
:104470000021029040F2E1121BA10320FFF700FB94
:1044800000BFFEE700BF14B9002006B070BD0020D9
:1044900060553246691C2046059B2BF039FD2046AD
:1044A000F3E700004F7574206F66206D656D6F72C5
:1044B000790000007465787420213D204E554C4CE5
:1044C000000000004173736572746564206174209C
:1044D00065787072657373696F6E3A202573202852
:1044E00025732900A9CB03084D69645F6C76676C5E
:1044F0005C7372635C6D6973635C6C765F74787413
:104500002E6300002DE9F04781460E4614461F46F3
:10451000DDF820A035461BE0600800FB0755294662
:104520004846D047B0F1000809DD04F0010080F0F2
:104530000100C0EB5404E8190546064608E0B8F14E
:10454000000F02DA6408354602E02846BDE8F0872D
:10455000002CE1D10020F9E72DE9FF4F85B083461B
:10456000DDE9158ADDE91349DDE91775129E05F0CD
:104570000200F8B94FB105F0010030B1B9F1000FF8
:1045800002D105F00C0000B17F1E03E0302220466E
:10459000641C3254544501D2202CF7D303E030225E
:1045A0002046641C325405F0010018B1BC4201D20F
:1045B000202CF4D305F01000B0B305F4806050B99E
:1045C0004CB1544501D0BC4205D1641E1CB1B8F1B8
:1045D000100F00D1641EB8F1100F09D105F02000B2
:1045E00030B9202C04D278222046641C325415E0C5
:1045F000B8F1100F09D105F0200030B1202C04D201
:1046000058222046641C325408E0B8F1020F05D14C
:10461000202C03D262222046641C3254202C03D268
:1046200030222046641C3254202C16D2B9F1000FDF
:1046300004D02D222046641C32540EE005F0040004
:1046400020B12B222046641C325406E005F00800FD
:1046500018B120222046641C3254CDE90275CDE900
:104660000064584606A90EC900F0A2F809B0BDE8DA
:10467000F08F2DE9FF4F8FB08046DDE91FABDDE9FC
:104680001D96219D1C9C00270CB925F0100505F4F2
:10469000806000B1E4B100BFB4FBF6F106FB11414C
:1046A000C8B20A2802DA00F1300107E005F0200163
:1046B00009B1412100E0612101440A39CBB23946F8
:1046C0007F1C07AA5354B4FBF6F40CB1202FE3D39C
:1046D00007A8CDE904AB8DE8810203960695404614
:1046E00010A90EC9FFF738FF13B0BDE8F08F2DE910
:1046F000FF4F8FB0DDE9217BDDF89080209EDDE962
:104700001C454FF00009002184EA0100694008437C
:1047100001D128F0100808F4806028B1002184EA53
:104720000100694008432DD000BF32463B46204679
:104730002946FBF71BFD02F0FF0ABAF10A0F02DA65
:104740000AF1300007E008F0200008B1412000E045
:10475000612050440A38C2B2484609F1010907A94C
:104760000A5432463B4620462946FBF7FFFC0446E6
:104770000D46002184EA01006940084302D0B9F1E6
:10478000200FD2D32398CDE9036BCDE9050807A903
:104790001E98CDE9001902900FA80FC8FFF7DCFEA4
:1047A00013B0BDE8F08F9A4200D28854704770472A
:1047B0002DE9FF5F05461446DDE90EA6DDE9108709
:1047C000A34607F0020078B907F0010060B9B146CE
:1047D00007E02246641C2020039B0199A84709F1A9
:1047E0000109C145F5D300BF08E02246641C711ED3
:1047F0000E461AF80100039B0199A847002EF4D138
:1048000007F0020050B105E02246641C2020039B03
:104810000199A847A4EB0B004045F5D3204604B00E
:10482000BDE8F09F2DE9FF4F8DB00F4605460026ED
:1048300006E025280BD0DDE90F1290476D1C761C91
:1048400028780028F5D111B03046BDE8F08F00245B
:10485000A246A1460122E94900E0044315F8013FC0
:10486000203B02FA03F00842F7D128782A2810D01A
:104870006FF02F022878A0F13001092914D80AEB33
:104880008A0102EB410144F0020400EB010A6D1CB5
:10489000F0E701CF5FEA000A03D544F40054CAF1FF
:1048A000000A44F002046D1C28782E2817D115F850
:1048B000010F44F004042A280ED06FF02F0228784C
:1048C000A0F1300109290AD809EB890102EB410165
:1048D00000EB01096D1CF2E757F8049B6D1C28786A
:1048E0006C280FD006DC4C2817D068280DD06A2819
:1048F00014D104E0742810D07A280FD10DE044F4CC
:1049000000140AE044F4801401E044F4401469788F
:10491000814202D104F580146D1C6D1C28786E282C
:104920001ED00CDC632830D004DC00288BD0582843
:1049300011D19FE0642867D069280CD164E0732806
:104940002DD004DC6F2872D0702804D194E0752833
:104950006ED078286DD0DDE90F129047761C4BE1C0
:10496000C4F30250022806D0032809D0042801CF3E
:1049700009D0066040E101CFF117C0E900613BE1D9
:1049800001CF068038E1067036E117F8040B8DF888
:10499000000000208DF80100EB46012003E057F8ED
:1049A00004BB4FF0FF3061074FF0000102D40DE06F
:1049B00008F10101884649450FDA8045F8DB1BF80C
:1049C00008100029F4D108E008F10101884681426D
:1049D000FADB1BF808100029F6D1DDE90F23AAEB5A
:1049E00008008146214600F031F9304400EB08060A
:1049F00004E0DDE90F121BF8010B9047B8F1010844
:104A0000F7D221464846F2E00A21C4F302524FF0A1
:104A1000000B0891022A04D001CFC117032A09D044
:104A20000AE0FF1D27F00707F7E8020108E02CE085
:104A30001EE01FE000B2C117042A01D140B2C11725
:104A4000021E71F1000206DA0023D0EB030063EBD3
:104A500001012D2202E0220504D52B228DF824200D
:104A6000012203E0E20701D02022F7E7904653E05D
:104A70000A210BE0102109E010214FF0000B44F057
:104A800004044FF00809089103E008214FF0000BDF
:104A90000891C4F30252022A04D001CF0021032A54
:104AA00006D006E0FF1D27F00707F7E8020103E044
:104AB00080B2042A00D1C0B24FF0000822072BD5E3
:104AC0002A78702A07D0DDF820C08CF0100C5CEA40
:104AD0000B0C05D00EE040228DF82420012208E0C6
:104AE00050EA010306D030238DF824308DF82520BC
:104AF00002229046089B83F0080353EA0B030BD174
:104B000050EA010201D1620706D530228DF8242037
:104B10004FF00108A9F101092A78582A04D038A2D7
:104B20000B9208AA0A920BE03AA2F9E75B46089AB0
:104B3000FBF71CFB0B9B9B5C0A9A521E0A9213709C
:104B400050EA0102F2D10A98ADEB000000F1200B0F
:104B5000600702D524F4803401E04FF00109D94503
:104B600002DDA9EB0B0000E0002000EB0B0141444B
:104B70000890AAEB010AE00306D4DDE90F232146E1
:104B8000504600F063F806444FF0000908E009A918
:104B900011F80900DDE90F12904709F10109761CAF
:104BA000C145F4DBE0030CD5DDE90F232146504677
:104BB00000F04CF8064404E0DDE90F123020904785
:104BC000761C0899481E08900029F5DC08E00A9830
:104BD0000A990078491C0A91DDE90F129047761C6A
:104BE000BBF10001ABF1010BF1DC21465046DDE9E0
:104BF0000F2300F019F806446D1C21E60928010076
:104C00003031323334353637383961626364656642
:104C10000000000030313233343536373839414204
:104C200043444546000000002DE9F04104460025BC
:104C30001E461746880404D405E039462020B047B4
:104C40006D1C641EF9D52846BDE8F0812DE9F041C0
:104C5000044600251E469046C80301D5302700E0D3
:104C60002027880404D505E041463846B0476D1C2E
:104C7000641EF9D52846BDE8F08100002DE9FF4FFC
:104C80008BB0074600250C9800B9FA4FEAE20E985F
:104C9000007825280AD02A466D1C0E990878DDE98F
:104CA0000C13B8470E98401C0E90DBE20E98401C87
:104CB0000E90002400BF0E9800782B2819D004DC39
:104CC00020281ED023282CD123E02D2809D03028DD
:104CD00027D144F001040E98401C0E9001200A9048
:104CE00022E044F002040E98401C0E9001200A902D
:104CF0001AE044F004040E98401C0E9001200A9023
:104D000012E044F008040E98401C0E9001200A9016
:104D10000AE044F010040E98401C0E9001200A9006
:104D200002E000200A9000BF00BF0A980028C2D10C
:104D300080460E990878FDF765FB20B10EA8FDF7B7
:104D40004CFB804612E00E9800782A280ED1189964
:104D500001C91891002804DA44F00204C0F10008E7
:104D600000E080460E99491C0E9100BF4FF00009EB
:104D70000E9800782E281FD144F480640E98401CB1
:104D80000E900E990878FDF73DFB20B10EA8FDF7B7
:104D900024FB814610E00E9800782A280CD118993F
:104DA00001C91891002801DD014600E00021894673
:104DB0000E99491C0E9100BF0E9800786C280AD0FD
:104DC00004DC682816D06A2835D128E0742820D061
:104DD0007A2830D129E044F480740E98401C0E905B
:104DE0000E9800786C2804D144F400740E98401C8E
:104DF0000E9021E044F080040E98401C0E900E9816
:104E00000078682804D144F040040E98401C0E90AD
:104E100012E044F480740E98401C0E900CE044F4B0
:104E200000740E98401C0E9006E044F480740E98B6
:104E3000401C0E9000E000BF00BF0E98007869286B
:104E40001DD00EDC622821D006DC25287ED050281B
:104E50001AD058287BD115E0632879D06428F9D17D
:104E60000CE0732875D004DC6F280ED07028F1D1C7
:104E700009E0752804D07828ECD102E000BF00BF1B
:104E800000BF00BF00BF00BF00BF00BF0E9800788A
:104E9000782803D00E980078582801D1102623E0F6
:104EA0000E980078702803D00E98007850280CD106
:104EB000102644F0100444F480740E98407856286C
:104EC00012D10E98401C0E900EE00E9800786F28BC
:104ED00001D1082608E00E980078622801D1022648
:104EE00002E00A2624F010040E980078582803D017
:104EF0000E980078502801D144F020040E980078D4
:104F0000692805D00E980078642801D024F00C049C
:104F100004F4806008B124F001040E980078692838
:104F200003D00E98007864287CD104F40070B8B3E4
:104F30001898C01D20F007001890D0E900AB189A0F
:104F4000083218920020CDE9069803E073E17CE175
:104F5000F2E01CE1CDE904600894BAEB00017BEBC0
:104F6000000001DA012000E0002000210290084644
:104F7000B1EB0A0170EB0B0002DA5046594605E02E
:104F800000200146B0EB0A0061EB0B01CDE9000106
:104F90002A463846DDE90C13FFF7A9FB0546C7E0B2
:104FA000FFE704F48070D0B1189850F804AB189063
:104FB0004FEADA70CDE9039802960594BAF1000F32
:104FC00001DD514601E0CAF10001CDE900102A4699
:104FD0003846DDE90C13FFF74CFB0546A8E004F06A
:104FE000400028B1189810F8041B1890C8B20DE0C2
:104FF00004F0800028B1189830F8041B189008B20B
:1050000004E0189800681899091D189182464FEA23
:10501000DA70CDE9039802960594BAF1000F02DD2B
:10502000514602E00BE0CAF10001CDE900102A462A
:105030003846DDE90C13FFF71CFB054678E00E98B7
:105040000078562818D1189850F804AB1890DAF860
:1050500004000068099009980090DAF800300D9873
:10506000421B0C9841193846FFF708FE0544002002
:1050700009905DE0AF47000804F40070D0B11898C3
:10508000C01D20F00700CDE9069808941890002074
:10509000CDE904600290189903C9189A0832189251
:1050A000CDE900012A463846DDE90C13FFF71FFB66
:1050B00005463DE004F4807098B10022CDE90398E4
:1050C00002960594189800681899091DCDE9000208
:1050D00018912A463846DDE90C13FFF7CAFA05464F
:1050E00026E004F0400028B1189810F8041B18902E
:1050F000C8B20DE004F0800028B1189830F8041B05
:10510000189088B204E0189800681899091D189141
:1051100082460020CDE900A0CDE9039802960594CF
:105120002A463846DDE90C13FFF7A3FA054600BF0F
:105130000E98401C0E9093E0012604F0020050B936
:1051400005E02A466D1C2020DDE90C13B8473046E7
:10515000761C4045F5D3189911F8043BD8B22A467D
:105160006D1C1891DDE90C13B84704F0020050B132
:1051700005E02A466D1C2020DDE90C13B8473046B7
:10518000761C4045F5D30E98401C0E9068E01898A8
:1051900050F804AB18905046B9F1000F01D04946C1
:1051A00001E04FF0FF310A46014600E0491C0B7850
:1051B0001BB1131EA2F10102F8D10E1A04F4806093
:1051C00028B14E4501D2304600E04846064604F07C
:1051D000020050B905E02A466D1C2020DDE90C13C1
:1051E000B8473046761C4045F5D306E01AF8010B67
:1051F0002A466D1CDDE90C13B8479AF8000040B14F
:1052000004F480600028F1D0B9F10000A9F101098F
:10521000ECD104F0020050B105E02A466D1C2020BC
:10522000DDE90C13B8473046761C4045F5D30E989F
:10523000401C0E9014E02A466D1C2520DDE90C135D
:10524000B8470E98401C0E900AE02A466D1C0E9935
:105250000878DDE90C13B8470E98401C0E9000BF8B
:1052600000BF00BF0E98007800287FF410AD0D98A5
:10527000854201D2284601E00D98401E02460020DA
:10528000DDE90C13B84728460FB0BDE8F08F00BF2A
:10529000FEE7816841F00801816000BF816801F08C
:1052A00008010029FAD1816841F00401816000BF42
:1052B000816801F004010029FAD1704730B5012955
:1052C00002D002291AD10CE0C36A23F47003C3622E
:1052D000C36A541E4FF4700505EA04542343C362A5
:1052E0000DE0836B23F440138363836B541E4FF4F0
:1052F000401505EA04542343836300E000BF00BF68
:1053000030BD21B1826842F40062826003E08268AD
:1053100022F4006282607047816801F0010119B9CE
:10532000816841F001018160704772B101F00103B1
:105330001BB1836843F48013836001F0020393B1CF
:10534000836843F4004383600DE001F001031BB167
:10535000836823F48013836001F002031BB1836828
:1053600023F4004383607047012902D0022910D141
:1053700007E0836823F460238360836813438360BA
:1053800008E0836823F4E043836083681343836009
:1053900000E000BF00BF70470246002013680B40CA
:1053A00003B10120704700000549096821F470210C
:1053B000034A1160114609680143116070470000FB
:1053C0000424014030B5B1F5007F06D1D0F880400B
:1053D00044F40074C0F8804005E0D0F8804024F424
:1053E0000074C0F8804050F8804F24F4FE740460CC
:1053F000046842EA03052C4340F8804930BDD0F8E8
:10540000801041F00101C0F880107047F0B51D46D2
:1054100006290CD2436B01EB81071F26BE40B34324
:1054200001EB810602FA06F63343436322E00C29BE
:105430000ED2036B8E1F06EB86071F26BE40B343BA
:105440008E1F06EB860602FA06F63343036311E06D
:1054500010290FD2C36AA1F10C0606EB86071F269E
:10546000BE40B343A1F10C0606EB860602FA06F62F
:105470003343C3620A2A0CD2046902EB42070726AF
:10548000BE40B44302EB420605FA06F6344304611B
:1054900011E0122A0FD2C468A2F10A0606EB4607F1
:1054A0000726BE40B443A2F10A0606EB460605FAFB
:1054B00006F63443C460F0BD0146C86C80B2704744
:1054C00001F001021AB1826842F48002826001F0A8
:1054D00002021AB1826842F4001282607047AAB1D7
:1054E00001F480731BB1436843F48073436001F49B
:1054F00080631BB1436843F48063436001F002039F
:10550000CBB1836843F00203836014E001F480733D
:105510001BB1436823F48073436001F480631BB1C3
:10552000436823F48063436001F002031BB1836886
:1055300023F00203836070472DE9F04104460E46D4
:10554000002774B13146204600F0C2F80546B5F593
:10555000803F05D20C2D01D9284600E00C200746DB
:1055600000BF3846BDE8F0817CB505460C4600BF5B
:10557000601E204000280CD008A018A11E4B40F24D
:10558000ED12CDE900101DA10320FEF779FA00BF4E
:10559000FEE700BF601E2840281A7CBD30203D3D3C
:1055A0002028616C69676E20262028616C69676E0F
:1055B000202D2031292920262620226D7573742064
:1055C000616C69676E20746F206120706F776572FF
:1055D000206F662074776F220000000041737365AE
:1055E0007274656420617420657870726573736984
:1055F0006F6E3A20257300003ACA03084D69645F54
:105600006C76676C5C7372635C6D6973635C6C76FB
:105610005F746C73662E63007CB505460C46601E95
:105620002844611E20EA010600BF601E20400028B9
:105630000CD008A017A11E4B40F2F512CDE90010C6
:105640001CA10320FEF71CFA00BFFEE700BF304696
:105650007CBD000030203D3D2028616C69676E20D4
:10566000262028616C69676E202D2031292920268B
:105670002620226D75737420616C69676E20746FCB
:10568000206120706F776572206F662074776F22BB
:1056900000000000417373657274656420617420BA
:1056A00065787072657373696F6E3A2025730000B8
:1056B00045CA03084D69645F6C76676C5C737263FE
:1056C0005C6D6973635C6C765F746C73662E6300EB
:1056D0007CB505460C4600BF601E204000280CD05B
:1056E00009A019A11F4B40F2E712CDE900101EA13D
:1056F0000320FEF7C5F900BFFEE700BF601E284487
:10570000611E88437CBD000030203D3D2028616C37
:1057100069676E20262028616C69676E202D203114
:10572000292920262620226D75737420616C6967F3
:105730006E20746F206120706F776572206F662015
:1057400074776F22000000004173736572746564A2
:105750002061742065787072657373696F6E3A208A
:105760002573000031CA03084D69645F6C76676C6D
:105770005C7372635C6D6973635C6C765F746C738D
:10578000662E63002DE9FE4380460E464446012006
:105790006086002500270DE056F8270030A1FAF7B3
:1057A0008FFD10B1681C85B202E0608E401C6086DF
:1057B000781C87B256F8270020B156F827000078E9
:1057C0000028E9D1208EA84201D1BDE8FE83A06A5D
:1057D00020B1A06A1FF014F90020A062E06A20B195
:1057E000E06A1FF00DF90020E062E8001EF080FF83
:1057F000A06200BFA06A00280ED11AA01DA124A299
:105800002B4BCDE90021029040F2773229A10320F1
:10581000FEF736F900BFFEE700BF68001EF068FF24
:10582000E06200BFE06A70B90EA02BA118A2204B65
:10583000CDE90021029040F279321EA10320FEF74B
:105840001FF900BFFEE700BFA06A08B1E06A00B917
:1058500000256900E06A1FF022FB258600BFB4E73F
:105860000A0000004F7574206F66206D656D6F72C1
:105870007900000062746E6D2D3E627574746F6EF7
:105880005F617265617320213D204E554C4C0000D4
:1058900041737365727465642061742065787072F9
:1058A000657373696F6E3A2025732028257329006C
:1058B00074CC03084D69645F6C76676C5C737263CB
:1058C0005C776964676574735C6C765F62746E6D37
:1058D00061747269782E630062746E6D2D3E63741C
:1058E000726C5F6269747320213D204E554C4C00F0
:1058F0002DE9FE4F81460E46924699F8090000F0C8
:105900000700022801D1304600E050468346564544
:1059100001DD304600E050460746032000EB47001B
:1059200020F0030000F110053E4800683E49096878
:10593000A0EB0108002405EB08003C4909688842F7
:1059400006D238480468606820F00040606044E097
:1059500036480068854221D813E04FF0FF300290AE
:10596000002202A9324810F0F1FC002202A93148BD
:1059700010F0ECFC2B4800682B490968A0EB0108EB
:1059800000BF08EB0500294909688842E5D8254889
:105990000468606820F0004060601EE028461EF049
:1059A000A7FE044600BF6CB923A027A12AA2324B50
:1059B000CDE900210290C12230A10320FEF760F85A
:1059C00000BFFEE700BF14B90020BDE8FE8F60688D
:1059D00020F0004000F100406060324659464846E1
:1059E00002F073FC2060606800F04040401C606082
:1059F000606820F080406060A781A4F80EB0606805
:105A0000C00F20B1204600F11001A16008E0054858
:105A100000681030A060034800682844014908600D
:105A20002046D2E728020020800300202402002024
:105A3000A71E0108CD6301084F7574206F66206DA5
:105A4000656D6F72790000006974656D20213D20DD
:105A50004E554C4C000000004173736572746564D0
:105A60002061742065787072657373696F6E3A2077
:105A70002573202825732900B98203084D69645FC6
:105A80006C76676C5C7372635C647261775C73776D
:105A90005C6C765F647261775F73775F6772616475
:105AA00069656E742E630000F0B585B006460D463C
:105AB0003446002004900390029065480088A84274
:105AC00002D0FF20634908706148058094F83C00CB
:105AD00000F0030020B1012838D0022866D000BFB2
