:020000040800F2
:1000000028040020450100084D0100084F010008A8
:1000100051010008530100085501000800000000CC
:100020000000000000000000000000005701000870
:1000300059010008000000005B0100085D01000894
:100040005F0100085F0100085F0100085F01000810
:100050005F0100085F0100085F0100085F01000800
:100060005F0100085F0100085F0100085F010008F0
:100070005F0100085F0100085F0100085F010008E0
:100080005F0100085F0100085F0100085F010008D0
:100090005F0100085F0100085F0100085F010008C0
:1000A0005F0100085F0100085F0100085F010008B0
:1000B0005F0100085F0100085F0100085F010008A0
:1000C0005F0100085F0100085F0100085F01000890
:1000D0005F0100085F0100085F0100085F01000880
:1000E0005F0100085F0100085F0100085F01000870
:1000F0005F0100085F0100085F0100085F01000860
:100100005F0100085F0100085F0100085F0100084F
:100110005F0100085F0100085F0100085F0100083F
:100120005F0100085F0100085F0100085F0100082F
:10013000DFF80CD000F018F8004800474D04000824
:10014000280400200648804706480047FEE7FEE7EF
:10015000FEE7FEE7FEE7FEE7FEE7FEE7FEE7FEE777
:100160006902000831010008064C074D06E0E0680E
:1001700040F0010394E8070098471034AC42F6D3EE
:10018000FFF7DAFF440700086407000870B504466B
:10019000002504E04FF47A7000F004F86D1CA542CD
:1001A000F8D370BD70B5044607484568012000F0DB
:1001B0007FF90649B0FBF1F0444300BF02484068B4
:1001C000401BA042FAD370BD001000E040420F0077
:1001D0000C48006820F080700A49086008460068F2
:1001E00040F0807008600848006820F0010006496F
:1001F00008600846006840F0010008600020486080
:1002000070470000FCED00E0001000E010B5002495
:1002100024E004EB4401134A32F8210000F0F4F921
:1002200004EB44010F4A02EB81018B6804EB4401AB
:1002300002EB810102224868102100F0A8F804EBCB
:100240004402084B03EB8202916804EB440203EB87
:100250008202506800F097F8601CC4B2032CD8D317
:1002600010BD00000000002008B52648006840F4DA
:100270007000244908602448006840F001002249C9
:10028000086000BF2048006800F002000028F9D094
:1002900000BF1D48406840F080001B4948600020B6
:1002A000009002E00098401C009000985028F9D37C
:1002B0001548406840F090001349486000200090C5
:1002C00002E00098401C009000985028F9D300BF2D
:1002D0000D48406820F003000B494860084600685C
:1002E0000A490840084908604FF41F008860084622
:1002F000006820F48020086000204860C86200F098
:100300001DFA08BD88ED00E000100240FFFFF6FE78
:1003100010B50446032C00D310BD04EB4402064B79
:1003200003EB8202916804EB440203EB8202506803
:1003300000F029F800BFEFE70000002010B50446E8
:10034000032C00D310BD04EB4402064B03EB8202E6
:10035000916804EB440203EB8202506800F015F848
:1003600000BFEFE70000002002E008C8121F08C12C
:10037000002AFAD170477047002001E001C1121F26
:10038000002AFBD170474161704701617047F0B5A9
:10039000044616460025002201F00F0501F0100763
:1003A00047B1042E05D145F00305E76B1F43E76312
:1003B00000E0354300201EE0012787401F40C7B101
:1003C00022684FEA800C0F2707FA0CF7BA43870020
:1003D00005FA07F73A43282904D1012787401F402F
:1003E000676105E0482903D1012787401F40276145
:1003F0002260471CB8B20828DED3082022E001277B
:1004000087401F40E7B16268A0F108074FEA870CF8
:100410000F2707FA0CF7BA43A0F10807BF0005FA47
:1004200007F73A43282904D1012787401F40676115
:1004300005E0482903D1012787401F4027616260FA
:10044000471CB8B21028DAD3F0BD000040F20260B9
:1004500000F0DAF84FF48073022210211348FFF7FE
:1004600096FFFFF7B5FEFFF7D1FE1DE00020FFF776
:1004700065FFC820FFF78AFE0020FFF749FF012033
:10048000FFF75CFFC820FFF781FE0120FFF740FF68
:100490000220FFF753FFC820FFF778FE0220FFF786
:1004A00037FFC820FFF772FEE0E7000000080140B8
:1004B0002DE9F04F8CB0074600200A904AA090E842
:1004C000004CC068CDE905BECDF810A007900FF232
:1004D0001C1ADAE9000ACDE9020A0FF2101ADAE969
:1004E000000ACDE9000A44484068C0F381000B903F
:1004F0000B9820B1012804D002283FD103E03F4AE5
:100500003EE03E4A3CE03C48406800F4803CBCF59C
:10051000803F12D13848C06A00F08048B8F1000F1F
:1005200001D1364B00E0364B3348406800F40039C7
:10053000B9F5003F02D15B0800E0324B2E4840681D
:10054000C0F383412C48406800F0006008B141F0DE
:1005500010012948406800F0804008B141F02001B6
:100560000F2901D2891C06E00F2903D33E2901D8A7
:10057000491C00E03F2103FB01F201E01F4A00BFDC
:1005800000BF1D484068C0F3031504A8465D22FA69
:1005900006F419484068C0F3022502A8465D24FA13
:1005A00006F0099014484068C0F3C2251DF80560A4
:1005B00024FA06F0089037B1012F06D0022F06D09A
:1005C000032F0AD106E00A9208E00A9406E009988F
:1005D0000A9003E008980A9000E000BF00BF0A9864
:1005E0000CB0BDE8F08F000000000000000000002B
:1005F00001020304060708090010024000127A00F5
:10060000006CDC0200093D00064A02EB901109680B
:1006100000F01F0301229A401143024B03EB90129A
:100620001160704700100240002000213F4A12680C
:1006300042F480323D4B1A6000BF401C3B4A1268B6
:1006400002F4003119B94FF6FF729042F5D1374AE2
:10065000126802F400320AB900BFFEE7334AD269D9
:1006600042F08052314BDA61314A126842F4404222
:100670002F4B1A602D4A52682C4B5A601A4652680A
:100680005A601A46526842F480625A601A465268AA
:1006900022F440325A601A46526842F440325A609C
:1006A0001A465268234B1A40204B5A601A46526829
:1006B000214B1A431D4B5A601A46126842F0807251
:1006C0001A6000BF194A126802F00072002AF9D0BD
:1006D000174A126842F48032154B1A6000BF144A60
:1006E000526802F48032002AF9D0114A126842F4AA
:1006F00000320F4B1A6000BF0D4A526802F40032FC
:10070000002AF9D0094A526822F00302074B5A60C6
:100710001A46526842F002025A6000BF034A526809
:1007200002F00802002AF9D07047000000100240D1
:1007300000700040FFFFC3B70000340810B5FFF79A
:1007400073FF10BD640700080000002024000000B3
:100750006803000888070008240000200404000043
:1007600078030008020600000008014000010000B4
:1007700006060000001801404000000007060000C7
:08078000001C014040000000D4
:0400000508000131BD
:00000001FF
