:020000040800F2
:100000005804002045010008AD030008490300081A
:10001000A90300082F020008550600080000000090
:10002000000000000000000000000000BD03000808
:100030007102000800000000AF030008C1030008BF
:100040005F0100085F0100085F0100085F01000810
:100050005F0100085F0100085F0100085F01000800
:100060005F0100085F0100085F0100085F010008F0
:100070005F0100085F0100085F0100085F010008E0
:100080005F0100085F0100085F0100085F010008D0
:100090005F0100085F0100085F0100085F010008C0
:1000A0005F0100085F0100085F0100085F010008B0
:1000B0008D0400085F0100085F0100085F0100086F
:1000C0005F0100085F0100085F0100085F01000890
:1000D0005F010008190600085F0100085F010008C1
:1000E0005F0100085F0100085F0100085F01000870
:1000F0005F0100085F0100085F0100085F01000860
:100100005F0100085F010008C10400085F010008EA
:100110005F0100085F0100085F0100085F0100083F
:100120005F0100085F0100085F0100085F0100082F
:10013000DFF80CD000F04AF800480047930C0008A4
:10014000580400200648804706480047FEE7FEE7BF
:10015000FEE7FEE7FEE7FEE7FEE7FEE7FEE7FEE777
:10016000E5030008310100082DE9F05F0546002095
:1001700092469B4688460646814640241BE0284618
:1001800041464746224600F042F853465A46C01AB6
:10019000914110D311461846224600F029F82D1A35
:1001A00067EB01084F4622460120002100F020F8AD
:1001B00017EB00094E41201EA4F10104DFDC484684
:1001C00031462A464346BDE8F09F0000064C074DE5
:1001D00006E0E06840F0010394E807009847103417
:1001E000AC42F6D3FFF7A8FF641800088418000893
:1001F000202A04DB203A00FA02F1002070479140E7
:10020000C2F1200320FA03F3194390407047202ADB
:1002100004DB203A21FA02F00021704721FA02F3B0
:10022000D040C2F12002914008431946704700BFF8
:10023000FEE710B500F07AF800F08CF910BD000070
:1002400010B50548016805A000F050FA4FF4FA70A7
:1002500000F02EF810BD000050000020706572699B
:100260006F642069732025642075732E0A000000D6
:10027000704700000C48006820F080700A49086050
:100280000846006840F0807008600848006820F068
:100290000100064908600846006840F00100086057
:1002A0000020486070470000FCED00E0001000E016
:1002B00070B50446002504E04FF47A7000F004F8AD
:1002C0006D1CA542F8D370BD70B50446074845685B
:1002D000012000F051FD0649B0FBF1F0444300BF9E
:1002E00002484068401BA042FAD370BD001000E0F5
:1002F00040420F0010B500F029F8FFF7BBFF00F0F7
:10030000ABF900F055F8FFF794FF10BD10B540F2BF
:10031000026000F0DDFD4FF48073012218210248D5
:1003200000F051FC10BD00000008014010B540F283
:10033000026000F0CDFD01231A460421014800F0BF
:1003400042FC10BD0008014000BFFEE710B50024CC
:1003500024E004EB4401134A32F8210000F0B8FD18
:1003600004EB44010F4A02EB81018B6804EB44016A
:1003700002EB810102224868102100F024FC04EB0A
:100380004402084B03EB8202916804EB440203EB46
:100390008202506800F010FC601CC4B2032CD8D359
:1003A00010BD00000000002000BFFEE7704770474E
:1003B00010B5FFF7ABFF00F093F810BD70470000D9
:1003C00010B50648D0E900305A1C40F1000003493E
:1003D000C1E9002002480068804710BD28000020C5
:1003E0003000002008B52648006840F47000244919
:1003F00008602448006840F001002249086000BFFE
:100400002048006800F002000028F9D000BF1D4815
:10041000406840F080001B4948600020009002E0E6
:100420000098401C009000985028F9D31548406867
:1004300040F09000134948600020009002E00098CE
:10044000401C009000985028F9D300BF0D48406828
:1004500020F003000B494860084600680A4908403C
:10046000084908604FF41F0088600846006820F4BF
:100470008020086000204860C86200F0E3FD08BDED
:1004800088ED00E000100240FFFFF6FE10B50221EB
:10049000480701F0CFF880B10221480701F0C7F802
:1004A00000214FF0804000F0D1FD401C034908605E
:1004B00000214FF0804000F051FF10BD500000209F
:1004C00010B50121054801F0B5F830B1012103480C
:1004D00001F0ADF8002000F077F810BD000C0040EE
:1004E00000B587B040F20B6000F0F2FC184800F055
:1004F00037FF03A801F0B6F87720ADF80C0040F202
:10050000F310059003A9124800F09EFF684600F022
:100510001DFF0120ADF802000020ADF804006A467E
:1005200000210B4800F0DCFDF9220021084800F012
:10053000FAFE60220021064800F0C8FE01210448AE
:1005400001F084F8024800F079FF07B000BD000018
:10055000002C014000B587B04FF4E06000F0B8FC1B
:100560004FF0804000F0FCFE03A801F07BF87720FC
:10057000ADF80C004FF6FF70059003A94FF08040D6
:1005800000F062FF01A800F0A3FD0020ADF8040018
:100590000120ADF8060001AA0021800700F0A0FFAD
:1005A0000221480701F043F80221480701F03BF817
:1005B000002211461C2000F073FB4FF0804000F039
:1005C0003DFF07B000BD000070B50446032C00D30A
:1005D00070BD04EB44020F4B03EB8202916804EB05
:1005E000440203EB8202506800F04BFB0546C5F164
:1005F0000100C5B204EB4402064B03EB8202916892
:1006000004EB440203EB820250682A4600F0D6FA5B
:1006100000BFDDE70000002010B50B4908680B495A
:1006200001F0F0F870B108490868084901F0E1F8F4
:100630000549086801F06AF8C4B22046044909680F
:10064000884700BF10BD00003400002005030500EE
:100650004C00002000BFFEE710B500F005F84FF495
:10066000E13000F017F810BD10B50949C88800F056
:100670002FFC0749CB6801228868182100F0A3FAF3
:1006800003490B6901228868482100F09CFA10BDDB
:100690003400002010B504461349888800F018FC87
:1006A0001149086801F03CF80F490868214600F03C
:1006B000E5FF0D490868082101F0CAF80A490868F1
:1006C000042101F0BBF80849086840F2053101F047
:1006D00083F80549087D0022114600F0E1FA02493D
:1006E000086801F065F810BD340000200FB4054B18
:1006F00010B503A9044A029800F018F810BC5DF880
:1007000014FB0000910B00085400002002E008C810
:10071000121F08C1002AFAD170477047002001E07B
:1007200001C1121F002AFBD1704700002DE9FF4FC5
:100730008DB00F460546002606E025280BD0DDE9E2
:100740000F1290476D1C761C28780028F5D111B047
:100750003046BDE8F08F0024A246A1460122EC49B4
:1007600000E0044315F8013F203B02FA03F0084281
:10077000F7D128782A2810D06FF02F022878A0F11E
:100780003001092914D80AEB8A0102EB410144F037
:10079000020400EB010A6D1CF0E701CF5FEA000ADA
:1007A00003D544F40054CAF1000A44F002046D1C5D
:1007B00028782E2817D115F8010F44F004042A28B0
:1007C0000ED06FF02F022878A0F1300109290AD845
:1007D00009EB890102EB410100EB01096D1CF2E715
:1007E00057F8049B6D1C28786C280FD006DC4C2829
:1007F00017D068280DD06A2814D104E0742810D0CE
:100800007A280FD10DE044F400140AE044F4801477
:1008100001E044F440146978814202D104F5801467
:100820006D1C6D1C2A786E2A1FD00CDC632A31D017
:1008300004DC002A8BD0582A11D1A3E0642A68D0A6
:10084000692A0CD165E0732A2ED004DC6F2A73D09C
:10085000702A04D19BE0752A6FD0782A6ED010469A
:10086000DDE90F129047761C50E1C4F302500228D4
:1008700006D0032809D0042801CF09D0066045E13D
:1008800001CFF117C0E9006140E101CF06803DE1F1
:1008900006703BE117F8040B8DF8000000208DF87E
:1008A0000100EB46012003E057F804BB4FF0FF3096
:1008B00061074FF0000102D40DE008F10101884604
:1008C00049450FDA8045F8DB1BF808100029F4D100
:1008D00008E008F1010188468142FADB1BF80810A4
:1008E0000029F6D1DDE90F23AAEB08008146214655
:1008F00000F036F9304400EB080604E0DDE90F12A1
:100900001BF8010B9047B8F10108F7D22146484681
:10091000F7E00A21C4F302534FF0000B0891022BB9
:1009200004D001CFC117032B09D00AE0FF1D27F027
:100930000707F7E8020108E032E01FE020E000B21C
:10094000C117042B01D140B2C117031E71F100037E
:1009500007DA4FF0000CD0EB0C006CEB01012D23FB
:1009600002E0230504D52B238DF82430012303E076
:10097000E30701D02023F7E7984658E00A2110E06A
:1009800010210EE010204FF0000B08900CE0102119
:100990004FF0000B44F004044FF00809089103E005
:1009A00008214FF0000B0891C4F30253022B04D02E
:1009B00001CF0021032B06D006E0FF1D27F007071B
:1009C000F7E8020103E080B2042B00D1C0B24FF07F
:1009D000000823072BD5702A07D0DDF820C08CF043
:1009E000100C5CEA0B0C05D00EE040238DF824308F
:1009F000012308E050EA010306D030238DF82430AB
:100A00008DF8252002239846DDF820C08CF0080CD4
:100A10005CEA0B0C0BD150EA010301D1630706D548
:100A200030238DF824304FF00108A9F10109582A2C
:100A300004D038A20B9208AA0A920BE03AA2F9E776
:100A40005B46089AFFF790FB0B9B9B5C0A9A521E31
:100A50000A92137050EA0102F2D10A98ADEB00003D
:100A600000F1200B600702D524F4803401E04FF040
:100A70000109D94502DDA9EB0B0000E0002000EBE5
:100A80000B0141440890AAEB010AE00306D4DDE91A
:100A90000F232146504600F063F806444FF000094A
:100AA00008E009A911F80900DDE90F12904709F1E2
:100AB0000109761CC145F4DBE0030CD5DDE90F2309
:100AC0002146504600F04CF8064404E0DDE90F12E0
:100AD00030209047761C0899481E08900029F5DCC4
:100AE00008E00A980A990078491C0A91DDE90F127A
:100AF0009047761CBBF10001ABF1010BF1DC214604
:100B00005046DDE90F2300F019F806446D1C1BE682
:100B100009280100303132333435363738396162D3
:100B20006364656600000000303132333435363797
:100B30003839414243444546000000002DE9F04168
:100B4000044600251E461746880404D405E03946AD
:100B50002020B0476D1C641EF9D52846BDE8F08101
:100B60002DE9F041044600251E469046C80301D5F4
:100B7000302700E02027880404D505E041463846A8
:100B8000B0476D1C641EF9D52846BDE8F081000011
:100B900070B504460D46E1B2064A106800F0BBFD90
:100BA00000BF04490868072100F007FE0028F8D0BC
:100BB000204670BD34000020416170470AB10161D8
:100BC00000E041617047F0B504461646002500225A
:100BD00001F00F0501F0100747B1042E05D145F0D3
:100BE0000305E76B1F43E76300E0354300201EE089
:100BF000012787401F40C7B122684FEA800C0F27AA
:100C000007FA0CF7BA43870005FA07F73A43282991
:100C100004D1012787401F40676105E0482903D1BF
:100C2000012787401F4027612260471CB8B208286F
:100C3000DED3082022E0012787401F40E7B1626829
:100C4000A0F108074FEA870C0F2707FA0CF7BA4301
:100C5000A0F10807BF0005FA07F73A43282904D195
:100C6000012787401F40676105E0482903D101271C
:100C700087401F4027616260471CB8B21028DAD352
:100C8000F0BD02469068084008B10120704700207E
:100C9000FCE7FFF72FFB01E0FFF7D2FAFCE70000CB
:100CA0002DE9F04103460D46164600240027A046D4
:100CB0002A48006800F4E060B0F5E06F03D100BF9F
:100CC0004FF0040830E02548006800F4E060B0F51B
:100CD000C06F03D101274FF0030825E01F480068CB
:100CE00000F4E060B0F5A06F02D10227B8461BE027
:100CF0001A48006800F4E060B0F5806F03D1032764
:100D00004FF0010810E01548006800F4E060B0F50D
:100D1000407F03D104274FF0000805E04FF4A060A6
:100D200000F020F80227B846C7F1040005FA00F4E5
:100D3000C8F104010F20C840304004432401084892
:100D4000C45403F01F01012088405911890001F1AA
:100D5000E021C1F80001BDE8F08100000CED00E0E9
:100D600000E400E002490143024A116070470000BC
:100D70000000FA050CED00E02DE9F04F8CB00746BD
:100D800000200A904AA090E8004CC068CDE905BE5A
:100D9000CDF810A007900FF21C1ADAE9000ACDE98D
:100DA000020A0FF2101ADAE9000ACDE9000A4448F3
:100DB0004068C0F381000B900B9820B1012804D04B
:100DC00002283FD103E03F4A3EE03E4A3CE03C4837
:100DD000406800F4803CBCF5803F12D13848C06ABE
:100DE00000F08048B8F1000F01D1364B00E0364BDF
:100DF0003348406800F40039B9F5003F02D15B0880
:100E000000E0324B2E484068C0F383412C484068D4
:100E100000F0006008B141F010012948406800F07E
:100E2000804008B141F020010F2901D2891C06E061
:100E30000F2903D33E2901D8491C00E03F2103FBC1
:100E400001F201E01F4A00BF00BF1D484068C0F327
:100E5000031504A8465D22FA06F419484068C0F359
:100E6000022502A8465D24FA06F00990144840685D
:100E7000C0F3C2251DF8056024FA06F0089037B1CA
:100E8000012F06D0022F06D0032F0AD106E00A92C6
:100E900008E00A9406E009980A9003E008980A908E
:100EA00000E000BF00BF0A980CB0BDE8F08F000062
:100EB000000000000000000001020304060708090A
:100EC0000010024000127A00006CDC0200093D00B4
:100ED000064A02EB9011096800F01F0301229A40B4
:100EE0001143024B03EB9012116070470010024057
:100EF000064A02EB9011096800F01F0301229A4094
:100F00009143024B03EB90121160704700100240B6
:100F1000064A02EB9011096800F01F0301229A4073
:100F20001143024B03EB9012116070470010024016
:100F3000002000213F4A126842F480323D4B1A6083
:100F400000BF401C3B4A126802F4003119B94FF649
:100F5000FF729042F5D1374A126802F400320AB9A2
:100F600000BFFEE7334AD26942F08052314BDA616A
:100F7000314A126842F440422F4B1A602D4A52689F
:100F80002C4B5A601A4652685A601A46526842F40C
:100F900080625A601A46526822F440325A601A46F9
:100FA000526842F440325A601A465268234B1A4043
:100FB000204B5A601A465268214B1A431D4B5A6007
:100FC0001A46126842F080721A6000BF194A12680D
:100FD00002F00072002AF9D0174A126842F48032F7
:100FE000154B1A6000BF144A526802F48032002A7E
:100FF000F9D0114A126842F400320F4B1A6000BF58
:101000000D4A526802F40032002AF9D0094A5268A7
:1010100022F00302074B5A601A46526842F002025D
:101020005A6000BF034A526802F00802002AF9D051
:10103000704700000010024000700040FFFFC3B77F
:101040000000340810B5FFF773FF10BD0246002002
:1010500031B1012906D0022906D0032908D105E0C3
:10106000506B06E0906B04E0D06B02E0106C00E087
:1010700000BF00BF704731B101290CD0022913D045
:10108000032922D118E0836923F00C03836183696B
:10109000134383611AE0836923F4406383618369A6
:1010A00043EA0223836111E0C36923F00C03C361A7
:1010B000C3691343C36109E0C36923F44063C36197
:1010C000C36943EA0223C36100E000BF00BF704769
:1010D000002101800121418000218180C180704771
:1010E00010B531B101293FD002297DD003297CD12F
:1010F000BFE0036A23F001030362836923F0030363
:101100008361036A148823430362036A23F00203A2
:101110000362036A9488234303626A4B984202D0B5
:10112000694B98421FD1036A23F004030362036AE8
:10113000548823430362036A23F008030362036AAB
:10114000D48823430362436823F480734360436875
:10115000148923434360436823F400734360436866
:10116000548923434360ABE0036A23F01003036216
:10117000836923F440738361036A148843EA041388
:101180000362036A23F020030362036A948843EA3C
:10119000041303624B4B984202D04B4B984226D12A
:1011A000036A23F040030362036A548843EA04138A
:1011B0000362036A23F080030362036AD48843EA6C
:1011C00004130362436823F4806343604368148913
:1011D00043EA84034360436823F400634360436845
:1011E000548943EA840301E002E068E0436067E079
:1011F000036A23F480730362C36923F00303C361AA
:10120000036A148843EA04230362036A23F4007325
:101210000362036A948843EA04230362294B9842D9
:1012200002D0294B984223D1036A23F480630362DE
:10123000036A548843EA04230362036A23F40063C5
:101240000362036AD48843EA04230362436823F4F5
:10125000805343604368148943EA0413436043683E
:1012600023F4005343604368548943EA0413436002
:1012700026E0036A23F480530362C36923F44073B6
:10128000C361036A148843EA04330362036A23F4E4
:1012900000530362036A948843EA04330362094BF0
:1012A000984202D0084B984208D1436823F4804307
:1012B00043604368148943EA8413436000E000BF3D
:1012C00000BF10BD002C01400034014031B10129A4
:1012D0000CD0022913D0032922D118E0836923F00E
:1012E000700383618369134383611AE0836923F484
:1012F000E0438361836943EA0223836111E0C369A8
:1013000023F07003C361C3691343C36109E0C36978
:1013100023F4E043C361C36943EA0223C36100E0ED
:1013200000BF00BF704731B1012906D0022906D0A5
:10133000032908D105E0426306E0826304E0C2634A
:1013400002E0026400E000BF00BF7047002101809E
:1013500041808180C1800181418170474162704735
:1013600010B504463349601A8C4244D00CDCB4F109
:10137000804F1CD03048204410B3B0F5806F28D087
:10138000B0F5006F52D12DE0B0F5806F3CD0B0F5D4
:101390008E3F03D0B0F5923F48D13EE040F20B3093
:1013A000FFF7B6FD40F20B30FFF7A2FD3FE04FF430
:1013B0008060FFF7ADFD4FF48060FFF799FD36E0E8
:1013C00040F20140FFF7A4FD40F20140FFF790FD1D
:1013D0002DE040F20240FFF79BFD40F20240FFF794
:1013E00087FD24E040F20340FFF792FD40F2034006
:1013F000FFF77EFD1BE040F20440FFF789FD40F25D
:101400000440FFF775FD12E040F20540FFF780FD54
:1014100040F20540FFF76CFD09E040F20D30FFF7A8
:1014200077FD40F20D30FFF763FD00E000BF00BF25
:1014300010BD00000010004000FCFFBF016841F03B
:1014400001010160704700000A8882621D4A9042D3
:101450000ED0B0F1804F0BD01B4A904208D01B4AEF
:10146000904205D01A4A904202D01A4A90420BD1BB
:10147000026822F07002026002684B881A43026020
:1014800002688B881A4302608A68C262124A9042DC
:101490000AD0124A904207D0026822F440720260D9
:1014A0000268CB881A430260064A904202D0094A79
:1014B000904201D10A7B0263426942F0010242611B
:1014C00070470000002C014000040040000800406C
:1014D000000C0040003401400010004000140040A7
:1014E00070B504460E46154636B1012E26D0022EA2
:1014F00048D0032E7DD168E0206A20F001002062F0
:10150000206A20F00A002062206A298808432062AD
:10151000A06920F00300A061A06969880843A06168
:10152000A06920F0F000A061A069E98840EA0110FC
:10153000A061206A40F0010020626DE0206A20F086
:1015400010002062206A20F0A0002062206A298812
:1015500040EA01102062A06920F44070A061A069F7
:10156000698840EA0120A061A06920F47040A06170
:10157000A069E98840EA0130A061206A40F01000CB
:10158000206249E0206A20F480702062206A20F402
:1015900020602062206A298840EA01202062E069F8
:1015A00020F00300E061E06969880843E061E069D8
:1015B00020F0F000E061E069E98840EA0110E061B4
:1015C000206A40F48070206226E0206A20F4805077
:1015D0002062206A20F400502062206A298840EAB4
:1015E00001302062E06920F44070E061E0696988C0
:1015F00000E010E040EA0120E061E06920F4704082
:10160000E061E069E98840EA0130E061206A40F485
:101610008050206200E000BF00BFAA88314620460B
:10162000FFF729FD70BDC2680A43C2607047CA4314
:10163000026170470246D06800EA01031069084061
:1016400010B10BB1012070470020FCE7012904D143
:10165000426C42F40042426403E0426C22F40042D5
:101660004264704700210180418081804FF6FF7104
:1016700081600021C1800173704700002DE9F047AF
:1016800004460D460027B846B94600261D49601A93
:101690008C421CD006DC1C48204470B1B0F5806F31
:1016A0001FD10FE0B0F5806F16D0B0F56C4F18D198
:1016B0000320FFF761FB074614E00220FFF75CFB05
:1016C00007460FE00220FFF757FB07460AE002201B
:1016D000FFF752FB074605E00220FFF74DFB0746E8
:1016E00000E000BF00BF07EB5500B0FBF5F64FF67A
:1016F000F07006EA000806F00F0948EA0900A06049
:10170000BDE8F087004C004000BCFFBF01464868C0
:10171000C0F308007047C1F3080242607047000040
:1017200010B504462049601A8C4228D006DC1F48B8
:10173000204490B1B0F5806F33D117E0B0F5806FE1
:1017400026D0B0F56C4F2CD140F20E30FFF7E0FB05
:1017500040F20E30FFF7CCFB24E040F21140FFF7DF
:10176000D7FB40F21140FFF7C3FB1BE040F21240F1
:10177000FFF7CEFB40F21240FFF7BAFB12E040F257
:101780001340FFF7C5FB40F21340FFF7B1FB09E040
:1017900040F21440FFF7BCFB40F21440FFF7A8FBF7
:1017A00000E000BF00BF10BD004C004000BCFFBF08
:1017B000C16841F40051C160704710B5024602EBA8
:1017C0009110006801F01F040123A340184008B1E4
:1017D000012010BD0020FCE710B500EB911212684B
:1017E00001F01F040123A3401A4300EB91131A6078
:1017F00010BDC1F3044301229A40D24300EB915340
:101800001A60704770B5024600230024C1F38910A6
:10181000105801F01F060125B54000EA050302EB50
:1018200091500068C1F304460125B54000EA050463
:1018300014B10BB1012070BD0020FCE7C26822F09A
:101840000402C260C26801F004031A43C260704718
:10185000C26822F00802C260C26801F008031A439D
:10186000C260704784180008000000205800000083
:101870000C070008DC1800085800002000040000D5
:101880001C070008020600000008014000010000DB
:101890000606000000180140400000000706000096
:1018A000001C01404000000000000000000000009B
:1018B0000000000000000000003801400E06020693
:1018C00000080140000200000004000025000000A4
:0C18D0000000000000000000000000000C
:0400000508000131BD
:00000001FF
