:020000040800F2
:100000000004002045010008490100084B010008D8
:100010004D0100084F0100085101000800000000D8
:100020000000000000000000000000005301000874
:1000300055010008000000005701000859010008A0
:100040005B0100085B0100085B0100085B01000820
:100050005B0100085B0100085B0100085B01000810
:100060005B0100085B0100085B0100085B01000800
:100070005B0100085B0100085B0100085B010008F0
:100080005B0100085B0100085B0100085B010008E0
:100090005B0100085B0100085B0100085B010008D0
:1000A0005B0100085B0100085B0100085B010008C0
:1000B0005B0100085B0100085B0100085B010008B0
:1000C0005B0100085B0100085B0100085B010008A0
:1000D0005B0100085B0100085B0100085B01000890
:1000E0005B0100085B0100085B0100085B01000880
:1000F0005B0100085B0100085B0100085B01000870
:100100005B0100085B0100085B0100085B0100085F
:100110005B0100085B0100085B0100085B0100084F
:100120005B0100085B0100085B0100085B0100083F
:10013000DFF80CD000F014F80048004785020008F2
:100140000004002005480047FEE7FEE7FEE7FEE763
:10015000FEE7FEE7FEE7FEE7FEE7FEE73101000807
:10016000064C074D06E0E06840F0010394E8070004
:1001700098471034AC42F6D3FFF7DEFF0C030008BB
:100180001C03000800BF011EA0F10100FBD1704755
:1001900002E008C8121F08C1002AFAD17047704750
:1001A000002001E001C1121F002AFBD170470AB1F3
:1001B000016100E041617047F0B504461646002534
:1001C000002201F00F0501F0100747B1042E05D100
:1001D00045F00305E76B1F43E76300E0354300206C
:1001E0001EE0012787401F40C7B122684FEA800CFC
:1001F0000F2707FA0CF7BA43870005FA07F73A43C7
:10020000282904D1012787401F40676105E048295C
:1002100003D1012787401F4027612260471CB8B2E5
:100220000828DED3082022E0012787401F40E7B1DD
:100230006268A0F108074FEA870C0F2707FA0CF74E
:10024000BA43A0F10807BF0005FA07F73A43282987
:1002500004D1012787401F40676105E0482903D189
:10026000012787401F4027616260471CB8B21028F1
:10027000DAD3F0BD02469068084008B1012070470B
:100280000020FCE740F2026000F030F84FF4807389
:10029000022210211348FFF78FFF22E001221102F2
:1002A0001048FFF784FF1048FFF76CFF00224FF45F
:1002B00080710C48FFF77BFF0B48FFF763FF04E0FA
:1002C000012211020748FFF772FF01210548FFF7DD
:1002D000D1FF0028F4D000224FF480710148FFF7CD
:1002E00066FFDBE70008014040420F00064A02EBD0
:1002F0009011096800F01F0301229A401143024B3C
:1003000003EB901211607047001002401C030008BC
:0C0310000000002000040000A001000814
:0400000508000131BD
:00000001FF
