:020000040800F2
:10000000D039002049010008E9140008CD1100088A
:1000100039140008EB0B0008091D0008000000005F
:10002000000000000000000000000000111800089F
:10003000A30C000800000000F31400089D1800083D
:100040006301000863010008630100086301000800
:1000500063010008630100086301000863010008F0
:1000600063010008630100086301000863010008E0
:1000700063010008630100086301000863010008D0
:1000800063010008630100086301000863010008C0
:1000900063010008630100086301000863010008B0
:1000A00063010008630100086301000863010008A0
:1000B0006301000863010008D91900086301000802
:1000C0006301000863010008630100086301000880
:1000D00063010008391C0008751C00086301000852
:1000E0006301000863010008630100086301000860
:1000F0006301000863010008630100086301000850
:100100006301000863010008011A00086301000888
:10011000630100086301000863010008630100082F
:10012000630100086301000863010008630100081F
:10013000DFF810D000F008FC00480047ED5600083A
:10014000AFF30080D03900200648804706480047BA
:10015000FEE7FEE7FEE7FEE7FEE7FEE7FEE7FEE777
:10016000FEE7FEE7CD180008310100082DE9F05F39
:100170000546002092469B46884606468146402416
:100180001BE0284641464746224600F010FB5346F6
:100190005A46C01A914110D311461846224600F023
:1001A000F7FA2D1A67EB01084F462246012000217D
:1001B00000F0EEFA17EB00094E41201EA4F10104F5
:1001C000DFDC484631462A464346BDE8F09F2DE92C
:1001D000FE43994615468846074601AC022942D39C
:1001E000002D40D000200290A8F101004FF0FF3612
:1001F000009022E000FB057201FB057011464A46A3
:100200009047002805DC54F82600304444F82600C6
:1002100013E060682A4600FB057154F8040C00FBEB
:10022000057007E00B7890F800C001F801CB00F8EA
:10023000013B521E002AF5D1764254F8040C616845
:100240008842D7DC4B462A463846FFF7C0FF54F8B1
:10025000040C4B46A8EB0001401C00FB05702A462D
:10026000491EFFF7B4FFBDE8FE83000038B5D0E9B2
:100270000221491E01EB410102EBC1014268C1EBC1
:10028000011102EB81010268C1EB011102EB810255
:10029000D0E9043101EB410103EB81013023A1F5E9
:1002A000527191FBF3F4174D6C4302EBC41291FBB6
:1002B000F3F403FB141100921A2902DB124B1A44C7
:1002C00000920C2291FBF2F3104C6343009C04EB70
:1002D000C313009391FBF2F302FB13110C4A08E0E5
:1002E000491E40F2A324535C6343009C04EBC313F8
:1002F00000930029F4DC0146684600F081FA00987A
:1003000038BD00003F0C0F008051010067C20300A0
:10031000D277000840EA01039B0703D009E008C92F
:10032000121F08C0042AFAD203E011F8013B00F8BA
:10033000013B521EF9D27047D2B201E000F8012B06
:10034000491EFBD270470022F6E710B513460A4655
:1003500004461946FFF7F0FF204610BDCAB2401E02
:1003600010F8011F8A4202D00029F9D100207047FD
:10037000421C10F8011B0029FBD1801A704730B5D0
:1003800004460020034600E05B1C934203D2E05C7D
:10039000CD5C401BF8D030BD2DE9FE4F804681EA90
:1003A0000300C00F0C46009021F0004123F00045EF
:1003B000B8EB0200A94105D24046214690461C46B2
:1003C0000B46024623F00040104347D0270DC7F3E9
:1003D0000A00C3F30A510290401A019040286BDAD8
:1003E000C3F3130040F4801B0098924620B1002311
:1003F000D2EB030A63EB0B0B01985946C0F14002A4
:10040000504600F0C5F906460D4650465946019A39
:1004100000F0DDF910EB08006141002487EA115279
:1004200084EAE7731A4340D0009A62B3019A012A22
:100430004FEA075215DC001B61EB02014FF000424E
:1004400002EA0752CDE90042001C41F58011324614
:100450002B4600F02AFA03B0BDE8F08F4046214653
:10046000F9E7001B61EB0201001C41F58013001845
:100470005B412018A2F5001747EB030140EAD57055
:10048000B6196D4111E06D084FEA360645EAC075B0
:100490004FEA0752001B61EB0201001C41F580117D
:1004A00049084FEA30000019514132462B4603B04B
:1004B000BDE8F04F00F0EAB90098012240000023A7
:1004C000D0EB020263EBE073009821464FEAE07440
:1004D000B8EB000061EB0401E9E783F000435BE760
:1004E00081F0004158E72DE9FE4F81EA030404F052
:1004F000004421F0004100944FF0000B23F0004332
:1005000050EA01045ED052EA03045BD0C3F30A54FC
:10051000C1F30A552C44A4F2F3340194A0FB025415
:10052000C1F3130141F48011C3F3130343F48013A7
:1005300001FB024400FB034E840A970A44EA8154FB
:1005400047EA8357A4FB076802958D0A05FB0785D8
:100550004FEA932C04FB0C542705029D4FEA0658E2
:1005600047EA1637B5EB08056EEB070C870E920EBF
:1005700047EA811742EA8312A7FB0201B6EB0B019F
:1005800064EB00042B0D43EA0C335E1844EB1C5063
:10059000DA465146E7FB0201C5F313044FEA0B3379
:1005A00043EA14534FEA0432019C43EA0603A4F1E0
:1005B0000C040294009CCDE900B400F076F903B07D
:1005C000BDE8F08F00200146F9E72DE9F04D81EA02
:1005D000030404F0004B21F0004514464FF0000ADC
:1005E00023F0004150EA050220D054EA01021DD058
:1005F000C5F30A570246C5F31303C1F31300C1F351
:100600000A5640F4801543F48013A7EB0608101B2C
:10061000D64608F2FD3873EB050002D308F1010855
:1006200001E092185B41B8F1000F03DA00200146A7
:10063000BDE8F08D00204FF48011064684460EE0A0
:10064000171B73EB050705D3121B63EB050306436A
:100650004CEA010C49084FEA300092185B4150EA1D
:100660000107EDD152EA030012D082EA040083EAC6
:100670000501084305D0101BAB4106D2012200231F
:1006800006E000224FF0004302E06FF00102531039
:100690001AEB06004CEB085110EB0A0041EB0B0182
:1006A000BDE8F04D00F0F2B80EB5C10F80EAE07081
:1006B0000844CA07002140F233438DE80E000A4681
:1006C0000B4600F0F2F803B000BD70B5C1F30A525A
:1006D00001F000450024C1F3130140F2FF3341F45F
:1006E00080119A4201DA002070BD40F233439A42F1
:1006F000A2F2334203DC524200F059F800E090408D
:100700002C43F1D0404270BD00F0004230F0004078
:100710000AD0C10D01F56071C0F3160042EA015123
:10072000C20840071143704700200146704700008F
:1007300030B5041E71F1000404DB4FF00044404268
:1007400064EB0101141E73F1000405DB1C464FF03D
:100750000043524263EB04038B4208BF824230BD28
:1007600030B5041E71F1000404DB4FF00044404238
:1007700064EB0101141E73F1000405DB1C464FF00D
:100780000043524263EB0403994208BF904230BDDC
:10079000202A04DB203A00FA02F100207047914041
:1007A000C2F1200320FA03F3194390407047202A36
:1007B00004DB203A21FA02F00021704721FA02F30B
:1007C000D040C2F120029140084319467047202AC8
:1007D00006DBCB17203A41FA02F043EAE07306E069
:1007E00041FA02F3D040C2F1200291400843194679
:1007F00070470000014900F003B80000A425002064
:1008000010B500683C22B0FBF2F302FB1303B0FB0F
:10081000F2F00B60B0FBF2F302FB1303B0FBF2F05B
:1008200018224B60B0FBF2F302FB1303B0FBF2F0B3
:10083000021D8B600723B2FBF3F403FB142280003C
:1008400040F2B55300F66C308A61B0FBF3F2B0FBB6
:10085000F3F403FB1400443280084A61C8613B286A
:1008600002D3920700D0401C0022074C13460A61B5
:10087000E25C824203D8801A5B1C0B61F8E7401CE3
:10088000C860084610BD0000DE77000810B5141ED1
:1008900073F1000408DA401C41F1000192185B4139
:1008A0001A4301D120F0010010BD2DE9F04D924610
:1008B0009B4611B1B1FA81F202E0B0FA80F2203227
:1008C0009046FFF765FF04460F4640EA0A0041EAFA
:1008D0000B0153465A46084313D0114653EA010010
:1008E00019D0C8F140025046FFF761FF05460E4699
:1008F000504659464246FFF74BFF084305D00120BA
:1009000004E020463946BDE8F08D0020054346EA64
:10091000E0762C4337430A986305E40AA0EB08000D
:100920000022FD0A44EA47540A3002D5002001465D
:10093000E9E7010510196941DDE908450019694138
:10094000BDE8F04DA2E70000064C074D06E0E06868
:1009500040F0010394E8070098471034AC42F6D306
:10096000FFF7EAFB507800087078000870B58C1823
:1009700010F8015B15F0070301D110F8013B2A11B3
:1009800006D110F8012B03E010F8016B01F8016BA0
:100990005B1EF9D12B0705D40023521E0DD401F89C
:1009A000013BFAE710F8013BCB1A921C03E013F865
:1009B000015B01F8015B521EF9D5A142D8D300209A
:1009C00070BD000010B501210B4804F09AFDC0F184
:1009D0000100C4B222460121074804F027FD02218C
:1009E000054804F08EFDC0F10100C4B22246022188
:1009F000014804F01BFD10BD000C014010B540F291
:100A0000096005F0EBFB022005F048FA002001F038
:100A100087FD012202211A4801F01DFE002118481D
:100A200001F02BFD01221146154801F003FD0723BB
:100A30000D220021124801F0A5FD4FF46022012192
:100A40000F4801F04DFD012211460D4801F029FD2E
:100A50000C23802200210A4801F070FD084801F0B3
:100A60008AFD074801F014FD322000F039F90448EE
:100A700001F0CBFC0121024801F0DEFD10BD0000B9
:100A80000024014010B540F20A6005F0A7FB0220E7
:100A900005F004FA002001F043FD00220221134872
:100AA00001F0D9FD0021114801F0E7FC01221146B7
:100AB0000E4801F0BFFC06230E2200210B4801F076
:100AC00061FD4FF460220121084801F009FD012277
:100AD0001146064801F0E5FC044801F0D9FC32203B
:100AE00000F0FEF8014801F090FC10BD0028014024
:100AF0002DE9F04105460E4632461221284600F007
:100B00005CF8044614B90A20BDE8F08135F81410E9
:100B1000601E35F81000091A601E35F81000301AF2
:100B200000EB800090FBF1F1601E00EB80000A30CA
:100B30000844C7B23846E7E770B505462A4664213F
:100B40000F4800F0E3F804460CB9002070BD601EA9
:100B50000B4931F8100031F81410411A601E084A90
:100B600032F81000401B00EB8000400090FBF1F1D8
:100B7000601E00EB800001EB400086B23046E5E7E6
:100B80003675000810B5044800F0B8FF00F056FCB8
:100B900000F03CF910BD0000951A000810B502469F
:100BA0000023002003E032F810402344401C884218
:100BB000F9D3B3FBF1F080B210BDF0B504460B469B
:100BC000154600225E1E581E0CE0B71A07EBD77CB4
:100BD00002EB6C0134F81170AF4202DB4E1E084686
:100BE00000E04A1CB242F0DDF0BD00BFFEE70000AD
:100BF0002DE9F04106460C46052094FBF0F0C5B205
:100C0000052094FBF0F100FB114050B905EBC50045
:100C1000194A02EB800124223046FFF77BFBBDE836
:100C2000F081002024E0052194FBF1F201FB124148
:100C30006A1C02EBC202104B03EB820232F8102056
:100C400005EBC5030C4F07EB830333F81030D21AC2
:100C50005143052291FBF2F105EBC5023B4603EB44
:100C6000820232F81020114426F81010411CC8B23C
:100C70001228D8DB00BFD2E7FE75000870B5024627
:100C800013460C4600201D882688B54201DD401E13
:100C900006E01D882688B54201DA012000E0002028
:100CA00070BD70470C48006820F080700A490860E9
:100CB0000846006840F0807008600848006820F02E
:100CC0000100064908600846006840F0010008601D
:100CD0000020486070470000FCED00E0001000E0DC
:100CE00070B5044607484568012005F021F906491A
:100CF000B0FBF1F0444300BF02484068401BA042F3
:100D0000FAD370BD001000E040420F00F0B5044679
:100D10000B46154600225E1E581E0CE0B71A07EB64
:100D2000D77C02EB6C0134F81170AF4202DC4E1E2E
:100D3000084600E04A1CB242F0DDF0BD10B5FFF7F6
:100D4000B1FF00F03BFB00F095FA00F0DFFF00F090
:100D5000D9FC00F05EFD00F005F800F0C6FB00F0E5
:100D600009FE10BD10B500F0C7F910BD10B500F0B8
:100D70003FFD062000F01AFD00F042FD10BD2DE9F8
:100D8000F04105460C460CB9BDE8F081EEB2C6F55F
:100D90008050A0421CD2284600F01FF8C6F58050B3
:100DA0000544C6F58050241AC4F3073704E02846EA
:100DB00000F013F805F58055381EA7F10101CFB2F8
:100DC000F5D1C4F30B0030B1284600F006F802E07C
:100DD000284600F002F800BFD6E710B50446FFF73A
:100DE000C5FF00F005FD202000F0E0FCC4F3074043
:100DF00000F0DCFCC4F3072000F0D8FCE0B200F007
:100E0000D5FC00F0FDFC00F0CBFF10BD10B5ADF53A
:100E1000805D012215A1164803F080F904460D2CCF
:100E200013D14FF480536A46002110A002F000FE57
:100E3000044654B901220DA1002003F06FF90122EC
:100E40000AA10B4803F06AF904464CB1214609A0F7
:100E500001F040F80020104908700DF5805D10BDCC
:100E600001200D49087000BFF7E70000303A00008C
:100E7000EC010020CEC4BCFECFB5CDB3B3F5CABCE7
:100E8000BBAFCAA7B0DCA3ACB4EDCEF3C2EBA3BA40
:100E900025642E0A000000003000002010B52DED62
:100EA000028B8CB02248007818B90CB0BDEC028BD4
:100EB00010BD32221FA1254803F060F904462CB171
:100EC00022461CA122A001F005F8EEE70AA800F0D6
:100ED000ACF808A800F0C4F89DED080A10EE101A4E
:100EE0000846FFF711FC41EC180B9DF82400069012
:100EF0008DED048B9DF82E009DF82D109DF82C2073
:100F00009DF82B30CDE90032CDE902109DF82A3052
:100F1000BDF8282015A10D4803F032FA002802DAA6
:100F200020A000F0D7FF094802F048FD00BFBCE751
:100F300030000020303ACEC2B6C8B4ABB8D0C6F745
:100F4000BCC7C2BC2E7478740000000024120020BC
:100F5000B4F2BFAA2573CAA7B0DCA3ACB4EDCEF33C
:100F6000C2EBA3BA25642E0A0000000025642D25DB
:100F70003032642D252D326420252D32643A2530FF
:100F800032643A253032642C2074656D70206973A8
:100F900020252E31662C2068756D69206973202507
:100FA000640A0000D0B4C8EBCAFDBEDDCAA7B0DC3D
:100FB0000A00000010B500BF0221044801F0A8FAA1
:100FC0000028F9D0014801F033FB10BD0024014096
:100FD00010B50121064801F02FFB00BF0221044893
:100FE00001F096FA0028F9D0014801F021FB10BD6C
:100FF000002801400348007800EE100AB8EE400ACD
:10100000704700009601002070B50025002407E01D
:10101000204600F04FF9054605B103E0601CC4B25C
:10102000032CF5D300BF284670BD38B5044605F043
:1010300073F900F5E14000906846FFF7DBFB0546D9
:10104000A88A00F26C702080287C401CA070287B4D
:10105000E070287A2071287960712878A07138BDF5
:1010600010B5044600F010F884ED000AFFF7C2FF47
:10107000BCEEC00A10EE100A207110BD01490868CC
:1010800049687047A0010020014890ED000A7047B0
:101090008C01002010B540F2046005F09FF8082391
:1010A00001220021014804F0C6F910BD00100140E2
:1010B00010B540F2046005F091F8102304220021DD
:1010C0000B4804F0B8F940F2036005F087F80323F9
:1010D0001A461021074804F0AEF9012211460548CE
:1010E00004F0A4F900220221024804F09FF910BD87
:1010F00000100140000C014010B540F2036005F003
:101100006DF8C02301221421014804F094F910BDA8
:10111000000C014000B587B040F2066005F05EF8B3
:101120000423032210211B4804F085F904211948E7
:1011300004F07AF940F2036005F050F840F20E70C6
:1011400005F04CF84FF4204303221821124804F014
:1011500072F94FF48043032248210F4804F06BF9E1
:10116000684605F049F9002001904FF48270009024
:101170000020029005904FF400700390002006902C
:1011800004906946054805F01EF9044805F008F981
:1011900007B000BD00180140000C014000380040BD
:1011A00010B50949C88805F019F80749CB6801222C
:1011B0008868182104F03FF903490B690122886807
:1011C000482104F038F910BDCC01002000BFFEE733
:1011D00010B5FFF719FF0446812C12D006DC012C54
:1011E00009D0022C11D0032C1FD116E0822C10D074
:1011F000832C1AD115E0002000F008FD00F07AF9E8
:1012000014E0002000F0ECFC10E0012000F0FEFCF7
:101210000CE0012000F0E4FC08E0022000F0F6FC05
:1012200004E0022000F0DCFC00E000BF00BF10BDC5
:1012300010B5FFF73DFFFFF725FC4FF47A7000F083
:10124000ABFC10BD10B58AB004463C2C00DD052473
:10125000214601A8FFF7CCFC0448018801A8FFF74C
:1012600047FC034908700AB010BD0000940100203B
:101270009601002010B5002417E004EB44010C4A4D
:1012800032F8210004F0AAFF04EB4401084A02EB03
:1012900081018B6804EB440102EB81010222486862
:1012A000042104F0C8F8601CC4B2032CE5D310BDBF
:1012B000440100202DE9F041044604EB44023D4B7B
:1012C00003EB8202916804EB440203EB8202506854
:1012D00004F00FF90746384800EB0410007830B1ED
:1012E000012812D002282ED0032859D14DE05FB931
:1012F0000120314901EB04110870FFF7BFFE2E4AAF
:1013000002EB0412C2E9020150E0B7B9FFF7B6FEE2
:1013100005460E46284800EB0410D0E90232EB1ACD
:1013200066EB02010020D3F10A0288410AD20220B2
:10133000214901EB0411087004E000201E4901EB73
:101340000411087032E047B100201B4901EB041181
:101350000870601CC0B2BDE8F081FFF78FFE054643
:101360000E46154800EB0410D0E9023CEA1A66EB81
:101370000C014FF47A7300209A1A884104D203209A
:101380000D4901EB0411087010E047B100200A4933
:1013900001EB0411087004F18100C0B2DBE705E045
:1013A0000020054901EB0411087000BF00BF0020B8
:1013B000D1E70000440100206025002010B5002482
:1013C00024E004EB4401134A32F8210004F006FF44
:1013D00004EB44010F4A02EB81018B6804EB4401EA
:1013E00002EB810102224868102104F024F804EB8A
:1013F0004402084B03EB8202916804EB440203EBC6
:101400008202506804F00EF8601CC4B2032CD8D3DA
:1014100010BD00006801002070B504460D46054B64
:10142000022229462046FEF7D2FEA91EA01CFFF785
:10143000B5FB70BD7D0C000800BFFEE71FB5044B77
:101440000FCB8DE80F00684600F038F81FBD000094
:10145000AC6E00081CB504466846FFF701FE9DF817
:10146000040000EB8000400020801CBD1CB5044639
:101470006846FFF7F5FD9DED000AF2EE040A20EE46
:10148000200ABCEEC00A10EE100A20801CBD10B568
:1014900004461CB9002000F0A3FB02E0002000F08D
:1014A000B5FB10BD10B504461CB9012000F098FB37
:1014B00002E0012000F0AAFB10BD000038B5044690
:1014C0000020009021780246636802F06DF801F078
:1014D000BFFF0248D4E9021206C038BD380100201F
:1014E00010B502F0D1F810BD704710B500F054F9F6
:1014F00010BD704710B58EB01548007808B90EB011
:1015000010BD012213A1194802F038FE04462CB187
:10151000224610A116A000F0DDFCF0E7342101A85E
:10152000FEF711FF07E001A918A000F0D3FC342159
:1015300001A8FEF708FF0D4A322101A802F04FFA78
:101540000028F0D103A003F03AFA00BFD7E700006B
:1015500030000020303ACEC2B6C8B4ABB8D0C6F71F
:10156000BCC7C2BC2E747874000000002412002096
:10157000B4F2BFAA2573CAA7B0DCA3ACB4EDCEF316
:10158000C2EBA3BA25642E0A0000000025730000F8
:1015900070B504460D461646FFF7E8FB00F028F943
:1015A000022000F003F9C4F3074000F0FFF8C4F391
:1015B000072000F0FBF8E0B200F0F8F803E028782C
:1015C00000F0F4F86D1C301EA6F10106F7D100F012
:1015D00017F900F0E5FB70BD09490A4A128821F8A5
:1015E000120008490988491C064A118011460988D9
:1015F0000A2291FBF2F302FB1311024A1180704799
:1016000090250020900100202DE9F04104460E466F
:10161000174600F0EDF8032000F0C8F8C4F30740C7
:1016200000F0C4F8C4F3072000F0C0F8E0B200F006
:10163000BDF8002504E0FF2000F0B8F870556D1CDF
:10164000BD42F8D300F0DCF8BDE8F08170B5054686
:101650000C4600F0CDF89F2000F0A8F8FF2000F025
:10166000A5F82870FF2000F0A1F800022080FF20DC
:1016700000F09CF821880843208000F0C1F870BD7C
:101680002DE9F04780468946154615B90220BDE888
:10169000F08700242FE00026002726E0184800EB02
:1016A0000710408808EB0401884200D01CE0144871
:1016B00000EB0716307800F0010008B90220E6E7D9
:1016C000B06880B1022202FB0450B168884715F867
:1016D00014A06000401C285C05F814006000401C49
:1016E00005F800A000BF00BF7F1C042FD6D30EB9A1
:1016F0000120CCE7641C4C45CDD30020C7E7000097
:101700003400002010B5012000F0D8FF45F65A2122
:1017100088422ED040F21C7004F060FD40F21B7035
:1017200004F05CFD04F03CFA00F0C2FF4FF40060EE
:1017300004F0BCFC4FF4006004F0C8FC4FF480706F
:1017400004F07CFD40F60F0004F048FD04F018FEA4
:1017500004F0FCFD47F6FF7004F002FE04F0F6FD15
:101760000C4804F0E3FD45F65A21012000F0C2FFC9
:1017700010BD40F21C7004F031FD40F21B7004F00B
:101780002DFD04F00DFA04F0FBFD04F0DFFD00BFB9
:10179000EEE70000F624FE6310B5FFF7BBFC042162
:1017A000014803F041FE10BD0018014070B5054628
:1017B00000BF02210C4804F0FEFD0028F9D02946A4
:1017C000094804F0F6FD094C02E0641E04B905E086
:1017D0000121054804F0EFFD0028F6D000BF0248C3
:1017E00004F0E3FDC0B270BD00380040A0860100E7
:1017F00010B50421014803F015FE10BD001801408A
:1018000010B50421014803F00FFE10BD001801407F
:10181000704710B500F078F9FFF70AFD10BD10B55C
:1018200000F078F9FFF730FCBCEEC00A10EE100AA9
:10183000C4B22046FFF706FD10BD10B5FFF7EFFF5D
:1018400010BD30B58BB004462088A0F26C700590B6
:10185000A078401E0490E07803902079029060798F
:101860000190A07900906846FEF700FDA0F5E145E3
:1018700004F06CFD284604F059FD0BB030BD0000AB
:1018800010B540F2046004F0A9FC202303221021CB
:10189000014803F0D0FD10BD0010014010B509480B
:1018A00002684068521C40F1000006490A60486026
:1018B0000548006800B910BD03480068804700BFB4
:1018C000F9E70000A0010020A801002008B5264883
:1018D000006840F47000244908602448006840F023
:1018E00001002249086000BF2048006800F00200A3
:1018F0000028F9D000BF1D48406840F080001B4917
:1019000048600020009002E00098401C0090009881
:101910005028F9D31548406840F0900013494860BA
:101920000020009002E00098401C00900098502891
:10193000F9D300BF0D48406820F003000B49486010
:10194000084600680A490840084908604FF41F002B
:1019500088600846006820F4802008600020486005
:10196000C86204F07DFE08BD88ED00E00010024072
:10197000FFFFF6FE70B5012004F0DAFA4FF47A7139
:10198000B0FBF1F4601EB0F1807F01D301201BE0B9
:10199000601E4FF0E021486148170F21002807DA48
:1019A0000A07150E0A4A00F00F031B1FD55403E067
:1019B0000A07130E074A135400BF00204FF0E0211E
:1019C000886107200861002008B100BFFEE770BDF4
:1019D00018ED00E000E400E010B50121074804F034
:1019E0003AFF012809D10121044804F031FF002108
:1019F000024804F05FFE04F0EFF810BD000800405C
:101A000010B50121124804F026FF01281FD1012141
:101A10000F4804F01DFF0F480088401C0D49088046
:101A2000088800EBD0714910A0EB410109B9FEF71D
:101A3000C9FF084800884FF4C87190FBF1F201FB20
:101A40001200012803D1FFF7C3FA0349088010BD33
:101A5000000C0040980100209401002010B50024E3
:101A600013E004EB44000A4911F8200058B10020AB
:101A700004EB4401064A02F8210004EB440102EBA6
:101A8000810188688047601CC4B2042CE9D310BD72
:101A90000000002000202BE000EB4001164A02EB82
:101AA0008101498811B300EB400102EB81014988B3
:101AB000491E00EB4002104B03EB8202518000EB09
:101AC00040011A4602EB8101498879B9012100EBF6
:101AD000400203F8221000EB40011A4602EB81019C
:101AE000898800EB400203EB82025180411CC8B29E
:101AF0000428D1D37047000000000020014908608D
:101B000070470000A801002010B5FFF7C3FAFEF7E8
:101B100075FF10BD70B5FFF74DFA04462046FFF77C
:101B20000BF805462846FFF757FD18480088401C6B
:101B3000164908800846008803280DDA14480088F2
:101B400000EE100AB8EE400AF2EE040A80EE201A07
:101B5000104880ED001A70BD0C4800880A2802DD8C
:101B60000A200A490880094801880948FFF754FCFF
:101B700000EE100AB8EE400AF2EE040A80EE201AD7
:101B8000044880ED001A00BFE5E700009201002044
:101B9000902500208C0100201FB5044640F2037000
:101BA00004F01CFB0D4804F087FD684604F05FFE5E
:101BB0007720ADF80000601E02906946074804F0E7
:101BC000F3FD0121054804F03FFE002211463220BA
:101BD00003F034FF014804F0E2FD1FBD000C00409B
:101BE00010B50446032C00D310BD04EB4402064B91
:101BF00003EB8202916804EB440203EB820250681B
:101C000003F010FC00BFEFE76801002010B50446A8
:101C1000032C00D310BD04EB4402064B03EB8202FD
:101C2000916804EB440203EB8202506803F0FCFB72
:101C300000BFEFE76801002010B50B4908680B49A9
:101C400004F00DFF70B108490868084904F0FEFE71
:101C50000549086804F07AFEC4B2204604490968C0
:101C6000884700BF10BD0000AC010020050305003F
:101C7000C401002010B50D4908680D4904F0EFFEBD
:101C800030B103F0B1FF094908680A4904F0DEFEEB
:101C900006490868084904F0E2FE30B103F0ACFFE1
:101CA00002490868044904F0D1FE10BDCC010020AF
:101CB00005030500050303000603060010B50446EE
:101CC0001049888804F08AFA0E49086804F048FE32
:101CD0000C490868214604F0F1FD0A49086808210A
:101CE00004F0E3FE07490868042104F0D4FE054926
:101CF000087D0022114603F0A1FE0249086804F0A5
:101D000077FE10BDCC01002000BFFEE710B500F04B
:101D100005F84FF4E13000F017F810BD10B509498F
:101D2000C88804F05BFA0749CB680122886818214B
:101D300003F081FB03490B6901228868482103F005
:101D40007AFB10BDAC01002010B504461349888809
:101D500004F044FA1149086804F002FE0F490868CB
:101D6000214604F0ABFD0D490868082104F09DFEF2
:101D70000A490868042104F08EFE0849086840F208
:101D8000053104F056FE0549087D0022114603F096
:101D900055FE0249086804F02BFE10BDAC0100207E
:101DA00010B50A4CFFF724FD0520FFF7FFFC02E009
:101DB000641E04B906E0FF20FFF7F8FC00F0010004
:101DC0000028F5D100BFFFF71BFD10BDA086010064
:101DD0002DE9F04106460F461446F5B2C5F5807070
:101DE000A0422AD2C5F5807239463046FFF7D0FBB3
:101DF000C5F580700644C5F580700744C5F5807050
:101E0000241AC4F307280BE04FF480723946304699
:101E1000FFF7BEFB06F5807607F58077A4F58074A2
:101E2000B8F10000A8F1010101F0FF08ECD1224651
:101E300039463046FFF7ACFB04E0224639463046CF
:101E4000FFF7A6FBBDE8F0812DE9F04781468A4601
:101E5000164616B90220BDE8F087002534E00024BC
:101E600000272BE01A4800EB0710408809EB05011A
:101E7000884200D021E0164800EB0714207800F0DB
:101E8000020008B90220E6E716F815004FF47F417A
:101E900001EA00206900491C715C40EA0108A08841
:101EA000404502DCE088404501DA0220D3E7E068E3
:101EB00010B14046E168884700BF7F1C042FD1D392
:101EC0000CB90120C7E76D1C5545C8D30020C2E7F7
:101ED000340000200FB4054B10B503A9044A029842
:101EE00000F066F810BC5DF814FB0000C94E000855
:101EF000E80100200EB507460E46144619491AA0FF
:101F000002F0F6FF1749384602F0F2FF15491CA00F
:101F100002F0EEFF1349304602F0EAFF11491AA021
:101F200002F0E6FF03AD0021681E054601700A219C
:101F3000681E054601700CE00A2094FBF0F100FBDE
:101F400011403030C1B2681E054601700A2094FB72
:101F5000F0F4002CF0DC0349284602F0C9FF00F041
:101F600052FA0000E40100202A2A2A2061737365D6
:101F70007274696F6E206661696C65643A20000056
:101F80002C2066696C6520002C206C696E65200031
:101F900002E008C8121F08C1002AFAD17047704732
:101FA000002001E001C1121F002AFBD17047000090
:101FB0002DE9FF4F8DB00F460546002606E0252887
:101FC0000BD0DDE90F1290476D1C761C2878002895
:101FD000F5D111B03046BDE8F08F0024A246A146ED
:101FE0000122E94900E0044315F8013F203B02FAD1
:101FF00003F00842F7D128782A2810D06FF02F027A
:102000002878A0F13001092914D80AEB8A0102EBE3
:10201000410144F0020400EB010A6D1CF0E701CF1E
:102020005FEA000A03D544F40054CAF1000A44F000
:1020300002046D1C28782E2817D115F8010F44F0E2
:1020400004042A280ED06FF02F022878A0F1300166
:1020500009290AD809EB890102EB410100EB0109CA
:102060006D1CF2E757F8049B6D1C28786C280FD084
:1020700006DC4C2817D068280DD06A2814D104E05B
:10208000742810D07A280FD10DE044F400140AE02F
:1020900044F4801401E044F440146978814202D190
:1020A00004F580146D1C6D1C28786E281ED00CDC85
:1020B000632830D004DC00288BD0582811D19FE051
:1020C000642867D069280CD164E073282DD004DC23
:1020D0006F2872D0702804D194E075286ED07828CB
:1020E0006DD0DDE90F129047761C4BE1C4F302502E
:1020F000022806D0032809D0042801CF09D00660A1
:1021000040E101CFF117C0E900613BE101CF06805A
:1021100038E1067036E117F8040B8DF80000002056
:102120008DF80100EB46012003E057F804BB4FF0A7
:10213000FF3061074FF0000102D40DE008F101010A
:10214000884649450FDA8045F8DB1BF8081000295E
:10215000F4D108E008F1010188468142FADB1BF85E
:1021600008100029F6D1DDE90F23AAEB080081460B
:10217000214600F031F9304400EB080604E0DDE9C7
:102180000F121BF8010B9047B8F10108F7D2214656
:102190004846F2E00A21C4F302524FF0000B0891C6
:1021A000022A04D001CFC117032A09D00AE0FF1D7B
:1021B00027F00707F7E8020108E02CE01EE01FE027
:1021C00000B2C117042A01D140B2C117021E71F139
:1021D000000206DA0023D0EB030063EB01012D229D
:1021E00002E0220504D52B228DF82420012203E0F1
:1021F000E20701D02022F7E7904653E00A210BE0E6
:10220000102109E010214FF0000B44F004044FF0BE
:102210000809089103E008214FF0000B0891C4F36E
:102220000252022A04D001CF0021032A06D006E080
:10223000FF1D27F00707F7E8020103E080B2042A38
:1022400000D1C0B24FF0000822072BD52A78702A9F
:1022500007D0DDF820C08CF0100C5CEA0B0C05D028
:102260000EE040228DF82420012208E050EA01030C
:1022700006D030238DF824308DF825200222904698
:10228000089B83F0080353EA0B030BD150EA0102C9
:1022900001D1620706D530228DF824204FF00108C5
:1022A000A9F101092A78582A04D038A20B9208AA69
:1022B0000A920BE03AA2F9E75B46089AFDF756FF4F
:1022C0000B9B9B5C0A9A521E0A92137050EA010201
:1022D000F2D10A98ADEB000000F1200B600702D5A7
:1022E00024F4803401E04FF00109D94502DDA9EB67
:1022F0000B0000E0002000EB0B0141440890AAEB2A
:10230000010AE00306D4DDE90F232146504600F020
:1023100063F806444FF0000908E009A911F8090024
:10232000DDE90F12904709F10109761CC145F4DB84
:10233000E0030CD5DDE90F232146504600F04CF8B0
:10234000064404E0DDE90F1230209047761C08991E
:10235000481E08900029F5DC08E00A980A990078E0
:10236000491C0A91DDE90F129047761CBBF1000170
:10237000ABF1010BF1DC21465046DDE90F2300F003
:1023800019F806446D1C21E609280100303132336A
:1023900034353637383961626364656600000000A1
:1023A000303132333435363738394142434445468B
:1023B000000000002DE9F041044600251E461746A6
:1023C000880404D405E039462020B0476D1C641E03
:1023D000F9D52846BDE8F0812DE9F04104460025F5
:1023E0001E469046C80301D5302700E02027880408
:1023F00004D505E041463846B0476D1C641EF9D54A
:102400002846BDE8F08100BFFEE7816841F0080181
:10241000816000BF816801F008010029FAD181685C
:1024200041F00401816000BF816801F004010029CE
:10243000FAD1704730B5012902D002291AD10CE037
:10244000C36A23F47003C362C36A541E4FF4700559
:1024500005EA04542343C3620DE0836B23F4401365
:102460008363836B541E4FF4401505EA04542343E1
:10247000836300E000BF00BF30BD21B1826842F439
:102480000062826003E0826822F40062826070472A
:10249000816801F0010119B9816841F00101816091
:1024A000704772B101F001031BB1836843F48013DC
:1024B000836001F0020393B1836843F400438360B7
:1024C0000DE001F001031BB1836823F480138360E6
:1024D00001F002031BB1836823F40043836070475B
:1024E000012902D0022910D107E0836823F4602378
:1024F000836083681343836008E0836823F4E043C8
:10250000836083681343836000E000BF00BF7047AF
:102510000246002013680B4003B101207047000001
:102520000549096821F47021034A116011460968C0
:1025300001431160704700000424014030B5B1F53B
:10254000007F06D1D0F8804044F40074C0F8804089
:1025500005E0D0F8804024F40074C0F8804050F8C2
:10256000804F24F4FE740460046842EA03052C439F
:1025700040F8804930BDD0F8801041F00101C0F82A
:1025800080107047F0B51D4606290CD2436B01EB55
:1025900081071F26BE40B34301EB810602FA06F60F
:1025A0003343436322E00C290ED2036B8E1F06EBEC
:1025B00086071F26BE40B3438E1F06EB860602FA2F
:1025C00006F63343036311E010290FD2C36AA1F169
:1025D0000C0606EB86071F26BE40B343A1F10C068E
:1025E00006EB860602FA06F63343C3620A2A0CD2C9
:1025F000046902EB42070726BE40B44302EB4206E1
:1026000005FA06F63443046111E0122A0FD2C468B9
:10261000A2F10A0606EB46070726BE40B443A2F124
:102620000A0606EB460605FA06F63443C460F0BD1A
:102630000146C86C80B2704701F001021AB182688D
:1026400042F48002826001F002021AB1826842F410
:10265000001282607047AAB101F480731BB1436815
:1026600043F48073436001F480631BB1436843F417
:102670008063436001F00203CBB1836843F002033F
:10268000836014E001F480731BB1436823F480730A
:10269000436001F480631BB1436823F480634360AB
:1026A00001F002031BB1836823F0020383607047CB
:1026B00010B503F033FC03F027FC10BD01460020E9
:1026C0000B2909DB2A2907DCA1F10B02084B03EBDC
:1026D0008202B2F8400C09E0012907DB0A2905DC77
:1026E0004A1E034B03EB8202B2F8040C7047000051
:1026F000006000400B2809DB2A2807DCA0F10B0250
:10270000084B03EB8202A2F8401C09E0012807DB1A
:102710000A2805DC421E034B03EB8202A2F8041CCC
:1027200070470000006000402DE9F04104468846F3
:1027300000202071401E60634146204603F064F98A
:1027400010B10420BDE8F08104F2362002F0C7FF8A
:10275000074694F83850EB2D03D0E92D01D0E82D31
:1027600043D14AF65520874208D1082223A104F11B
:102770008A00FDF704FE08B90020E3E704F14300F6
:1027800002F0ADFF06464520055D701E304060BB7F
:10279000B6F5007F29DBB6F5805F26DC2DB3681E19
:1027A000284010BB04F1460002F099FFE8B1482030
:1027B000005D401E012818D804F1490002F08FFF87
:1027C00098B104F14B0002F08AFF802806DA04F188
:1027D000580002F078FFB0F5803F06D304F14E00B8
:1027E00002F07DFF08B10020ACE74AF65520874291
:1027F00001D10220A6E70320A4E70000464154339C
:102800003220202000000000F0B503460D461E686F
:10281000986A021DB089B5FBF0F07789B0FBF7F438
:1028200000BF02CA09B90020F0BD8C4200D202E00C
:10283000641A121DF5E700BF10682044F4E7024651
:10284000891ED069801E884201D8002070475389B4
:10285000106B03FB0100F9E72DE9F04780460C46B9
:1028600004F11A0002F03BFF10B10020BDE8F08730
:10287000207800F03F00401E00EB800101EBC00516
:102880004FF00109002621E01849895D081902F07E
:1028900026FF0746B9F1000F11D0FF2D0BD838469F
:1028A00002F02AFA824629466D1C38F8110002F01F
:1028B00023FA824501D00020D8E7B94605E04FF65B
:1028C000FF70874201D00020D0E7761C0D2EDBD3AD
:1028D000207800F0400038B1B9F1000F04D038F88A
:1028E000150008B10020C1E70120BFE7BC70000857
:1028F0002DE9F04782468846DAF80040B8F1000F2B
:1029000006D1676917B1E069B84215D8012713E00D
:102910004146504602F0A8FC0546022D02D2012095
:10292000BDE8F087681C08B92846F9E7E069A842C5
:1029300001D92846F4E74746A06908B90020EFE727
:102940000026474518D17E1CE069B04200D8022617
:102950003146504602F088FC0546012D01D0681C26
:1029600008B92846DCE73DB16569022D03D3E0696B
:10297000A84200D92F460026E6B93E4600BF761C85
:10298000E069B04204D80226BE4201D90020C7E760
:102990003146504602F068FC054605B909E0012DB4
:1029A00001D0681C08B92846BAE7BE42E7D100202A
:1029B000B6E700BF4FF0FF323146204603F024F95E
:1029C0008146B9F1000F08D1B8F1000F05D03246A9
:1029D0004146204603F018F98146B9F1000F0DD1A8
:1029E0006661D4E90610801E814202D8A069401EAB
:1029F000A061607940F00100607107E0B9F1010F5A
:102A000002D14FF0FF3000E001200646304687E754
:102A10002DE9F34F83B08146049800680290D9F8FD
:102A20000000D0F810A0002500BF02A803F01CFE93
:102A300083460BF1010018B9062005B0BDE8F08F00
:102A4000BBF5803F05D34FEA1B4228466D1C2AF890
:102A500010201FFA8BF4202C03DB2F2C01D05C2CD0
:102A600000D111E0802C06DA21467DA0FDF776FC2E
:102A700008B10620E1E7FF2D01D30620DDE7284657
:102A80006D1C2AF81040D0E700BF202C01DA042684
:102A900011E002E00298401C0290029800782F2872
:102AA000F8D0029800785C28F4D0002602980078CC
:102AB000202800D2042602990498016008E0681ECC
:102AC0003AF81040202C02D02E2C00D002E06D1ECF
:102AD000002DF4D100BF00202AF815000DB9062002
:102AE000ABE7002700E07F1C3AF817002028FAD057
:102AF0001FB93AF817002E2801D146F0030600E06E
:102B00006D1E25B1681E3AF810002E28F8D120223B
:102B10000B2109F12000FDF70FFC4FF00008CDF864
:102B200004800820009000BF38467F1C3AF810400F
:102B300004B96AE0202C03D02E2C04D1AF4202D07D
:102B400046F00306F0E7DDE90010884201D2AF420B
:102B500016D100980B2802D146F0030655E0AF428B
:102B600001D046F00306AF4200D94EE02F460820C0
:102B700001900B2000904FEA88604FEA1068D3E77D
:102B8000802C0EDB46F0020640F2B511204602F022
:102B900093F8044604F0800018B104F07F00334934
:102BA0000C5CFF2C11DD0098401E0199884204D86E
:102BB00046F0030600980190B6E722120198411CE6
:102BC000019109F120010A5418E024B1214628A0FE
:102BD000FDF7C4FB18B15F2446F003060EE0412C5C
:102BE00003DB5A2C01DC48F00208612C06DB7A2C4E
:102BF00004DC48F00108A4F1200084B20198411CD3
:102C0000019109F120010C548EE700BF99F82000D2
:102C1000E52802D1052089F820000098082803D172
:102C20004FEA88604FEA106808F00C000C2803D0C7
:102C300008F00300032801D146F0020606F0020066
:102C400048B908F0010008B146F0100608F0040089
:102C500008B146F008062B2000F809600020ECE6D9
:102C60002A3A3C3E7C223F7F00000000C9700008E9
:102C70002B2C3B3D5B5D00002DE9FF4F85B09A4654
:102C800003AA0121059800F0A5FB18B1012009B0A5
:102C9000BDE8F08FDDF80C904FF03F08082701E009
:102CA0007806070E37B1B9FBF7F0B0FBF8F0B0F5D6
:102CB000806FF5D807B9FF274FF480515046FDF7D4
:102CC00042FB0AF5DF764FF0000B444669E00698B8
:102CD00050F82B50642D07D801D1484603E06420FA
:102CE000B9FBF0F0684305466019484501D8601902
:102CF00001D3A9EB040505B959E0214606F1080006
:102D000003F095FB294606F10C0003F090FB0798B1
:102D10003071B4FBF8F0B0FBF7F00490B4FBF8F0BE
:102D2000B0FBF7F107FB1100C0B20290B4FBF8F062
:102D300008FB1040401CC0B2019002987070C02186
:102D4000049801EA900001990843B0700498F0706B
:102D50006019401EB0FBF8F0B0FBF7F0049060196A
:102D6000401EB0FBF8F0B0FBF7F107FB1100C0B25A
:102D700002906019401EB0FBF8F108FB1100401CE6
:102D8000C0B2019002987071C021049801EA9000CD
:102D900001990843B0710498F07110360BF1010BE2
:102DA0002C44BBF1040F02D20CB14C458FD300BFB1
:102DB0004AF655210AF5FF7003F045FB0123002276
:102DC0005146059800F02EFB08B101205FE7002076
:102DD0005DE7014609B1002070470020FCE701468D
:102DE00009B1002070470020FCE72DE9F0410446BE
:102DF0000E46D4F800800021204600F07CFA0546FB
:102E0000EDB9002700BF4046A16902F0FDFD05466F
:102E100005B113E0E0690078E52802D0E0690078A8
:102E200020B9781C0746B04201D107E000270121F4
:102E3000204600F0B7F80546002DE4D000BF042D71
:102E400000D107252846BDE8F0812DE9F04704466A
:102E50008946204603F054FB10B10120BDE8F087FD
:102E600049462046FFF7EBFC064666634FF4805167
:102E700004F13800FDF767FA04F13808012700254E
:102E800000E03D446089A84207D9721960783B464A
:102E9000414600F0C7FA0028F3D06089A84201D06B
:102EA0000120DBE70020D9E72DE9F0470446D4F8FC
:102EB00000A00021204600F01EFA064616B130465A
:102EC000BDE8F0874FF0FF08C1464FF0FF30E062E9
:102ED00000BF5046A16902F097FD064606B15EE0CC
:102EE000E06905780DB9042659E0E069C07A00F080
:102EF0003F07A771E52D04D007F0080038B10F2F68
:102F000005D04FF0FF084FF0FF30E06240E00F2F98
:102F100022D12B20005D00F0400098BB05F040005E
:102F200038B1E06990F80D9005F0BF05A84620691A
:102F3000E06245450CD1E069407B484508D1E16934
:102F4000DAF81000FFF788FC10B1A8F1010000E0EA
:102F5000FF2000F0FF081BE0B8F1000F05D1E06989
:102F600003F077FA484500D119E02B20005D00F00E
:102F7000010040B90B2204F12001E069FDF7FFF9DF
:102F800008B90CE004E04FF0FF084FF0FF30E062BA
:102F90000021204600F006F80646002E99D000BF1A
:102FA00030468DE72DE9F0410446884626682069C1
:102FB00000F12007B7F5001F01D30020A061A06930
:102FC00010B90420BDE8F081B089B7FBF0F100FB37
:102FD0001170002847D1A069401CA061606938B910
:102FE0003089B0EB571F3ED80020A0610420E9E7EC
:102FF000B089B7FBF0F07189491E084098BB2046A4
:10300000616902F031F90546012D01D80220D9E7A6
:10301000681C08B90120D5E7F069A8421DD8B8F1AD
:10302000000F03D10020A0610420CBE72046616996
:10303000FFF75EFC05460DB90720C3E7012D01D15E
:103040000220BFE7681C08B90120BBE729463046CB
:10305000FFF7FBFE08B10120B4E765612946304661
:10306000FFF7EDFBA0612761B089B7FBF0F100FB32
:10307000117106F138000844E0610020A2E72DE953
:10308000F05F044689460426D4F800A04FF0FF08FC
:10309000C34653E05046A16902F0B6FC064606B1AD
:1030A0004FE0E06905780DB904264AE0E069C07A8E
:1030B00000F03F07A771E52D0AD02E2D08D027F08C
:1030C0002000082801D1012000E00020484502D05E
:1030D0004FF0FF082BE00F2F1DD105F0400038B155
:1030E000E06990F80DB005F0BF05A8462069E062E0
:1030F00045450CD1E069407B584508D1E169DAF8D3
:10310000100002F007FD10B1A8F1010000E0FF205F
:1031100000F0FF080BE0B8F1000F04D1E06903F004
:1031200098F9584502D04FF0FF30E06209E00021E5
:103130002046FFF737FF064606B102E0A0690028E7
:10314000A8D100BF0EB10020A0613046BDE8F09FBD
:103150002DE9FE4F044626682B20005D00F0A000FC
:1031600010B10620BDE8FE8F4FF0000901E009F123
:103170000109306930F819000028F8D1D4E90912A2
:10318000206A8DE807009DF80B0000F0010028B3CD
:1031900040212B2001554FF001080EE043466946BF
:1031A00004F12000326901F0F5FF2046FFF77CFEB4
:1031B000054605B104E008F10108B8F1640FEDD34C
:1031C00000BFB8F1640F01D10720CBE7042D01D077
:1031D0002846C7E79DF80B102B2001559DF80B00E2
:1031E00000F0020030B109F10C000D21B0FBF1F04C
:1031F000401C00E00120074639462046FFF7F5FD58
:1032000005464DBB781E071E26D02069A0EB47114E
:10321000204600F070F80546F5B904F1200003F0EF
:1032200018F9824600BF3046A16902F0EDFB054661
:1032300005B110E0FAB2E1695346306902F0ACFD25
:103240000120307100212046FFF7ACFE054615B97C
:10325000781E071EE7D100BFDDB93046A16902F034
:10326000D3FB0546ADB92021E069FDF76CF8E069B4
:10327000216A0160616A4160218D018194F82A1000
:1032800081722B20005D00F01800E16908730120B5
:103290003071284666E72DE9F04104462668276923
:1032A000E06A401C08B9002003E02046E16A00F013
:1032B00022F80546E5B900BF3046A16902F0A4FB3B
:1032C000054605B110E000BFE520E1690870012066
:1032D00030712069B84200D306E000212046FFF794
:1032E00061FE0546002DE7D000BF042D00D1022568
:1032F0002846BDE8F0812DE9F04104460E462568D8
:10330000B6F5001F02D206F01F0010B10220BDE882
:10331000F0812661A7681FB92878032800DBEF6ACF
:1033200047B92889B0EB561F01D80220EFE7E86AB9
:10333000A0611DE06889A98900FB01F811E0394608
:10334000204601F091FF0746781C08B90120DEE70E
:10335000022F02D3E869B84201D80220D7E7A6EBD2
:1033600008064645EBD239462846FFF768FAA061C1
:103370006761A06908B90220C9E7A889B6FBF0F027
:10338000A1690844A061A889B6FBF0F100FB1161B6
:1033900005F138000844E0610020B8E71CB5044698
:1033A00000200190009084B9FEF79FF8694601A8BB
:1033B000FEF74CF9BDF800009DF8041040EA01400A
:1033C0000349884201D100201CBD0120FCE7000018
:1033D0001840C80003467BB9012902D0022908D150
:1033E00003E04FF48050106003E04FF480501080F1
:1033F00000BF00BF002070470420FCE72DE9F0412A
:1034000004460F4615461E463CB93203280339468A
:10341000FEF7FAF80020BDE8F0810420FBE7014642
:10342000002070472DE9F04106460F4614461D4620
:103430005EB929032003FDF7A2FC2A0320033946C5
:10344000FEF7C6FC0020BDE8F0810420FBE7000089
:1034500010B5002406480078012806D10548006808
:10346000804700200249087000E00624204610BD75
:10347000760000207C0000202DE9F04705460C4630
:103480004FF0000A2088052834D168784FEA0029D7
:10349000A87840EA0909E878060228790643012E4F
:1034A00025DB7D2E23DC2F4600202080032007F81B
:1034B000010B2088401C20807006000E07F8010BCD
:1034C0002088401C2080002332464946384600F0C0
:1034D00057FA8046B8F1000F04D0404602F06AFB6C
:1034E000824609E0208800EB4600208004E04FF08F
:1034F000030A01E04FF0030A5046BDE8F0872DE9CA
:10350000F04104460E464FF000083088052810D1DF
:1035100060780702A078074301231A463946E01C69
:1035200000F02EFA054635B1284602F043FB8046EE
:1035300001E04FF003084046BDE8F0812DE9F04777
:1035400004460E464FF0000A3088062826DB6078D5
:103550004FEA0028A07840EA0808E07805022079C0
:10356000054394F80590012D15DB782D13DC6806D2
:10357000000E48450FD101232A464146A01D00F008
:10358000FFF9074627B1384602F014FB824607E0F0
:103590000520308004E04FF0030A01E04FF0030AF9
:1035A0005046BDE8F08700002DE9F04705460C467F
:1035B00016461F46DDF820904FF000081CB1012C84
:1035C00001DBF72C02DD4FF0020835E01C480470E7
:1035D00005BB1C481C4908601C481D4908601D4863
:1035E0001D4908601D481E49086000201D490860EB
:1035F0001D481E4908601E481E4908601E481F4994
:1036000008604B463A4631460D48007800F0D8F83D
:10361000804602E04FF0020800BF00BFB8F1000F83
:103620000AD103F0DBFA10B94FF0030804E01448A4
:1036300005700120134908704046BDE8F08700007E
:1036400074000020553900087C0000207139000802
:1036500080000020AD3800087800002011380008F4
:1036600084000020880000209D6C00088C00002051
:10367000ED6D0008900000206D6D000894000020A2
:10368000750000207600002038B5002541480078FC
:1036900008B1062038BD684603F08EFA012877D1BC
:1036A0009DF8000030B1012805D0022818D0032869
:1036B0006DD16BE06BE0384A38493948394B1B68AB
:1036C000984705465DB936480078374909788842F9
:1036D00002D03348007810B9022003F087FA56E090
:1036E0002E48006800783149087001203049087080
:1036F000002417E02F4810F8340000B914E02D48DA
:1037000010F834002949097888420AD1294800EB89
:10371000C400214942682148006890472449087044
:1037200002E0641C102CE5DB00BF1D48007858B394
:103730001F480078C8B10020174908801B4800784E
:1037400040F08001144802880088401C124B188009
:10375000124800688154164802781846018800888B
:10376000401C18800D480068425413480078012816
:1037700000D100BF08480288084801680A4800785C
:103780000E4B1B689847054601E001E000BF00BFF3
:1037900000207FE776000020260100202001002085
:1037A0002401002084000020740000202501002056
:1037B00028010020A00000207500002078000020D3
:1037C0002DE9F04781460E4614461F464FF000088B
:1037D0003B4608222146304603F020FA012802D059
:1037E0004FF003080FE0B4F5964F01D9232503E00D
:1037F00060000649B1FBF0F5A8B203F02BFA0128EE
:1038000001D04FF003084046BDE8F087A07F1700C5
:103810002DE9F04104460D46164600271148008860
:10382000FF2800DC04E09C220FA115A0FEF762FB3C
:103830000C480088042810DB0A4801881A4803F065
:1038400021F850B918480078207006480088C01E3A
:1038500030801548401C286000E005273846BDE848
:10386000F0810000360100204D69645F4D6F646295
:1038700075735C7274755C6D627274752E63000092
:103880007573526376427566666572506F73203C3D
:10389000204D425F5345525F5044555F53495A454E
:1038A0005F4D415800000000502200202DE9F041FA
:1038B00005460E4617464FF00008214800780128BB
:1038C00038D1701E1F49086001201F4908801D481B
:1038D000006805700846008838440880084601885A
:1038E0001848006802F0CEFF044617490888411CBA
:1038F000154B198015490C54221219460888411C91
:10390000198012490A540120114908700D490968AB
:10391000087803F093F90B480068401C09490860D7
:1039200009480088401E084908800121002003F052
:10393000C7F801E04FF005084046BDE8F0810000FF
:103940002D010020300100203401002050220020F1
:103950002C01002010B5002004490870002101202E
:1039600003F0AEF803F0F6F810BD00002D010020C2
:1039700010B50021084603F0A3F803F0D7F810BDF6
:103980002DE9F04107460C4615469846B8F1000F60
:1039900007D1E9B2E0B2084A13683A4698470646AA
:1039A00006E0E9B2E0B2044A53683A469847064650
:1039B0003046BDE8F08100003801002038B50546EA
:1039C000284600F0ACFF04463CB96946284603F09F
:1039D000D5F804460CB900202860204638BD2DE9F2
:1039E000FC4780460C46914600254646641E13E07F
:1039F0006B46012201A9484600F0A2FE009801286A
:103A000000D00BE09DF8047000BF06F8017B6D1C30
:103A10000A2F00D102E000BFA542E9DB00BF002071
:103A2000307015B14046BDE8FC870020FBE7000080
:103A30002DE9FF4F99B00E4619A801F0CCFC039078
:103A40000398002803DA0B201DB0BDE8F08FFE4973
:103A5000039851F8200028B10021FB4A039852F83E
:103A6000200001700398C0B216900020159016989F
:103A7000FFF794FC0290029800F0010008B10320C7
:103A8000E2E7029800F0040008B10A20DCE706B97A
:103A9000EE4E70681290129820B912AA032116985F
:103AA000FFF798FC129840B11298B0F5004F04D877
:103AB0001298401E1299084008B10120129014AAD1
:103AC00002211698FFF786FC08B10120BCE7BDF87B
:103AD0005000B0F5805F0BDCBDF85000B0F5007F02
:103AE00006DBBDF85000401EBDF85010084008B17C
:103AF0000120A9E7307800F00F00189070780128B5
:103B000004DB7078022801DC707800E00120059069
:103B1000B16889B1B168B1F5004F0DD8BDF850005A
:103B2000C11700EBD1614911B268B2FBF1F301FB9F
:103B3000132109B9B16801E04FF400710491F068F4
:103B4000B0F1807F05D8F068411E084008B9F068E0
:103B500000E000200690BDF850100698B0FBF1F090
:103B60000690BDF850101C98B0FBF1F0139013981C
:103B700008B9112068E71B9C0CB9112064E74FF0CD
:103B8000000ACDF83CA000BF0FAA01211698FFF74C
:103B900021FC08B1012057E7189800F0080040B94F
:103BA0000F983F2805D94FF03F0A0F98A0EB0A0065
:103BB0000F900F98802801D20E2045E700BF00BF6C
:103BC0000698802801D980200690189800F00200FD
:103BD00028B1189800F0010008B9032707E01898E9
:103BE00000F0010008B913202EE7022700BF00BF34
:103BF00001F0D3FB0F990844109000BF069D032FDE
:103C00002DD195B90F984FEA50494FF0000B01257F
:103C100002E00BF1010B6D008D4830F81B0020B164
:103C20008B4830F81B004845F3D90F98B0FBF5F8E6
:103C3000082000EB8800BDF850100844401EB0FB7F
:103C4000F1F0089020200990002007904FF6F570C1
:103C5000804502D97F48804539D90E20F4E695B9D0
:103C60000F984FEA10394FF0000B012502E00BF1DD
:103C7000010B6D00784830F81B0020B1764830F811
:103C80001B004845F3D90F98B0FBF5F840F6F570E6
:103C9000804503D9042000EB480906E0012708EB22
:103CA0004800401C032101EB5009BDF85000484476
:103CB000401EBDF85010B0FBF1F0089001200990B3
:103CC00004984001BDF85010B0FBF1F0079009983E
:103CD00050440E90059A08990E9801FB020107982E
:103CE00008440D9012990D980844401E491E20EA80
:103CF00001010D98A1EB0009032F06D10998484452
:103D000009900E9848440E9013E00598B9FBF0F125
:103D100000FB119038B1A9F101090998401C0990E4
:103D20000E98401C0E900598B9FBF0F108980844D5
:103D300008900D9800EB0510A0EB0A000F9988423F
:103D400001D90E2080E60F9909980A1A059908985A
:103D500000FB11210798081AB0FBF5F8032F0BD1CF
:103D60004FF6F570804507D8069818B96808069090
:103D700000B135E00E2067E6022F28D14FF6F5702E
:103D8000804517D9069830B94020B0EB450F02D3D3
:103D90006800069024E0189800F0020008B103279C
:103DA0001EE0069820B968000690802800D817E029
:103DB0000E2049E640F6F570804508D8069820B9EF
:103DC00068000690802800D80AE00E203CE6012F0B
:103DD00005D140F6F570804501D90E2034E600E0AB
:103DE0000CE700BFBDF850102046FCF7ACFA1BA052
:103DF000016821604168616001892181807AA07237
:103E0000BDF8501004F10B0002F01DFB657309981A
:103E100081B204F10E0002F016FB05982074032F06
:103E200001D1002000E0049881B204F1110002F0F9
:103E30000AFB0F98B0F5803F16D20F9881B204F1BB
:103E4000130002F000FB14E05023002078710008FA
:103E50006A710008F5FFFF0F5C710008EBFE904DE2
:103E600053444F53352E300004F120000F9902F0D7
:103E7000DEFAF82060753F2104F1180002F0E3FA41
:103E8000FF2104F11A0002F0DEFA514604F11C0091
:103E900002F0CDFA032F25D104F14300109902F06E
:103EA000C6FA04F12400089902F0C1FA022104F1D3
:103EB0002C0002F0BCFA012104F1300002F0C3FA38
:103EC000062104F1320002F0BEFA802084F840009E
:103ED000292084F84200132283A104F14700FCF753
:103EE00019FA16E004F12700109902F0A0FA0898D8
:103EF00081B204F1160002F0A6FA802084F82400B2
:103F0000292084F8260013227CA104F12B00FCF761
:103F100001FA4AF6552104F5FF7002F094FA0123E4
:103F2000524621461698FFF77DFA08B101208BE52D
:103F3000032F33D101230AF1060221461698FFF719
:103F400071FABDF850102046FCF7FDF97049204683
:103F500002F06DFA6F4904F5F27002F068FAA8F108
:103F6000010104F5F47002F062FA022104F5F67022
:103F700002F05DFA4AF6552104F5FF7002F063FA8B
:103F800001230AF1070221461698FFF74BFA012395
:103F90000AF1010221461698FFF744FABDF85020B5
:103FA000139800FB02F12046FCF7CDF90E980C9017
:103FB0004FF0000B40E0032F0FD16FF007012046B8
:103FC00002F035FA391F201D02F031FA6FF070410E
:103FD00004F1080002F02BFA09E0012F01D14E484C
:103FE00001E06FF007000146204602F020FA089831
:103FF000119000BF13991198884201D9139800E0DD
:10400000119881464B4621460C9A1698FFF70AFAFA
:1040100008B1012018E5BDF850102046FCF793F9CF
:104020000C9848440C901198A0EB0900119011983D
:104030000028DFD10BF1010B05988345BBD3032F7B
:1040400001D1284600E00798119000BF13991198FC
:10405000884201D9139800E0119881464B462146C9
:104060000C9A1698FFF7DEF908B10120ECE40C98E1
:1040700048440C901198A0EB090011901198002869
:10408000E4D100BF032F02D10C2017900DE00F9850
:10409000B0F5803F02D30620179006E0022F02D130
:1040A0000420179001E00120179000BF189800F03D
:1040B000080070B90F980A9000200B9023460AA9B7
:1040C000DDE91602FEF7D8FD0190019808B10198CC
:1040D000BAE4002211461698FFF77CF908B10120D6
:1040E000B2E40020B0E400004E4F204E414D452088
:1040F0002020204641543332202020004E4F204EB5
:10410000414D4520202020464154202020202000E1
:104110005252614172724161F8FFFF00F7B582B0FF
:1041200016460398019001A801F055F90446002CA9
:1041300002DA0B2005B0F0BD0F4850F8245025B12D
:1041400000200D4941F824002870029840B10299DE
:104150004C700020029908700749029841F8240029
:104160000EB90020E6E7002202A903A801F0D0FA68
:1041700007463846DEE70000502300202DE9F74FC0
:104180008EB0044616461CB9092011B0BDE8F08F68
:1041900006F03F06324601A90FA801F0B9FA05461C
:1041A000002D70D10198029002A80F9900F038FEFE
:1041B00005462DB99DF8330000F0800000B10625BA
:1041C00006F01C00002856D045B1042D03D102A8EA
:1041D000FEF7BEFF054646F008060AE09DF80E0011
:1041E00000F0110008B1072503E006F0040000B15B
:1041F0000825002D51D106F0080000284DD001F00F
:10420000CCF80090099901F10E00009902F00FF925
:10421000099901F11600009902F009F9099901982C
:1042200001F03EFA814620200999C87200220999BE
:10423000019802F0EAF8099901F11C00002102F04E
:10424000F6F8012001990871B9F1000F25D0019805
:10425000D0F834A00022494602A801F0FBFF054631
:10426000DDB95146019801F0CFFB0546A9F10100E7
:104270000199486111E085B99DF80E0000F0100029
:1042800010B1042509E065E006F0020028B19DF8B0
:104290000E0000F0010000B107254DB906F008003E
:1042A00008B146F040060198406B206209986062B0
:1042B000002D60D10999019801F0F2F9A0600999E7
:1042C00001F11C0001F0FFF9E0600020A0620198FC
:1042D00020600198C088A080267400206074E0618E
:1042E00060614FF4805104F12C00FCF72CF806F0CB
:1042F000200078B3E06868B3E068606101984089A5
:104300000199898900FB01FBA768D4F80C800CE0B7
:104310003946204600F0A8FF0746012F00D80225A5
:10432000781C00B90125A8EB0B080DB9D845EFD8CA
:10433000A7617DB901988089B8FBF0F100FB11807D
:1043400040B139460198FEF77AFA8246BAF1000F79
:1043500001D102250FE001988089B8FBF0F05044AC
:10436000E061E26901994878012304F12C01FFF72B
:1043700045F800B101250DB100202060284604E772
:104380000FB42DE9F04FA1B0002009900DA82A9993
:1043900001F07AFD2CA8209000BF2B9810F8014B5B
:1043A0002B9004B9C1E1252C04D021460DA801F0C1
:1043B00033FDF2E700208246804620200A904FF02D
:1043C000FF3B2B9810F8014B2B90302C06D130205E
:1043D0000A902B9810F8014B2B9007E02D2C05D15B
:1043E0004FF002082B9810F8014B2B902A2C08D183
:1043F000209850F804AB20902B9810F8014B2B908C
:104400000EE009E00AEB8A0004EB4000A0F1300A5C
:104410002B9810F8014B2B90302C01DB392CF1DD5F
:104420002E2C1FD12B9810F8014B2B902A2C08D141
:10443000209850F804BB20902B9810F8014B2B903B
:1044400010E04FF0000B09E00BEB8B0004EB400099
:10445000A0F1300B2B9810F8014B2B90302C01DB86
:10446000392CF1DD6C2C0DD148F004082B9810F894
:10447000014B2B906C2C05D148F008082B9810F8B4
:10448000014B2B9004B950E1652C6ED00CDC622CF2
:1044900017D004DC452C69D0582C7DD11CE0632C4E
:1044A0001DD0642CF9D112E0732C21D004DC662CD1
:1044B0005AD06F2CF1D107E0752C09D0782CECD1B3
:1044C00009E002200C9090E008200C908DE000BFE5
:1044D0000A200C9089E000BF10200C9085E0209805
:1044E00010F8042BD1B220900DA801F095FC54E7F0
:1044F000209800680B902098001D20900B9808B918
:1045000009A80B90002500E06D1C0B98405D002869
:10451000FAD1BBF1000F02DB5D4500D95D4604E036
:104520000DA80A9901F078FC6D1C08F0020008B98A
:104530005545F5D306E00B9810F8011B0B900DA81C
:1045400001F06AFC0B98007820B1BBF10000ABF1E0
:10455000010BF0D103E020210DA801F05DFC2846FD
:104560006D1C5045F7D318E700BF00BF2098C01D51
:1045700020F007002090B0EC021BB0EE410AF0EEF4
:10458000610A224659462090684600F0BDFC684604
:10459000FBF7EEFE054605E022E00DA80A9901F0C2
:1045A0003BFC6D1C08F0020008B95545F5D34FF0EF
:1045B000000907E0484609F101091DF800100DA89F
:1045C00001F02AFC1DF809000028F3D103E02021A6
:1045D0000DA801F021FC28466D1C5045F7D3DCE600
:1045E00021460DA801F018FCD7E600BF08F008002E
:1045F00048B12098C01D20F007002090D0E9006746
:104600000830209025E008F0040088B1642C06D121
:10461000209800682099091D2091C11705E0209875
:1046200000682099091D2091002106460F4610E0E0
:10463000642C06D1209800682099091D2091C1178B
:1046400005E0209800682099091D20910021064668
:104650000F46642C0ED16207002007EA02010246D1
:1046600040405140084305D000218E1B61EB0707F5
:1046700048F001084FF0000900BF002330463946DA
:104680000C9AFBF773FDD0B20890002330463946F0
:104690000C9AFBF76BFD06460F460898092808DDC3
:1046A000782C01D1272100E0072108980844C0B2E6
:1046B000089008983030C2B2484609F101090DF857
:1046C0000020002186EA01007940084302D0B9F1B8
:1046D000200FD2D308F0010028B12D22484609F15D
:1046E00001090DF800204D4604E00DA80A9901F0DB
:1046F00093FB6D1C08F0020008B95545F5D300BFC7
:10470000A9F1010081461DF800100DA801F084FBFD
:10471000B9F1000FF4D103E020210DA801F07CFBDA
:1047200028466D1C5045F7D337E600BF0020209087
:104730000DA801F093FB21B0BDE8F00F5DF814FB6C
:104740002DE9FF4F85B0044615469A46DDF818B0AE
:104750000020CAF8000003A9204602F00FFA0490D6
:10476000049810B9607C049018B1049809B0BDE8B1
:10477000F08F207C00F0010008B90720F6E761699E
:10478000E068401A01900198854200D9019DC1E07E
:10479000606903998989B0FBF1F201FB12000028DE
:1047A0007ED1606903998989B0FBF1F00399498949
:1047B000491E00EA0109B9F1000F1FD1606910B963
:1047C000A06802900CE0A06A28B120466169FEF75B
:1047D0001BF8029004E02046A16900F045FD02901C
:1047E0000298022802D202206074BFE70298401C9F
:1047F00010B901206074B9E70298A061A16903981B
:10480000FEF71DF8064616B902206074AEE74E4466
:1048100003988089B5FBF0F8B8F1000F2DD009EBB3
:10482000080003994989884203D903984089A0EB7D
:10483000090803994878434632465946FEF7DEFD9B
:1048400010B10120607491E7207C00F0800078B105
:10485000E069801B40450BD2E169891B039B9B8962
:1048600001FB03B003998A8904F12C01FBF752FD87
:104870000398808900FB08F742E0E069B04220D04D
:10488000207C00F0800080B1E26903994878012320
:1048900004F12C01FEF7C6FD18B10120607465E734
:1048A00010E0207C00F07F002074039948780123F9
:1048B000324604F12C01FEF7A1FD10B10120607415
:1048C00054E7E661606903998989B0FBF1F201FB65
:1048D0001200039989890F1AAF4200D92F466069E7
:1048E00003998989B0FBF1F201FB120104F12C005C
:1048F00008443A46014600905846FBF70BFD00BFBE
:10490000ED1BDAF800003844CAF80000BB446069C7
:1049100038446061002D7FF43BAF002026E7F8B5F6
:1049200004466946204602F029F90646002E44D185
:10493000207C00F0400000283FD0207C00F0800068
:1049400070B1E26900994878012304F12C01FEF767
:1049500069FD08B10120F8BD207C00F07F002074C3
:1049600000F01BFD0746216A009801F04DF806464D
:104970001EBB656AE87A40F02000E8722946A2680A
:10498000206801F042FD05F11C00E16801F04FFDD7
:10499000394605F1160001F04AFD002105F112002B
:1049A00001F051FD012000990871009801F062FDAD
:1049B0000646207C00F0BF0020743046CBE731B5BE
:1049C0009AB00025022219A91AA800F0A1FE0446F7
:1049D000002C46D119980D900DA81A9900F020FAD4
:1049E000044600BF002C3CD19DF85F0000F0800021
:1049F00008B1062405E09DF83A0000F0010000B17E
:104A00000724E4B91499199800F04AFE05469DF868
:104A10003A0000F0100090B1199801900395002120
:104A200001A8FEF768FC04464CB9002101A8FEF776
:104A300026FB044604B90724042C00D1002484B9C1
:104A40000DA8FEF728FC044634B92DB100222946F2
:104A50000DA801F0FFFB04461CB9199801F00AFDEE
:104A6000044620461BB030BD2DE9FF4F85B00446FB
:104A700015469B46069802900020CBF8000003A93B
:104A8000204602F07BF80490049810B9607C0490F2
:104A900018B1049809B0BDE8F08F207C00F0020046
:104AA00008B90720F6E700BF6069284461698842B9
:104AB00002D26069C0F1FF35DEE06069039989893F
:104AC000B0FBF1F201FB120000287CD16069039970
:104AD0008989B0FBF1F003994989491E00EA010A6E
:104AE000BAF1000F26D1606938B9A76897B90021DB
:104AF0002046FDF7FDFE07460CE0A06A28B12046DF
:104B00006169FDF781FE074604E02046A169FDF7D3
:104B1000EFFE074607B9B2E0012F02D10220607410
:104B2000B8E7781C10B901206074B3E7A761A068EA
:104B300000B9A760207C00F0800078B1E269039999
:104B40004878012304F12C01FEF76CFC10B1012020
:104B500060749FE7207C00F07F002074A1690398B7
:104B6000FDF76DFE064616B90220607492E75644C2
:104B700003988089B5FBF0F9B9F1000F31D00AEB49
:104B8000090003994989884203D903984089A0EB19
:104B90000A09039948784B4632460299FEF742FCCF
:104BA00010B10120607475E7E069801B484513D29D
:104BB000E069831B0398B0F80CC0029803FB0C015A
:104BC0000398828900E020E004F12C00FBF7A2FBAF
:104BD000207C00F07F0020740398808900FB09F896
:104BE00035E0E069B0420FD0E168606988420BD2DD
:104BF000039948780123324604F12C01FEF7FEFBAD
:104C000010B10120607445E7E66160690399898904
:104C1000B0FBF1F201FB120003998989A1EB0008B6
:104C2000A84500D9A846606903998989B0FBF1F2CB
:104C300001FB120104F12C00084442460190029944
:104C4000FBF768FB207C40F08000207400BFA5EBE0
:104C50000805DBF800004044CBF80000029840440F
:104C60000290606940446061E1686069884201D9EE
:104C7000606900E0E068E060002D7FF41EAF00BFD7
:104C8000207C40F040002074002003E710B502466D
:104C90000020084B802A01DA104609E040F2B514E2
:104CA000A14205D1FF2A03DCA2F1800433F81400ED
:104CB00010BD00008871000810B5024600200D4BA1
:104CC000802A01D290B213E0B2F5803F10D240F2B8
:104CD000B514A1420CD1002001E0441CA0B28028F0
:104CE00003DA33F810409442F7D100F18004E0B2C7
:104CF00010BD00008871000870B5B0F5803F4DD23E
:104D000081B2B1F5805F01DA254E00E0254E3246D2
:104D100000BF32F8023B0BB1994200DA3CE032F8B6
:104D2000024B2512E4B21E198E4230DD092D2CD221
:104D3000DFE805F005090F13171B1F232700CE1A04
:104D400032F8161021E0CE1A06F001068E1BB1B221
:104D50001BE0A1F11006B1B217E0A1F12006B1B23B
:104D600013E0A1F13006B1B20FE0A1F11A06B1B221
:104D70000BE001F10806B1B207E0A1F15006B1B2B3
:104D800003E0A1F5E356B1B200BF00BF04E0002D7F
:104D9000BFD102EB4402BCE700BF084670BD000073
:104DA000887200087A7400082DE9FF4107460D4615
:104DB00000213846FDF7B8FC0646022E06D0032E29
:104DC00000D21DB9304604B0BDE8F08100BF002418
:104DD0000AE007F5FB7101EB041101F1080000F096
:104DE00072FC4DF82400641C042CF2D30DB1681E33
:104DF00000E00020044600BF5DF8240028B15DF803
:104E000024103846FDF790FC00E0032006462DB93B
:104E1000022E03D3601C04460428EDD33046D2E7AB
:104E20002DE9F3410446276802E00198401C0190F7
:104E3000019800782F28F8D0019800785C28F4D0E9
:104E40000020A06001980078202808D280212B2023
:104E5000015500212046FEF74EFA054631E000BF1D
:104E600001A92046FDF7D4FD054605B128E02046FE
:104E7000FEF71AF805462B20065D3DB1042D04D13E
:104E800000BF06F0040000B9052519E006F0040093
:104E900000B115E0A07900F0100008B905250FE079
:104EA000B9892069B0FBF1F201FB120107F138006A
:104EB00001EB00084146384600F0F2FBA060CFE766
:104EC00000BF2846BDE8FC8170B504460D46E1B23E
:104ED000064A106801F03FFD00BF04490868072139
:104EE00001F08BFD0028F8D0204670BDAC010020F9
:104EF00070B50D46044602E02946FFF7E5FF14F8B9
:104F0000010B0028F8D170BD2DE9F04F2DED088B75
:104F100083B00446B0EE408AF0EE608A0D469246B9
:104F200000260027B146B0462E2002908DED008B62
:104F3000DDE900210AB1012200E0002241EA02007D
:104F400020F000418A4A511AC90F11B10FF22428EA
:104F5000F6E0002D00DA06259FED870B53EC102BB1
:104F600051EC180BFBF7E4FB0CD253EC182B9FED24
:104F7000820B51EC100BFBF7B0FA41EC180B4FF021
:104F80002D0901E04FF02B098DED008B7C49019834
:104F9000B1EB400F03D1009808B9012000E00020D8
:104FA00010B10FF2E01874E0BAF1660F27D1684231
:104FB00000F0B0FAB0EE40BAF0EE60BA9FED720BBE
:104FC00053EC102B51EC1B0BFBF7FFFA41EC1A0BC7
:104FD00053EC182BFBF7E0F941EC180BB0EE480A44
:104FE000F0EE680A00F0ECFA0746002F00DA00271E
:104FF0007819C01C20284CDB0FF2941849E09FED73
:105000005E0B53EC102B51EC180BFBF791FB40D0CF
:10501000B0EE480AF0EE680A00F0D2FA401B0190A8
:1050200000F078FAB0EE40BAF0EE60BA9FED560BA1
:1050300053EC102B51EC1B0BFBF7C7FA41EC1A0B8E
:1050400053EC182BFBF7A8F941EC180BB0EE480A0B
:10505000F0EE680A00F0B4FA0646632E02DCE81DA2
:10506000202802DB0FF2281813E016F1630F01DA93
:105070006FF06206304600F04DFAB0EE40AAF0EE56
:1050800060AA53EC1A2B51EC180BFBF79EFA41EC7B
:10509000180BB8F1000F53D1B9F12D0F01D104F85D
:1050A000019B00BF781C10B92E2004F8010B384674
:1050B00000F030FAB0EE409AF0EE609A53EC192B03
:1050C00051EC180BFBF781FA41EC1A0BFBF7FDFAD8
:1050D00083465846FBF7E8FA41EC1B0B53EC192BBF
:1050E000FBF701FA41EC1A0B53EC182BFBF7F8F91C
:1050F00041EC180B0BF1300004F8010B781E074649
:1051000069428842CEDABAF1660F19D004F801ABD1
:10511000002E04DA76422D2004F8010B02E02B2049
:1051200004F8010B0A2096FBF0F0303004F8010B74
:105130000A2096FBF0F100FB1160303004F8010BFF
:10514000B8F1000F0DD0B9F1000F01D004F8019BA8
:1051500000BF18F8010B04F8010B98F800000028B4
:10516000F7D10020207003B0BDEC088BBDE8F08FB4
:105170000000F07F4E614E000000000000000000C3
:105180000000E0FF494E4600000000000000004023
:105190004F5600002DE9FF4F83B0074691461E464B
:1051A0000498016839604168796001893981807AA1
:1051B000B872052E19D9B04612E039F802BB0024A6
:1051C0000CE0584668F35F0080464FEA6B0B08F42A
:1051D000803010B1234888EA0008641C102CF0D3FA
:1051E000B9F800000028E8D14646072400BF06F0C1
:1051F0000F0000F1300A3609BAF1390F03DD0AF168
:10520000070000F0FF0A2046641E01A901F800A073
:105210000CB1002EEBD17E2001A90855002509E034
:10522000785DFDF7D6FD20B1601EA84200D106E0F2
:105230006D1C6D1CA54202D2785D2028F0D100BF04
:1052400000BF082C04D22046641C01A9085C00E0C1
:10525000202029466D1C7854082DF2D307B0BDE8F4
:10526000F08F0000211001002DE9F05F81460D460E
:10527000D9F80040022D02D3E069A84202D84FF0CD
:10528000010887E04FF0FF382078012804D0022879
:105290003AD003287AD156E02E4606EB5606A0896E
:1052A000B6FBF0F0A16A00EB010A5146204600F07F
:1052B000ABFB00B16DE03046761CA189B0FBF1F28A
:1052C00001FB120104F13800475CA089B6FBF0F045
:1052D000A16A00EB010A5146204600F095FB00B19F
:1052E00057E0A089B6FBF0F100FB116104F1380032
:1052F000405C47EA002705F0010008B1380901E0E9
:10530000C7F30B00804644E0B4F80CA00AEBDA7057
:105310004010B5FBF0F0A16A00EB010B59462046A6
:1053200000F072FB00B134E06800A189B0FBF1F23B
:1053300001FB120104F1380001EB000A504600F0B5
:10534000CEF9804625E0B4F80CA04FEAEA700AEBEB
:1053500090708010B5FBF0F0A16A00EB010B59468C
:10536000204600F051FB00B113E0A800A189B0FB7A
:10537000F1F201FB120104F1380001EB000A504682
:1053800000F0A1F920F0704803E0FFE74FF00108BA
:1053900000BF00BF4046BDE8F09F1CB56846FBF764
:1053A00044FEBDF80000A0F2BC7040069DF802105B
:1053B00040EA41509DF8031040EA01409DF8041076
:1053C00040EAC1209DF8051040EA41109DF8061002
:1053D00040EA51101CBD70B504464FF0FF302668FE
:1053E0003146324601B970BD00BF12F8013B202B97
:1053F00001D33A2BF9D13A2B11D103250E78302E57
:1054000008DB0E78392E05DC8E1C964202D10E7810
:10541000A6F13005032D01DA28462260E3E70020DB
:1054200000BFE0E741617047016170470AB1016167
:1054300000E041617047F0B50446164600250022A1
:1054400001F00F0501F0100747B1042E05D145F01A
:105450000305E76B1F43E76300E0354300201EE0D0
:10546000012787401F40C7B122684FEA800C0F27F1
:1054700007FA0CF7BA43870005FA07F73A432829D9
:1054800004D1012787401F40676105E0482903D107
:10549000012787401F4027612260471CB8B20828B7
:1054A000DED3082022E0012787401F40E7B1626871
:1054B000A0F108074FEA870C0F2707FA0CF7BA4349
:1054C000A0F10807BF0005FA07F73A43282904D1DD
:1054D000012787401F40676105E0482903D1012764
:1054E00087401F4027616260471CB8B21028DAD39A
:1054F000F0BD02469068084008B1012070470020C6
:10550000FCE70246D068084008B10120704700203F
:10551000FCE7000010B52DED028B04469FED220B39
:10552000B0EE408AF0EE608A18E0052C0BDB9FEDB0
:10553000200B53EC102B51EC180BFAF7D4FF41EC75
:10554000180B641F0AE09FED1C0B53EC102B51EC61
:10555000180BFAF7C8FF41EC180B641E002CE4DCB2
:1055600019E014F1050F0BDC9FED110B53EC102B20
:1055700051EC180BFBF729F841EC180B641D0AE0FD
:105580009FED0D0B53EC102B51EC180BFBF71DF896
:1055900041EC180B641C002CE3DBB0EE480AF0EE83
:1055A000680ABDEC028B10BD000000000000F03F57
:1055B00000000000006AF8400000000000002440E5
:1055C00010B52DED028BB0EE408AF0EE608A00241B
:1055D0001FE09FED2B0B53EC102B51EC180BFBF73E
:1055E000BFF80BD89FED260B53EC102B51EC180B8A
:1055F000FAF7EBFF41EC180B641D0AE09FED220B5C
:1056000053EC102B51EC180BFAF7DFFF41EC180BA1
:10561000641C9FED1D0B53EC102B51EC180BFBF78A
:105620009FF8D6D91FE09FED1A0B53EC102B51ECCD
:10563000180BFBF77DF80BD29FED110B53EC102BE1
:1056400051EC180BFAF74FFF41EC180B641F0AE0FE
:105650009FED0D0B53EC102B51EC180BFAF743FF99
:1056600041EC180B641E9FED0C0B53EC102B51EC0E
:10567000180BFBF75DF8D6D32046BDEC028B10BDAE
:1056800000000000006AF840000000000000244014
:10569000F168E388B5F8E43E000000000000F03F48
:1056A00070B505460C4604F11A0000F018F80646DD
:1056B0002878032805D104F1140000F010F846EA18
:1056C0000046304670BD0146C8788A7842EA00201C
:1056D0004A7842EA00200A7842EA002070470146F0
:1056E00048780A7842EA0020704700001CB5FBF7B2
:1056F00025FBFBF747FA054903C9CDE900016846D8
:10570000FCF79FF801E0FCF7A9F9FCE7A46E00089C
:105710002DE9F74F84B00021059801600498FFF748
:105720005AFE03900398002803DA0B2007B0BDE867
:10573000F08FAF49039851F820400CB90C20F5E7E1
:1057400005980460069800F0FE000690207878B175
:105750006078FDF764FE074607F0010040B906983F
:1057600020B107F0040008B10A20DFE70020DDE7E0
:10577000002020706078FDF711FE074607F0010059
:1057800008B10320D2E7069820B107F0040008B161
:105790000A20CBE7607804F10C020221FDF71AFE23
:1057A00008B10120C2E7A089B0F5805F07DCA089BD
:1057B000B0F5007F03DBA089411E084008B101203D
:1057C000B4E700212046FFF7EFFA0546042D01D18A
:1057D0000120ABE7022D01D30D20A7E7D4F83490C8
:1057E00004F14300FFF77BFFA189884201D00D201F
:1057F0009CE704F14E00FFF772FF064626B904F15C
:105800005C00FFF760FF064626624820005DE070FE
:10581000E078012804D0E078022801D00D2085E747
:10582000E07846434520005D6081608918B1608959
:10583000411E084008B10D2078E704F14900FFF748
:105840004EFF2081A089C11700EBD1614911228947
:1058500092FBF1F301FB132109B10D2066E704F17E
:105860004B00FFF73CFF8246BAF1000F04D104F170
:105870005800FFF728FF824604F14600FFF72FFF8C
:105880008346BBF1000F01D10D204FE7A089C1175E
:1058900000EBD1614911228992FBF1F10BEB060279
:1058A0001144029102998A4501D20D203EE70298E7
:1058B000AAEB00006189B0FBF1F8B8F1000F01D14B
:1058C0000D2033E700254B48804500D803254FF6CF
:1058D000F570804500D8022540F6F570804500D867
:1058E00001250DB90D2021E708F10200E061C4F89F
:1058F000249009EB0B00A062029848442063032D1A
:1059000013D104F16200FFF7EAFE08B10D200DE7A4
:10591000208908B10D2009E704F16400FFF7D3FEE8
:10592000E062E0698000019014E0208908B90D2050
:10593000FCE6A06A3044E062022D02D1E06940003A
:1059400007E0207F00F00100E16901EB410100EB7D
:1059500051000190A089401E01990844A189B0FB23
:10596000F1F0216A884201D90D20DFE64FF0FF30C7
:10597000A061606180206071032D2DD104F1680069
:10598000FFF7ADFE012827D109F10101204600F003
:105990003BF808BB0020607104F23620FFF79FFE41
:1059A0004AF65521884217D104F13800FFF78BFEE3
:1059B0001149884210D104F50770FFF784FE0F49A2
:1059C000884209D104F50870FFF77DFEA06104F557
:1059D0000970FFF778FE6061257009480088401C57
:1059E00080B207490880E0800648206100209DE6DB
:1059F00050230020F5FFFF0F525261417272416146
:105A0000400100205C23002070B504460D460026AE
:105A1000606BA84210D0204600F072FD06465EB9C9
:105A2000607801232A4604F13801FDF7E7FC10B144
:105A30004FF0FF3501266563304670BD2DE9F0411A
:105A400003460D46164600240027A0462A48006853
:105A500000F4E060B0F5E06F03D100BF4FF0040840
:105A600030E02548006800F4E060B0F5C06F03D175
:105A700001274FF0030825E01F48006800F4E060AC
:105A8000B0F5A06F02D10227B8461BE01A480068A3
:105A900000F4E060B0F5806F03D103274FF00108F8
:105AA00010E01548006800F4E060B0F5407F03D1D5
:105AB00004274FF0000805E04FF4A06000F020F844
:105AC0000227B846C7F1040005FA00F4C8F1040142
:105AD0000F20C8403040044324010848C45403F058
