:020000040800F2
:1000000068040020450100083503000813020008B9
:10001000310300088D0100080D05000800000000F4
:10002000000000000000000000000000390300088C
:10003000C101000800000000370300083D0300086C
:100040005F0100085F0100085F0100085F01000810
:100050005F0100085F010008C30100085F0100089C
:100060005F0100085F0100085F0100085F010008F0
:100070005F0100085F0100085F0100085F010008E0
:100080005F0100085F0100085F0100085F010008D0
:100090005F0100085F0100085F0100085F010008C0
:1000A0005F0100085F0100085F0100085F010008B0
:1000B0005F0100085F0100085F0100085F010008A0
:1000C0005F0100085F0100085F0100085F01000890
:1000D0005F010008A50400085F0100085F01000837
:1000E000DF0100085F0100085F0100085F010008F0
:1000F0005F0100085F0100085F0100085F01000860
:100100005F0100085F0100085F0100085F0100084F
:100110005F0100085F0100085F0100085F0100083F
:100120005F0100085F0100085F0100085F0100082F
:10013000DFF80CD000F018F800480047410B000829
:10014000680400200648804706480047FEE7FEE7AF
:10015000FEE7FEE7FEE7FEE7FEE7FEE7FEE7FEE777
:100160005503000831010008064C074D06E0E06821
:1001700040F0010394E8070098471034AC42F6D3EE
:10018000FFF7DAFFD8100008F810000800BFFEE7FC
:1001900010B502460023002002E0145C6340401CBE
:1001A0008842FAD3184610BD10B50446607818B1DD
:1001B000207800F061F902E0207800F047F910BDE6
:1001C000704710B5012000F0F3FB38B1002000F0BB
:1001D00015F9012000F0E6FB00BFFEE710BD10B5E9
:1001E0004FF4005000F0E4FB30B1012000F006F9BC
:1001F0004FF4005000F0D6FB4FF4804000F0D8FBE5
:1002000030B1022000F0FAF84FF4804000F0CAFB51
:1002100010BD00BFFEE710B500F03AF800F001F89D
:1002200010BD10B54FF4C06000F0ACFD00210846D1
:1002300000F0D4FB01220021104600F055FB012004
:1002400000F0B0FB01221146062000F083FC0D21D6
:10025000062000F0C3FB01220021500300F044FB04
:100260004FF4005000F09EFB0E21062000F0B6FB7C
:1002700001220021900300F037FB4FF4804000F092
:1002800091FB01220021282000F064FC10BD000039
:1002900010B540F2026000F075FD01230222042136
:1002A0000A4800F0E7FB4FF4C16000F06BFD4FF42B
:1002B000005302220421064800F0DCFB4FF4804387
:1002C00002220421024800F0D5FB10BD00080140C5
:1002D0000020014010B5002424E004EB4401134A3F
:1002E00032F8210000F04EFD04EB44010F4A02EB0E
:1002F00081018B6804EB440102EB81010222486812
:10030000102100F0B7FB04EB4402084B03EB820220
:10031000916804EB440203EB8202506800F054FB46
:10032000601CC4B2032CD8D310BD00000000002014
:1003300000BFFEE770477047704700000448D0E9EF
:1003400000305A1C40F100000149C1E9002070470B
:100350002800002008B52648006840F470002449B1
:1003600008602448006840F001002249086000BF8E
:100370002048006800F002000028F9D000BF1D48A6
:10038000406840F080001B4948600020009002E077
:100390000098401C009000985028F9D315484068F8
:1003A00040F09000134948600020009002E000985F
:1003B000401C009000985028F9D300BF0D484068B9
:1003C00020F003000B494860084600680A490840CD
:1003D000084908604FF41F0088600846006820F450
:1003E0008020086000204860C86200F085FD08BDDC
:1003F00088ED00E000100240FFFFF6FE70B50446F5
:10040000032C00D370BD04EB44020F4B03EB8202BC
:10041000916804EB440203EB8202506800F088FB11
:100420000546C5F10100C5B204EB4402064B03EBDF
:100430008202916804EB440203EB820250682A4670
:1004400000F0C6FA00BFDDE70000002010B504464A
:10045000032C00D310BD04EB4402064B03EB8202D5
:10046000916804EB440203EB8202506800F0ACFA9E
:1004700000BFEFE70000002010B50446032C00D3B6
:1004800010BD04EB4402064B03EB8202916804EBBF
:10049000440203EB8202506800F098FA00BFEFE7D5
:1004A0000000002010B516490868164900F0E3FD69
:1004B00020B313490868134900F0D4FD10490868B7
:1004C00000F066FD0E4A917F906900F0FCF9C0F1E2
:1004D0001400072802D101200B490870084A917FB7
:1004E000906900F0D0F8064A917F9069142200F0DC
:1004F000D7F9034A917F906900F0DEF810BD000043
:1005000030000020040304005000002000BFFEE77C
:1005100000B587B01749888B00F034FC154A917FED
:10052000906900F0E2F800208DF81A00124800905F
:1005300000208DF8180001901048029001208DF8DD
:10054000190000200390142004904FF400500590EF
:10055000084A917F90696A4600F0FFF805490868EB
:10056000402100F063FD034A917F906900F0A4F8F8
:1005700007B000BD300000200438014054000020C6
:1005800010B500F007F84FF4E13000F041F8FFF744
:10059000BFFF10BD10B50949C88800F0F3FB07493B
:1005A000CB6801228868182100F064FA03490B69BE
:1005B00001228868482100F05DFA10BD300000205B
:1005C00010B51148007800B910BD00200E49087020
:1005D0000E480078552803D10C484078AA2800D04E
:1005E000F2E706210948FFF7D3FD084989798842D7
:1005F00000D0E9E70548C078062803D10348001D6C
:10060000FFF7D2FD00BFDFE75000002054000020BC
:1006100010B504461349888800F0B4FB11490868F6
:1006200000F0BCFC0F490868214600F069FC0D4948
:100630000868082100F045FD0A490868042100F017
:1006400036FD084908684FF4417100F0FEFC054989
:10065000087D0022114600F07DFA0249086800F08A
:10066000EFFC10BD3000002002E008C8121F08C1D6
:10067000002AFAD170477047002001E001C1121F23
:10068000002AFBD1704770B505460C462146284626
:1006900000F0FAF808B900BFFEE704EB840081001F
:1006A00005F10800405820F0010104EB84008200AD
:1006B00005F10800815070BD70B505460C46214615
:1006C000284600F0E1F808B900BFFEE704EB84001B
:1006D000810005F10800405840F0010104EB84005E
:1006E000820005F10800815070BD70B504460D46CA
:1006F0002946204600F0C8F808B900BFFEE705EB20
:100700008500810004F10800405820F0010105EB4C
:100710008500820004F108008150002105EB85006E
:10072000820004F10800815005EB8500820004F18D
:100730000C00815005EB8500820004F1100081500F
:1007400005EB8500820004F1140081506068AA0066
:100750000F2191400843606070BD2DE9F0410446CF
:100760000D4616462946204600F08EF808B900BF0F
:10077000FEE705EB8500820004F11000316881502E
:1007800005EB8500820004F11400B1688150308AC5
:1007900081B205EB8500820004F10C00815005EB6D
:1007A0008500810004F10800475827F47C57F16860
:1007B0007068084371690843074305EB85008100B1
:1007C00004F108004750307E01280ED105EB85006A
:1007D000810004F10800405840F0400105EB85001D
:1007E000820004F1080081500DE005EB85008100D6
:1007F00004F10800405820F0400105EB850082001C
:1008000004F108008150707E01280ED105EB8500AF
:10081000810004F10800405840F0800105EB85009C
:10082000820004F1080081500DE005EB8500810095
:1008300004F10800405820F0800105EB850082009B
:1008400004F108008150B07E70B905EB850081008D
:1008500004F10800405820F0100105EB85008200EB
:1008600004F1080081500DE005EB8500810004F1E2
:100870000800405840F0100105EB8500820004F1AB
:1008800008008150BDE8F08102460120034B9A42E6
:1008900002D1042900DD002070470000000402405E
:1008A00070B506460C46154621463046FFF7ECFF6C
:1008B00008B900BFFEE7A9B204EB8400820006F18C
:1008C0000C00815070BD70B505460C462146284687
:1008D000FFF7DAFF08B900BFFEE704EB84008100F0
:1008E00005F10C00405870BD10B52D4B1B688343BB
:1008F0002B4C2360231D1B688343241D2360231D71
:100900001B688343241D2360231D1B688343241D10
:10091000236011B101290ED105E0214B1B6803436F
:100920001F4C236008E01E4B1B1D1B6803431C4C1F
:10093000241D236000E000BF00BF32B1012A11D0A6
:10094000022A1CD0032A27D127E0154B08331B6845
:100950000343134C08342360231D1B688343241D69
:1009600023601BE00E4B08331B6883430C4C083498
:100970002360231D1B680343241D23600EE0084BE6
:1009800008331B680343064C08342360231D1B688F
:100990000343241D236001E000BF00BF00BF10BD62
:1009A0000004014001490860704700001404014040
:1009B000014604480068084008B101207047002043
:1009C000FCE7000014040140416170470161704779
:1009D0000AB1016100E041617047000010B50022DA
:1009E0008B071C0F0F2303FA04F204290EDA204BA5
:1009F0009B6893431E4CA36023469B688C07240F7F
:100A000000FA04F423431A4CA3602FE008290EDAFD
:100A1000174BDB689343164CE3602346DB688C0777
:100A2000240F00FA04F42343114CE3601EE00C2968
:100A30000EDA0F4B1B6993430D4C236123461B6950
:100A40008C07240F00FA04F42343094C23610DE0C2
:100A5000074B5B699343064C636123465B698C07D4
:100A6000240F00FA04F42343014C636110BD00001D
:100A700000000140F0B5044616460025002201F0B2
:100A80000F0501F0100747B1042E05D145F003050D
:100A9000E76B1F43E76300E0354300201EE00127BA
:100AA00087401F40C7B122684FEA800C0F2707FA22
:100AB0000CF7BA43870005FA07F73A43282904D10F
:100AC000012787401F40676105E0482903D10127BE
:100AD00087401F4027612260471CB8B20828DED338
:100AE000082022E0012787401F40E7B16268A0F19B
:100AF00008074FEA870C0F2707FA0CF7BA43A0F153
:100B00000807BF0005FA07F73A43282904D101274F
:100B100087401F40676105E0482903D101278740CE
:100B20001F4027616260471CB8B21028DAD3F0BDBD
:100B300002469068084008B1012070470020FCE799
:100B4000FFF7C8FBFFF767FBFFF71AFD01E0FFF7B0
:100B500037FDFCE72DE9F04103460D46164600241B
:100B60000027A0462A48006800F4E060B0F5E06F76
:100B700003D100BF4FF0040830E02548006800F4BE
:100B8000E060B0F5C06F03D101274FF0030825E006
:100B90001F48006800F4E060B0F5A06F02D10227A2
:100BA000B8461BE01A48006800F4E060B0F5806FBA
:100BB00003D103274FF0010810E01548006800F446
:100BC000E060B0F5407F03D104274FF0000805E056
:100BD0004FF4A06000F020F80227B846C7F10400E7
:100BE00005FA00F4C8F104010F20C8403040044366
:100BF00024010848C45403F01F0101208840591102
:100C0000890001F1E021C1F80001BDE8F081000098
:100C10000CED00E000E400E002490143024A1160EB
:100C2000704700000000FA050CED00E02DE9F04FE0
:100C30008CB0074600200A904AA090E8004CC0689B
:100C4000CDE905BECDF810A007900FF21C1ADAE925
:100C5000000ACDE9020A0FF2101ADAE9000ACDE91A
:100C6000000A44484068C0F381000B900B9820B103
:100C7000012804D002283FD103E03F4A3EE03E4A2B
:100C80003CE03C48406800F4803CBCF5803F12D119
:100C90003848C06A00F08048B8F1000F01D1364BE7
:100CA00000E0364B3348406800F40039B9F5003FA6
:100CB00002D15B0800E0324B2E484068C0F383410C
:100CC0002C48406800F0006008B141F0100129484C
:100CD000406800F0804008B141F020010F2901D2A6
:100CE000891C06E00F2903D33E2901D8491C00E0E6
:100CF0003F2103FB01F201E01F4A00BF00BF1D4876
:100D00004068C0F3031504A8465D22FA06F41948AA
:100D10004068C0F3022502A8465D24FA06F0099057
:100D200014484068C0F3C2251DF8056024FA06F097
:100D3000089037B1012F06D0022F06D0032F0AD119
:100D400006E00A9208E00A9406E009980A9003E097
:100D500008980A9000E000BF00BF0A980CB0BDE8F8
:100D6000F08F0000000000000000000001020304FA
:100D7000060708090010024000127A00006CDC022D
:100D800000093D00064A02EB9011096800F01F03BC
:100D900001229A401143024B03EB901211607047FD
:100DA00000100240064A02EB9011096800F01F0390
:100DB00001229A409143024B03EB9012116070475D
:100DC00000100240064A02EB9011096800F01F0370
:100DD00001229A401143024B03EB901211607047BD
:100DE00000100240002000213F4A126842F4803285
:100DF0003D4B1A6000BF401C3B4A126802F40031B0
:100E000019B94FF6FF729042F5D1374A126802F4D1
:100E100000320AB900BFFEE7334AD26942F080527D
:100E2000314BDA61314A126842F440422F4B1A606A
:100E30002D4A52682C4B5A601A4652685A601A461C
:100E4000526842F480625A601A46526822F4403274
:100E50005A601A46526842F440325A601A46526842
:100E6000234B1A40204B5A601A465268214B1A43B2
:100E70001D4B5A601A46126842F080721A6000BF19
:100E8000194A126802F00072002AF9D0174A126853
:100E900042F48032154B1A6000BF144A526802F4C3
:100EA0008032002AF9D0114A126842F400320F4B06
:100EB0001A6000BF0D4A526802F40032002AF9D0CD
:100EC000094A526822F00302074B5A601A465268D8
:100ED00042F002025A6000BF034A526802F0080260
:100EE000002AF9D070470000001002400070004056
:100EF000FFFFC3B70000340810B5FFF773FF10BD44
:100F00002DE9F04704460D460027B846B9460026AD
:100F10001D49601A8C421CD006DC1C48204470B16C
:100F2000B0F5806F1FD10FE0B0F5806F16D0B0F52F
:100F30006C4F18D10320FFF779FE074614E002201A
:100F4000FFF774FE07460FE00220FFF76FFE07462B
:100F50000AE00220FFF76AFE074605E00220FFF7DD
:100F600065FE074600E000BF00BF07EB5500B0FB81
:100F7000F5F64FF6F07006EA000806F00F0948EAA9
:100F80000900A060BDE8F087004C004000BCFFBF36
:100F900001464868C0F308007047000010B50446D9
:100FA0002049601A8C4228D006DC1F48204490B1AA
:100FB000B0F5806F33D117E0B0F5806F26D0B0F573
:100FC0006C4F2CD140F20E30FFF7FCFE40F20E3099
:100FD000FFF7E8FE24E040F21140FFF7F3FE40F295
:100FE0001140FFF7DFFE1BE040F21240FFF7EAFE80
:100FF00040F21240FFF7D6FE12E040F21340FFF736
:10100000E1FE40F21340FFF7CDFE09E040F214404C
:10101000FFF7D8FE40F21440FFF7C4FE00E000BF27
:1010200000BF10BD004C004000BCFFBF426922F071
:1010300040024261426901F040031A434261704735
:10104000C16841F40051C160704710B500EB9112C6
:10105000126801F01F040123A3401A4300EB91130F
:101060001A6010BDC1F3044301229A40D24300EB41
:1010700091531A60704770B5024600230024C1F3F3
:101080008910105801F01F060125B54000EA05033C
:1010900002EB91500068C1F304460125B54000EA17
:1010A000050414B10BB1012070BD0020FCE7C2683B
:1010B00022F00402C260C26801F004031A43C26055
:1010C0007047C26822F00802C260C26801F00803DB
:1010D0001A43C26070470000F810000800000020AA
:1010E00054000000680600084C110008540000205D
:1010F0001404000078060008020600000008014001
:101100000001000006060000001801404000000039
:1011100007060000001C0140400000000000000025
:101120000000000000000000003801400E0602062A
:10113000000801400002000000040000250000003B
:0C11400000000240000504000000000058
:0400000508000131BD
:00000001FF
