:020000040800F2
:100000000004002049010008A30100089B0100082A
:100010009F0100089101000865020008000000002F
:10002000000000000000000000000000B90100080E
:100030009901000800000000A50100086101000806
:100040006301000863010008630100086301000800
:1000500063010008630100086301000863010008F0
:1000600063010008630100086301000863010008E0
:1000700063010008630100086301000863010008D0
:1000800063010008630100086301000863010008C0
:1000900063010008630100086301000863010008B0
:1000A00063010008630100086301000863010008A0
:1000B0006301000863010008630100086301000890
:1000C0006301000863010008630100086301000880
:1000D0006301000863010008630100086301000870
:1000E0006301000863010008630100086301000860
:1000F0006301000863010008630100086301000850
:10010000630100086301000863010008630100083F
:10011000630100086301000863010008630100082F
:10012000630100086301000863010008630100081F
:10013000DFF810D000F01AF80048004789020008E4
:10014000AFF30080000400200648804706480047BF
:10015000FEE7FEE7FEE7FEE7FEE7FEE7FEE7FEE777
:10016000FEE7FEE7BD01000831010008064C074D1F
:1001700006E0E06840F0010394E807009847103477
:10018000AC42F6D3FFF7D8FFB8030008C803000855
:1001900000BFFEE700BFFEE7704700BFFEE700BFFD
:1001A000FEE7704770470CB50A20019000200090D0
:1001B000DDE90010FFF7EEFF7047000008B52648A4
:1001C000006840F47000244908602448006840F04A
:1001D00001002249086000BF2048006800F00200CA
:1001E0000028F9D000BF1D48406840F080001B493E
:1001F00048600020009002E00098401C00900098A9
:100200005028F9D31548406840F0900013494860E1
:100210000020009002E00098401C009000985028B8
:10022000F9D300BF0D48406820F003000B49486037
:10023000084600680A490840084908604FF41F0052
:1002400088600846006820F480200860002048602C
:10025000C86200F0ADF808BD88ED00E00010024073
:10026000FFFFF6FE00BFFEE702E008C8121F08C14C
:10027000002AFAD170477047002001E001C1121F27
:10028000002AFBD170470000034A106840F01000BC
:100290001060FFF788FF000014ED00E0002000214F
:1002A0003F4A126842F480323D4B1A6000BF401C46
:1002B0003B4A126802F4003119B94FF6FF729042BE
:1002C000F5D1374A126802F400320AB900BFFEE7DE
:1002D000334AD26942F08052314BDA61314A1268B6
:1002E00042F440422F4B1A602D4A52682C4B5A6000
:1002F0001A4652685A601A46526842F480625A603E
:100300001A46526822F440325A601A46526842F441
:1003100040325A601A465268234B1A40204B5A60AA
:100320001A465268214B1A431D4B5A601A461268EE
:1003300042F080721A6000BF194A126802F000721F
:10034000002AF9D0174A126842F48032154B1A601D
:1003500000BF144A526802F48032002AF9D0114AD0
:10036000126842F400320F4B1A6000BF0D4A526807
:1003700002F40032002AF9D0094A526822F003023E
:10038000074B5A601A46526842F002025A6000BF98
:10039000034A526802F00802002AF9D070470000B0
:1003A0000010024000700040FFFFC3B70000340897
:1003B00010B5FFF773FF10BDC80300080000002050
:0803C0000004000078020008AF
:0400000508000131BD
:00000001FF
