:020000040800F2
:10000000400500204901000849050008E1020008F8
:100010004505000849020008090800080000000022
:10002000000000000000000000000000950500082E
:100030004D020008000000004B050008990500086B
:100040006301000863010008630100086301000800
:1000500063010008630100086301000863010008F0
:1000600063010008630100086301000863010008E0
:1000700063010008630100086301000863010008D0
:1000800063010008630100086301000863010008C0
:1000900063010008630100086301000863010008B0
:1000A00063010008630100086301000863010008A0
:1000B0006301000863010008630100086301000890
:1000C0006301000863010008630100086301000880
:1000D00063010008CD070008630100086301000800
:1000E0006301000863010008630100086301000860
:1000F0006301000863010008630100086301000850
:10010000630100086301000863010008630100083F
:10011000630100086301000863010008630100082F
:10012000630100086301000863010008630100081F
:10013000DFF810D000F04CF800480047250F000809
:10014000AFF300804005002006488047064800477E
:10015000FEE7FEE7FEE7FEE7FEE7FEE7FEE7FEE777
:10016000FEE7FEE7BD050008310100082DE9F05F5C
:100170000546002092469B46884606468146402416
:100180001BE0284641464746224600F042F85346C7
:100190005A46C01A914110D311461846224600F023
:1001A00029F82D1A67EB01084F462246012000214D
:1001B00000F020F817EB00094E41201EA4F10104C5
:1001C000DFDC484631462A464346BDE8F09F000042
:1001D000064C074D06E0E06840F0010394E8070094
:1001E00098471034AC42F6D3FFF7A6FF0415000879
:1001F00024150008202A04DB203A00FA02F100202E
:1002000070479140C2F1200320FA03F31943904054
:100210007047202A04DB203A21FA02F000217047BF
:1002200021FA02F3D040C2F120029140084319465E
:100230007047000010B500F0E9FA024800F094FAA7
:1002400010BD00000107000800BFFEE77047000076
:100250000C48006820F080700A4908600846006871
:1002600040F0807008600848006820F001000649EE
:1002700008600846006840F00100086000204860FF
:1002800070470000FCED00E0001000E010B500F049
:10029000E9F900F029F900F083F8FFF7D9FF00F041
:1002A000C5FA00F00DFB10BD10B500F0C1FD10BD8A
:1002B00070B50025002407E0204600F091F80546BF
:1002C00005B103E0601CC4B2042CF5D300BF28467E
:1002D00070BD0000014903C9704700007000002094
:1002E00000BFFEE710B5FFF7E3FF0446812C18D0EE
:1002F00008DC012C0DD0022C17D0032C1DD0042CAF
:1003000037D122E0822C14D0832C1AD0842C30D107
:1003100025E0002000F044FA17A000F0F5FA00BF35
:10032000FEE7002000F026FA24E0012000F038FA71
:1003300020E0012000F01EFA1CE0022000F030FA5C
:1003400018E0022000F016FA14E0002000F028FA6D
:10035000012000F025FA022000F022FA0AE0002035
:1003600000F008FA012000F005FA022000F002FA7D
:1003700000E000BF00BF10BD2A2A2A2A2A2A2A2A02
:100380002A2A2A2ABDF8C8EBCBC0D1ADBBB72A2A8E
:100390002A2A2A2A2A2A2A2A2A2A2A2A0A0000005B
:1003A00010B5002417E004EB44010C4A32F8210098
:1003B00000F0F0FE04EB4401084A02EB81018B6877
:1003C00004EB440102EB810102224868042100F0A1
:1003D00043FD601CC4B2042CE5D310BD18000020FE
:1003E0002DE9F041044604EB44023D4B03EB82024D
:1003F000916804EB440203EB8202506800F08AFD2E
:100400000746384800EB0410007830B1012812D0BC
:1004100002282ED0032859D14DE05FB9012031497F
:1004200001EB04110870FFF755FF2E4A02EB04128E
:10043000C2E9020150E0B7B9FFF74CFF05460E468E
:10044000284800EB0410D0E90232EB1A66EB0201F7
:100450000020D3F10A0288410AD20220214901EB8F
:100460000411087004E000201E4901EB041108701B
:1004700032E047B100201B4901EB04110870601CF9
:10048000C0B2BDE8F081FFF725FF05460E461548CE
:1004900000EB0410D0E9023CEA1A66EB0C014FF4C1
:1004A0007A7300209A1A884104D203200D4901EB87
:1004B0000411087010E047B100200A4901EB041153
:1004C000087004F18100C0B2DBE705E000200549B7
:1004D00001EB0411087000BF00BF0020D1E700004D
:1004E000180000200001002010B5002424E004EBD7
:1004F0004401134A32F8210000F04CFE04EB4401A1
:100500000F4A02EB81018B6804EB440102EB81018D
:1005100002224868102100F09FFC04EB4402084BC3
:1005200003EB8202916804EB440203EB8202506801
:1005300000F08EFC601CC4B2032CD8D310BD0000A8
:100540004800002000BFFEE77047704710B5044622
:100550002146024800F00AF810BD0000EC0000201F
:10056000C1608260002303604360704730B502467B
:100570005068401C9468B0FBF4F504FB1503106848
:10058000984201D1022030BD5468D06801555360B3
:100590000020F8E77047000010B50648D0E90030A9
:1005A0005A1C40F100000349C1E9002002480068DC
:1005B000804710BD700000207800002008B5264854
:1005C000006840F47000244908602448006840F046
:1005D00001002249086000BF2048006800F00200C6
:1005E0000028F9D000BF1D48406840F080001B493A
:1005F00048600020009002E00098401C00900098A5
:100600005028F9D31548406840F0900013494860DD
:100610000020009002E00098401C009000985028B4
:10062000F9D300BF0D48406820F003000B49486033
:10063000084600680A490840084908604FF41F004E
:1006400088600846006820F4802008600020486028
:10065000C86200F05FFE08BD88ED00E000100240B7
:10066000FFFFF6FE70B5012000F0E8FC4FF47A7150
:10067000B0FBF1F4601EB0F1807F01D301201BE0DC
:10068000601E4FF0E021486148170F21002807DA6B
:100690000A07150E0A4A00F00F031B1FD55403E08A
:1006A0000A07130E074A135400BF00204FF0E02141
:1006B000886107200861002008B100BFFEE770BD17
:1006C00018ED00E000E400E010B5002413E004EBB6
:1006D00044000A4911F8200058B1002004EB4401FD
:1006E000064A02F8210004EB440102EB810188680C
:1006F0008047601CC4B2022CE9D310BD000000206A
:1007000000202BE000EB4001164A02EB81014988F2
:1007100011B300EB400102EB81014988491E00EB57
:100720004002104B03EB8202518000EB40011A465D
:1007300002EB8101498879B9012100EB400203F8FD
:10074000221000EB40011A4602EB8101898800EB80
:10075000400203EB82025180411CC8B20228D1D36F
:100760007047000000000020014908607047000049
:100770007800002010B50446032C00D310BD04EB14
:100780004402064B03EB8202916804EB440203EB44
:100790008202506800F05CFB00BFEFE748000020D9
:1007A00010B50446032C00D310BD04EB4402064BE5
:1007B00003EB8202916804EB440203EB820250686F
:1007C00000F048FB00BFEFE74800002010B50B49E0
:1007D00008680B4900F066FE70B1084908680849CE
:1007E00000F057FE0549086800F0E0FDC4B220465D
:1007F00004490968884700BF10BD00007C00002044
:10080000050305009400002000BFFEE710B5044872
:1008100000F0F0FC4D2203490348FFF7A1FE10BD94
:100820004D0500089C000020EC00002010B500F0F1
:1008300005F84FF4E13000F017F810BD10B5094984
:10084000C88800F0A7FC0749CB68012288681821F6
:1008500000F002FB03490B6901228868482100F07F
:10086000FBFA10BD7C00002010B5044613498888AF
:1008700000F090FC1149086800F0A2FD0F490868DB
:10088000214600F04BFD0D490868082100F030FEBC
:100890000A490868042100F021FE0849086840F26E
:1008A000053100F0E9FD0549087D0022114600F000
:1008B00059FB0249086800F0CBFD10BD7C00002008
:1008C00010B5032140F6C41000F07EFA00F0B8FA2B
:1008D00010BD000010B503A000F016F8FFF7E4FC0F
:1008E00010BD00002A2A2A2A2A2A2A2A2A2A2A2A43
:1008F00046656564446F672A2A2A2A2A2A2A2A2AF0
:100900002A2A2A2A0A0000000FB4054B10B503A9B1
:10091000044A029800F018F810BC5DF814FB0000BF
:10092000A10D00089800002002E008C8121F08C1AD
:10093000002AFAD170477047002001E001C1121F60
:10094000002AFBD1704700002DE9FF4F8DB00F4604
:100950000546002606E025280BD0DDE90F1290475A
:100960006D1C761C28780028F5D111B03046BDE802
:10097000F08F0024A246A1460122E94900E0044389
:1009800015F8013F203B02FA03F00842F7D128781E
:100990002A2810D06FF02F022878A0F13001092901
:1009A00014D80AEB8A0102EB410144F0020400EB87
:1009B000010A6D1CF0E701CF5FEA000A03D544F499
:1009C0000054CAF1000A44F002046D1C28782E2855
:1009D00017D115F8010F44F004042A280ED06FF047
:1009E0002F022878A0F1300109290AD809EB8901E2
:1009F00002EB410100EB01096D1CF2E757F8049B83
:100A00006D1C28786C280FD006DC4C2817D068287D
:100A10000DD06A2814D104E0742810D07A280FD1A0
:100A20000DE044F400140AE044F4801401E044F4BE
:100A300040146978814202D104F580146D1C6D1C4C
:100A400028786E281ED00CDC632830D004DC002807
:100A50008BD0582811D19FE0642867D069280CD129
:100A600064E073282DD004DC6F2872D0702804D184
:100A700094E075286ED078286DD0DDE90F1290478C
:100A8000761C4BE1C4F30250022806D0032809D09B
:100A9000042801CF09D0066040E101CFF117C0E979
:100AA00000613BE101CF068038E1067036E117F8BE
:100AB000040B8DF8000000208DF80100EB460120AA
:100AC00003E057F804BB4FF0FF3061074FF000011F
:100AD00002D40DE008F10101884649450FDA80454E
:100AE000F8DB1BF808100029F4D108E008F1010137
:100AF00088468142FADB1BF808100029F6D1DDE9AF
:100B00000F23AAEB08008146214600F031F930445A
:100B100000EB080604E0DDE90F121BF8010B90471B
:100B2000B8F10108F7D221464846F2E00A21C4F3A1
:100B300002524FF0000B0891022A04D001CFC117D6
:100B4000032A09D00AE0FF1D27F00707F7E8020192
:100B500008E02CE01EE01FE000B2C117042A01D11A
:100B600040B2C117021E71F1000206DA0023D0EB79
:100B7000030063EB01012D2202E0220504D52B22A4
:100B80008DF82420012203E0E20701D02022F7E7BC
:100B9000904653E00A210BE0102109E010214FF0AC
:100BA000000B44F004044FF00809089103E0082109
:100BB0004FF0000B0891C4F30252022A04D001CF77
:100BC0000021032A06D006E0FF1D27F00707F7E8FB
:100BD000020103E080B2042A00D1C0B24FF0000845
:100BE00022072BD52A78702A07D0DDF820C08CF098
:100BF000100C5CEA0B0C05D00EE040228DF824208E
:100C0000012208E050EA010306D030238DF8243099
:100C10008DF8252002229046089B83F0080353EAB2
:100C20000B030BD150EA010201D1620706D5302235
:100C30008DF824204FF00108A9F101092A78582ADB
:100C400004D038A20B9208AA0A920BE03AA2F9E764
:100C50005B46089AFFF78AFA0B9B9B5C0A9A521E26
:100C60000A92137050EA0102F2D10A98ADEB00002B
:100C700000F1200B600702D524F4803401E04FF02E
:100C80000109D94502DDA9EB0B0000E0002000EBD3
:100C90000B0141440890AAEB010AE00306D4DDE908
:100CA0000F232146504600F063F806444FF0000938
:100CB00008E009A911F80900DDE90F12904709F1D0
:100CC0000109761CC145F4DBE0030CD5DDE90F23F7
:100CD0002146504600F04CF8064404E0DDE90F12CE
:100CE00030209047761C0899481E08900029F5DCB2
:100CF00008E00A980A990078491C0A91DDE90F1268
:100D00009047761CBBF10001ABF1010BF1DC2146F1
:100D10005046DDE90F2300F019F806446D1C21E66A
:100D200009280100303132333435363738396162C1
:100D30006364656600000000303132333435363785
:100D40003839414243444546000000002DE9F04156
:100D5000044600251E461746880404D405E039469B
:100D60002020B0476D1C641EF9D52846BDE8F081EF
:100D70002DE9F041044600251E469046C80301D5E2
:100D8000302700E02027880404D505E04146384696
:100D9000B0476D1C641EF9D52846BDE8F0810000FF
:100DA00070B504460D46E1B2064A106800F003FB38
:100DB00000BF04490868072100F04FFB0028F8D065
:100DC000204670BD7C00002030B502460B46164C14
:100DD000002145F25550154D286000BF1348C068EA
:100DE00000F00101601E041E01D00029F6D109B1F6
:100DF000002030BD0D4843600B4C00BF0B48C0685D
:100E000000F00201601E041E01D00029F6D109B1D4
:100E10000020EEE7C2F30B00044DA8604AF6AA20BA
:100E200028600120E5E70000FFFF0F0000300040D0
:100E30004AF6AA20014908607047000000300040CF
:100E40004CF6CC400149086070470000003000407B
:100E50004161704701617047F0B5044616460025B0
:100E6000002201F00F0501F0100747B1042E05D153
:100E700045F00305E76B1F43E76300E035430020BF
:100E80001EE0012787401F40C7B122684FEA800C4F
:100E90000F2707FA0CF7BA43870005FA07F73A431A
:100EA000282904D1012787401F40676105E04829B0
:100EB00003D1012787401F4027612260471CB8B239
:100EC0000828DED3082022E0012787401F40E7B131
:100ED0006268A0F108074FEA870C0F2707FA0CF7A2
:100EE000BA43A0F10807BF0005FA07F73A432829DB
:100EF00004D1012787401F40676105E0482903D1DD
:100F0000012787401F4027616260471CB8B2102844
:100F1000DAD3F0BD02469068084008B1012070475E
:100F20000020FCE7FFF7B2F9FFF784F903A0FFF711
:100F3000EBFC01E0FFF7C8FBFCE700002A2A2A2AA5
:100F40002A2A2A2A2A2A2A2ABFB4C3C5B9B7B2E252
:100F5000CAD42A2A2A2A2A2A2A2A2A2A2A2A2A2AA7
:100F60000A0000002DE9F04103460D461646002414
:100F70000027A0462A48006800F4E060B0F5E06F62
:100F800003D100BF4FF0040830E02548006800F4AA
:100F9000E060B0F5C06F03D101274FF0030825E0F2
:100FA0001F48006800F4E060B0F5A06F02D102278E
:100FB000B8461BE01A48006800F4E060B0F5806FA6
:100FC00003D103274FF0010810E01548006800F432
:100FD000E060B0F5407F03D104274FF0000805E042
:100FE0004FF4A06000F020F80227B846C7F10400D3
:100FF00005FA00F4C8F104010F20C8403040044352
:1010000024010848C45403F01F01012088405911ED
:10101000890001F1E021C1F80001BDE8F081000084
:101020000CED00E000E400E002490143024A1160D7
:10103000704700000000FA050CED00E02DE9F04FCC
:101040008CB0074600200A904AA090E8004CC06887
:10105000CDE905BECDF810A007900FF21C1ADAE911
:10106000000ACDE9020A0FF2101ADAE9000ACDE906
:10107000000A44484068C0F381000B900B9820B1EF
:10108000012804D002283FD103E03F4A3EE03E4A17
:101090003CE03C48406800F4803CBCF5803F12D105
:1010A0003848C06A00F08048B8F1000F01D1364BD3
:1010B00000E0364B3348406800F40039B9F5003F92
:1010C00002D15B0800E0324B2E484068C0F38341F8
:1010D0002C48406800F0006008B141F01001294838
:1010E000406800F0804008B141F020010F2901D292
:1010F000891C06E00F2903D33E2901D8491C00E0D2
:101100003F2103FB01F201E01F4A00BF00BF1D4861
:101110004068C0F3031504A8465D22FA06F4194896
:101120004068C0F3022502A8465D24FA06F0099043
:1011300014484068C0F3C2251DF8056024FA06F083
:10114000089037B1012F06D0022F06D0032F0AD105
:1011500006E00A9208E00A9406E009980A9003E083
:1011600008980A9000E000BF00BF0A980CB0BDE8E4
:10117000F08F0000000000000000000001020304E6
:10118000060708090010024000127A00006CDC0219
:1011900000093D00064A02EB9011096800F01F03A8
:1011A00001229A401143024B03EB901211607047E9
:1011B00000100240064A02EB9011096800F01F037C
:1011C00001229A409143024B03EB90121160704749
:1011D00000100240064A02EB9011096800F01F035C
:1011E00001229A401143024B03EB901211607047A9
:1011F0000010024001490860704700009400002080
:10120000002000213F4A126842F480323D4B1A60B0
:1012100000BF401C3B4A126802F4003119B94FF676
:10122000FF729042F5D1374A126802F400320AB9CF
:1012300000BFFEE7334AD26942F08052314BDA6197
:10124000314A126842F440422F4B1A602D4A5268CC
:101250002C4B5A601A4652685A601A46526842F439
:1012600080625A601A46526822F440325A601A4626
:10127000526842F440325A601A465268234B1A4070
:10128000204B5A601A465268214B1A431D4B5A6034
:101290001A46126842F080721A6000BF194A12683A
:1012A00002F00072002AF9D0174A126842F4803224
:1012B000154B1A6000BF144A526802F48032002AAB
:1012C000F9D0114A126842F400320F4B1A6000BF85
:1012D0000D4A526802F40032002AF9D0094A5268D5
:1012E00022F00302074B5A601A46526842F002028B
:1012F0005A6000BF034A526802F00802002AF9D07F
:10130000704700000010024000700040FFFFC3B7AC
:101310000000340810B5FFF773FF10BD2DE9F0474A
:1013200004460D460027B846B94600261D49601AF6
:101330008C421CD006DC1C48204470B1B0F5806F94
:101340001FD10FE0B0F5806F16D0B0F56C4F18D1FB
:101350000320FFF773FE074614E00220FFF76EFE3E
:1013600007460FE00220FFF769FE07460AE0022069
:10137000FFF764FE074605E00220FFF75FFE074621
:1013800000E000BF00BF07EB5500B0FBF5F64FF6DD
:10139000F07006EA000806F00F0948EA0900A060AC
:1013A000BDE8F087004C004000BCFFBF0146486824
:1013B000C0F308007047C1F30802426070470000A4
:1013C00010B504462049601A8C4228D006DC1F481C
:1013D000204490B1B0F5806F33D117E0B0F5806F45
:1013E00026D0B0F56C4F2CD140F20E30FFF7F2FE54
:1013F00040F20E30FFF7DEFE24E040F21140FFF72E
:10140000E9FE40F21140FFF7D5FE1BE040F212402A
:10141000FFF7E0FE40F21240FFF7CCFE12E040F290
:101420001340FFF7D7FE40F21340FFF7C3FE09E079
:1014300040F21440FFF7CEFE40F21440FFF7BAFE30
:1014400000E000BF00BF10BD004C004000BCFFBF6B
:10145000C16841F40051C160704710B5024602EB0B
:101460009110006801F01F040123A340184008B147
:10147000012010BD0020FCE710B500EB91121268AE
:1014800001F01F040123A3401A4300EB91131A60DB
:1014900010BDC1F3044301229A40D24300EB9153A3
:1014A0001A60704770B5024600230024C1F389100A
:1014B000105801F01F060125B54000EA050302EBB4
:1014C00091500068C1F304460125B54000EA0504C7
:1014D00014B10BB1012070BD0020FCE7C26822F0FE
:1014E0000402C260C26801F004031A43C26070477C
:1014F000C26822F00802C260C26801F008031A4301
:10150000C260704724150008000000209C00000005
:1015100028090008C01500089C000020A404000051
:10152000380900080000050005000000E502000879
:101530000000E803E8030000D508000802060000E8
:1015400000080140010000000806000000200140E2
:1015500000200000080600000020014000400000BC
:101560000806000000200140008000000206000084
:1015700000080140000100000606000000180140BC
:101580004000000007060000001C01404000000071
:10159000000000000000000000000000000000004B
:1015A000003801400E06020600080140000200005B
:1015B0000004000025000000000000000000000002
:0400000508000131BD
:00000001FF
