:020000040800F2
:10000000A804002045010008B10A0008A50900085D
:10001000AD0A00086B080008490E00080000000047
:10002000000000000000000000000000790B000844
:100030009508000800000000B30A0008950B0008AE
:100040005F0100085F0100085F0100085F01000810
:100050005F0100085F0100085F0100085F01000800
:100060005F0100085F0100085F0100085F010008F0
:100070005F0100085F0100085F0100085F010008E0
:100080005F0100085F0100085F0100085F010008D0
:100090005F0100085F0100085F0100085F010008C0
:1000A0005F0100085F0100085F0100085F010008B0
:1000B0005F0100085F0100085F0100085F010008A0
:1000C0005F0100085F0100085F0100085F01000890
:1000D0005F0100080D0E00085F0100085F010008C5
:1000E0005F0100085F0100085F0100085F01000870
:1000F0005F0100085F0100085F0100085F01000860
:100100005F0100085F0100085F0100085F0100084F
:100110005F0100085F0100085F0100085F0100083F
:100120005F0100085F0100085F0100085F0100082F
:10013000DFF80CD000F078FA00480047D91B00081F
:10014000A80400200648804706480047FEE7FEE76F
:10015000FEE7FEE7FEE7FEE7FEE7FEE7FEE7FEE777
:10016000C50B0008310100082DE9FE4399461546EC
:100170008846074601AC022942D3002D40D000201A
:100180000290A8F101004FF0FF36009022E000FB42
:10019000057201FB057011464A469047002805DCB0
:1001A00054F82600304444F8260013E060682A46DC
:1001B00000FB057154F8040C00FB057007E00B7898
:1001C00090F800C001F801CB00F8013B521E002A54
:1001D000F5D1764254F8040C61688842D7DC4B466E
:1001E0002A463846FFF7C0FF54F8040C4B46A8EBEC
:1001F0000001401C00FB05702A46491EFFF7B4FFB2
:10020000BDE8FE8300F0004230F000400AD0C10D8E
:1002100001F56071C0F3160042EA0151C2084007BF
:100220001143704700200146704730B50B46014628
:1002300000202022012409E021FA02F59D4205D385
:1002400003FA02F5491B04FA02F52844151EA2F12F
:100250000102F1DC30BD2DE9F05F05460020924639
:100260009B4688460646814640241BE02846414678
:100270004746224600F0F9F953465A46C01A9141C2
:1002800010D311461846224600F0E0F92D1A67EB0C
:1002900001084F4622460120002100F0D7F917EB54
:1002A00000094E41201EA4F10104DFDC484631461E
:1002B0002A464346BDE8F09F2DE9FE4F804681EA7D
:1002C0000300C00F0C46009021F0004123F00045D0
:1002D000B8EB0200A94105D24046214690461C4693
:1002E0000B46024623F00040104347D0270DC7F3CA
:1002F0000A00C3F30A510290401A019040286BDAB9
:10030000C3F3130040F4801B0098924620B10023F1
:10031000D2EB030A63EB0B0B01985946C0F1400284
:10032000504600F093F906460D4650465946019A4C
:1003300000F0ABF910EB08006141002487EA11528C
:1003400084EAE7731A4340D0009A62B3019A012A03
:100350004FEA075215DC001B61EB02014FF000422F
:1003600002EA0752CDE90042001C41F580113246F5
:100370002B4600F0ABF903B0BDE8F08F40462146B4
:10038000F9E7001B61EB0201001C41F58013001826
:100390005B412018A2F5001747EB030140EAD57036
:1003A000B6196D4111E06D084FEA360645EAC07591
:1003B0004FEA0752001B61EB0201001C41F580115E
:1003C00049084FEA30000019514132462B4603B02C
:1003D000BDE8F04F00F06BB9009801224000002307
:1003E000D0EB020263EBE073009821464FEAE07421
:1003F000B8EB000061EB0401E9E783F000435BE741
:1004000081F0004158E72DE9FE4F81EA030404F032
:10041000004421F0004100944FF0000B23F0004312
:1004200050EA01045ED052EA03045BD0C3F30A54DD
:10043000C1F30A552C44A4F2F3340194A0FB0254F6
:10044000C1F3130141F48011C3F3130343F4801388
:1004500001FB024400FB034E840A970A44EA8154DC
:1004600047EA8357A4FB076802958D0A05FB0785B9
:100470004FEA932C04FB0C542705029D4FEA0658C3
:1004800047EA1637B5EB08056EEB070C870E920EA0
:1004900047EA811742EA8312A7FB0201B6EB0B0180
:1004A00064EB00042B0D43EA0C335E1844EB1C5044
:1004B000DA465146E7FB0201C5F313044FEA0B335A
:1004C00043EA14534FEA0432019C43EA0603A4F1C1
:1004D0000C040294009CCDE900B400F0F7F803B0DE
:1004E000BDE8F08F00200146F9E72DE9F04D81EAE3
:1004F000030404F0004B21F0004514464FF0000ABD
:1005000023F0004150EA050220D054EA01021DD038
:10051000C5F30A570246C5F31303C1F31300C1F331
:100520000A5640F4801543F48013A7EB0608101B0D
:10053000D64608F2FD3873EB050002D308F1010836
:1005400001E092185B41B8F1000F03DA0020014688
:10055000BDE8F08D00204FF48011064684460EE081
:10056000171B73EB050705D3121B63EB050306434B
:100570004CEA010C49084FEA300092185B4150EAFE
:100580000107EDD152EA030012D082EA040083EAA7
:100590000501084305D0101BAB4106D20122002300
:1005A00006E000224FF0004302E06FF0010253101A
:1005B0001AEB06004CEB085110EB0A0041EB0B0163
:1005C000BDE8F04D00F073B8C1F30A52C1F3130156
:1005D00040F2FF3341F480119A4202DA00200146D2
:1005E000704740F233439A42A2F2334202DC524255
:1005F00000F03BB800F02AB830B5041E71F10004D9
:1006000004DB4FF00044404264EB0101141E73F11F
:10061000000405DB1C464FF00043524263EB040329
:10062000994208BF904230BD064C074D06E0E06895
:1006300040F0010394E8070098471034AC42F6D329
:10064000FFF77AFDF424000814250008202A04DBB3
:10065000203A00FA02F1002070479140C2F12003D5
:1006600020FA03F3194390407047202A04DB203A14
:1006700021FA02F00021704721FA02F3D040C2F1C2
:1006800020029140084319467047202A06DBCB1709
:10069000203A41FA02F043EAE07306E041FA02F33D
:1006A000D040C2F12002914008431946704710B56E
:1006B000141E73F1000408DA401C41F10001921885
:1006C0005B411A4301D120F0010010BD2DE9F04D2E
:1006D00092469B4611B1B1FA81F202E0B0FA80F283
:1006E00020329046FFF7B2FF04460F4640EA0A0068
:1006F00041EA0B0153465A46084313D0114653EAC8
:10070000010019D0C8F140025046FFF7AEFF054680
:100710000E46504659464246FFF798FF084305D01B
:10072000012004E020463946BDE8F08D0020054355
:1007300046EAE0762C4337430A986305E40AA0EBC7
:1007400008000022FD0A44EA47540A3002D500207E
:100750000146E9E7010510196941DDE9084500197D
:100760006941BDE8F04DA2E710B540F2096001F023
:1007700051FC022001F0AEFA002001F0B5F8012290
:1007800002211A4801F04BF90021184801F059F8EC
:1007900001221146154801F031F807230D220021EE
:1007A000124801F0D3F84FF4602201210F4801F004
:1007B0007BF8012211460D4801F057F80C238022E6
:1007C00000210A4801F09EF8084801F0B8F80748EF
:1007D00001F042F8322000F07DF8044800F0F9FF03
:1007E0000121024801F00CF910BD00000024014075
:1007F00070B505462A4664210F4800F081F804468A
:100800000CB9002070BD601E0B4931F8100031F8A2
:100810001410411A601E084A32F81000401B00EB09
:100820008000400090FBF1F1601E00EB800001EBC6
:10083000400086B23046E5E72C24000810B5024897
:1008400000F096FA10BD0000090D000810B5024630
:100850000023002003E032F810402344401C88426B
:10086000F9D3B3FBF1F080B210BD00BFFEE770B565
:10087000024613460C4600201D882688B54201DD3D
:10088000401E06E01D882688B54201DA012000E0FE
:10089000002070BD704700000C48006820F0807098
:1008A0000A4908600846006840F0807008600848FF
:1008B000006820F00100064908600846006840F022
:1008C000010008600020486070470000FCED00E077
:1008D000001000E070B5044607484568012001F0AB
:1008E00043FA0649B0FBF1F0444300BF02484068B8
:1008F000401BA042FAD370BD001000E040420F0040
:10090000F0B504460B46154600225E1E581E0CE04C
:10091000B71A07EBD77C02EB6C0134F81170AF42C9
:1009200002DC4E1E084600E04A1CB242F0DDF0BD7B
:1009300010B5FFF7B1FF00F07BF800F059F800F0B8
:1009400085FA00F0CFF800F018F900F08FF910BD2B
:1009500010B500BF0221044800F0BEFF0028F9D006
:10096000014801F049F810BD0024014010B50446CB
:1009700000F004F884ED000A10BD0000014890ED7D
:10098000000A70478800002010B540F2046001F0B2
:1009900041FB082301220021014801F0BFF810BDEE
:1009A0000010014000BFFEE700B52DED028B83B0C3
:1009B00001A8FFF7DBFF9DED010A10EE101A0846B3
:1009C000FFF720FC41EC180B53EC182B03A000F0B0
:1009D00087FA03B0BDEC028B00BD00000A207465ED
:1009E0006D7020697320252E31662E0A00000000EC
:1009F00010B5002417E004EB44010C4A32F8210042
:100A000001F008FB04EB4401084A02EB81018B680A
:100A100004EB440102EB810102224868042101F049
:100A20007DF8601CC4B2032CE5D310BD1800002073
:100A300010B5002424E004EB4401134A32F82100ED
:100A400001F0E8FA04EB44010F4A02EB81018B68E4
:100A500004EB440102EB810102224868102101F0FD
:100A60005DF804EB4402084B03EB8202916804EB4F
:100A7000440203EB8202506801F04EF8601CC4B2DD
:100A8000032CD8D310BD00003C00002070B50446F4
:100A90000D46054B022229462046FFF765FBA91E9D
:100AA000A01CFFF7D3FE70BD6F08000800BFFEE773
:100AB0007047704709490A4A128821F8120008490C
:100AC0000988491C064A1180114609880A2291FBAF
:100AD000F2F302FB1311024A1180704794000020C8
:100AE0008C00002010B5012000F0CCFF45F65A2103
:100AF00088422ED040F21C7001F08CFA40F21B703C
:100B000001F088FA01F0DCF800F0B6FF4FF4006065
:100B100001F0E8F94FF4006001F0F4F94FF480704F
:100B200001F0A8FA40F60F0001F074FA01F0ECFAB7
:100B300001F0D0FA47F6FF7001F0D6FA01F0CAFAD8
:100B40000C4801F0B7FA45F65A21012000F0B6FF33
:100B500010BD40F21C7001F05DFA40F21B7001F014
:100B600059FA01F0ADF801F0CFFA01F0B3FA00BF85
:100B7000EEE70000F624FE63704710B500F0FEF8C3
:100B800010BD10B500F000F910BD10B5FFF7F9FF6A
:100B900010BD000010B5094802684068521C40F1C1
:100BA000000006490A6048600548006800B910BDA9
:100BB00003480068804700BFF9E70000600000209C
:100BC0006800002008B52648006840F470002449F9
:100BD00008602448006840F001002249086000BF16
:100BE0002048006800F002000028F9D000BF1D482E
:100BF000406840F080001B4948600020009002E0FF
:100C00000098401C009000985028F9D3154840687F
:100C100040F09000134948600020009002E00098E6
:100C2000401C009000985028F9D300BF0D48406840
:100C300020F003000B494860084600680A49084054
:100C4000084908604FF41F0088600846006820F4D7
:100C50008020086000204860C86201F0EFFA08BDFB
:100C600088ED00E000100240FFFFF6FE70B50120A5
:100C700001F07AF84FF47A71B0FBF1F4601EB0F134
:100C8000807F01D301201BE0601E4FF0E02148610E
:100C900048170F21002807DA0A07150E0A4A00F044
:100CA0000F031B1FD55403E00A07130E074A135402
:100CB00000BF00204FF0E02188610720086100207C
:100CC00008B100BFFEE770BD18ED00E000E400E0F1
:100CD00010B5002413E004EB44000A4911F8200089
:100CE00058B1002004EB4401064A02F8210004EB4D
:100CF000440102EB810188688047601CC4B2022C69
:100D0000E9D310BD0000002000202BE000EB4001E3
:100D1000164A02EB8101498811B300EB400102EB56
:100D200081014988491E00EB4002104B03EB82020F
:100D3000518000EB40011A4602EB8101498879B9E4
:100D4000012100EB400203F8221000EB40011A469B
:100D500002EB8101898800EB400203EB82025180A3
:100D6000411CC8B20228D1D3704700000000002007
:100D700001490860704700006800002010B5FFF7C7
:100D800003FEFFF7F1FC10BD70B5FFF7E1FD04466F
:100D90002046FFF72DFD05462846FFF78BFE184835
:100DA0000088401C164908800846008803280DDA90
:100DB0001448008800EE100AB8EE400AF2EE040A69
:100DC00080EE201A104880ED001A70BD0C48008893
:100DD0000A2802DD0A200A490880094801880948D2
:100DE000FFF754FE00EE100AB8EE400AF2EE040AD5
:100DF00080EE201A044880ED001A00BFE5E70000ED
:100E00008E000020940000208800002010B50B49BF
:100E100008680B4901F0DAFA70B108490868084916
:100E200001F0CBFA0549086801F054FAC4B2204633
:100E300004490968884700BF10BD00006C0000200D
:100E4000050305008400002000BFFEE710B500F098
:100E500005F84FF4E13000F017F810BD10B509495E
:100E6000C88801F0D7F80749CB68012288681821A3
:100E700000F054FE03490B6901228868482100F004
:100E80004DFE10BD6C00002010B504461349888843
:100E900001F0C0F81149086801F026FA0F49086806
:100EA000214601F0CFF90D490868082101F0B4FA94
:100EB0000A490868042101F0A5FA0849086840F2C7
:100EC000053101F06DFA0549087D0022114600F058
:100ED0008BFE0249086801F04FFA10BD6C0000203B
:100EE0000FB4054B10B503A9044A029800F0DAF8D4
:100EF00010BC5DF814FB0000F11A000890000020FF
:100F000002E008C8121F08C1002AFAD170477047D2
:100F1000002001E001C1121F002AFBD17047000030
:100F20002DE9FF5F82B00021DDE90430020DDDF81C
:100F300040B0034318D044F61050A2F2FF324243AF
:100F40001514119801281FD0A5EB0B00401C5FEA77
:100F5000000A4FF000064E4FDFF83891B046504679
:100F600015D5CAF1000413E0119801244AA3012801
:100F700001D16FEA0B010298119AC0E90031C0E972
:100F8000024206B0BDE8F09FCBF10000DFE7044667
:100F90000021404A491842EB0450CDE9001012E00C
:100FA000E00707D032463B4640464946FFF72BFA5A
:100FB0008046894632463B4610461946FFF723FADB
:100FC00006460F466410002CEAD1DDE90401DDE994
:100FD0000023BAF1000F06DAFFF715FA42464B4636
:100FE000FFF711FA05E0FFF780FA42464B46FFF79C
:100FF0007CFA04460E460022284BFFF7FDFA03D880
:101000004FF0FF30014607E00022254B20463146D5
:10101000FFF752F9FFF7D8FA102409E0002C0ADB99
:101020000A220023FFF717F9039B30321A55641E7A
:1010300050EA0102F2D1641C039AC4F11103144472
:10104000119A012A03D0012208430DD10AE0084376
:1010500004D000204FF0110B119072E7A3EB0B05A9
:101060006D1E0DE05B4504DD4FF0000205F101054A
:1010700004E003DA4FF00002A5F10105002AECD0EC
:1010800002981199C0E90231C0E9004579E70000F2
:10109000000014400000F03F300000000000F0436A
:1010A0000000E03F2DE9FF4F95B09B46894606467C
:1010B00000250FE2252877D100242746F84A012190
:1010C000059400E0044316F8013F203B01FA03F0C9
:1010D0001042F7D130782A2811D06FF02F033078E2
:1010E000A0F13002092A16D8059A44F0020402EB56
:1010F000820203EB42021044761C0590EFE759F898
:10110000042B0592002A03DA504244F4005405905F
:1011100044F00204761C30782E2816D116F8010F00
:1011200044F004042A280DD06FF02F023078A0F18B
:101130003003092B09D807EB870302EB4303C718D9
:10114000761CF3E759F8047B761C30786C280FD0B6
:1011500006DC4C2817D068280DD06A2814D104E08A
:10116000742810D07A280FD10DE044F400140AE05E
:1011700044F4801401E044F440147278824202D1B5
:1011800004F58014761C761C307866280BD013DCAE
:10119000582877D009DC002875D04528F6D0462895
:1011A000F4D047281AD19DE118E0632835D064288F
:1011B00079D0652812D195E1702873D008DC6728B2
:1011C000F1D069286FD06E280DD06F2806D1B5E018
:1011D00073282CD0752875D0782874D05A46179962
:1011E00090476D1C75E1C4F30250022809D0032812
:1011F0000DD0D9F8001004280DD00D6009F10409B4
:1012000067E1D9F80010EA17C1E90052F6E7D9F80A
:1012100000100D80F2E70D70F0E719F8041B8DF84F
:10122000001000208DF80100EA46012003E059F883
:1012300004AB4FF0FF3061074FF0000102D40DE026
:1012400008F101018846B9420FDA8045F8DB1AF847
:1012500008100029F4D108E008F101018846814214
:10126000FADB1AF808100029F6D105985B46A0EBC6
:10127000080721463846179A00F094FA284400EBF4
:10128000080507E04DE029E10DE01AF8010B5A4688
:1012900017999047B8F10108F7D25B4621463846C6
:1012A000179A13E142E00A220092C4F302524FF06F
:1012B000000A022A08D059F804CB032A4FEAEC713D
:1012C0000AD00DE029E02AE009F1070121F0070228
:1012D000F2E802C1914609E00FFA8CFC4FEAEC718A
:1012E000042A03D14FFA8CFC4FEAEC71002907DA8B
:1012F0000A460021DCF1000C61EB02012D2202E024
:10130000220504D52B228DF80420012203E0E207F8
:1013100001D02022F7E7904659E00A2102E010228E
:101320000DE010214FF0000A00910BE010224FF069
:10133000000A44F004040827009203E008224FF05A
:10134000000A0092C4F30252022A05D059F804CBD5
:101350000021032A08D009E009F1070121F0070262
:10136000F2E802C1914605E01FFA8CFC042A01D183
:101370000CF0FF0C4FF00008220728D5702806D08B
:10138000009B83F0100353EA0A0305D00EE04022CD
:101390008DF80420012208E05CEA010206D0302228
:1013A0008DF804208DF8050002229046009B83F002
:1013B000080353EA0A030AD15CEA010201D1620779
:1013C00005D530228DF804204FF001087F1E5828E3
:1013D00004D034A003900EA802900DE036A0F9E7E7
:1013E00053466046009AFEF736FF84460398825CB7
:1013F0000298401E029002705CEA0100F0D102984F
:1014000006A9081A00F1200A600702D524F48034E6
:1014100000E00127574502DDA7EB0A0000E00020AD
:1014200000EB0A01009005984144401A0590E00342
:1014300006D45B462146179A059800F0B3F9054497
:10144000002706E001A85A46C05D179990476D1C19
:101450007F1C4745F6DBE0030CD55B462146179A17
:10146000059800F09FF9054404E030205A4617998A
:1014700090476D1C0099481E00900029F5DC08E09B
:10148000029802995A460078491C02911799904790
:101490006D1CBAF10001AAF1010AF1DC65E100005E
:1014A000092801003031323334353637383961623A
:1014B00063646566000000003031323334353637FE
:1014C00038394142434445460000000000F058F9D5
:1014D0000544761C307800287FF4ECAD19B028461E
:1014E000BDE8F08F620700D4062709F1070222F059
:1014F000070CFCE80223E14603F000485FEA080C11
:1015000002D00FF2702C0DE05FEA045C02D50FF2FE
:10151000682C07E05FEAC47C02D00FF2602C01E087
:10152000AFF2700C4FF0FF3823F00043CDF850C0FD
:1015300065280CD006DC452809D046281DD0472850
:101540003DD13DE0662818D067287ED138E00021E3
:10155000112F01DB112000E0781CCDE9000106A964
:101560000EA8FFF7DDFCDDE90F010E9A03910021C3
:10157000009207F1010A04914DE04FF000400097FE
:10158000CDE9011006A90EA8FFF7CAFCDDE90F029C
:1015900003920E9B11990022DDF80CA00093049297
:1015A00011B9791C00EB010AB7EB0A0004D4C0F1B1
:1015B000FF3007F1010A0490AAEB0700019044E014
:1015C000012F00DA01270021112F01DD112000E099
:1015D0003846CDE9000106A90EA8FFF7A1FCDDE918
:1015E0000F010E9A0391002104910092BA4621073F
:1015F0000CD40399514500DA8A46BAF1010F05DD92
:10160000009AAAF10101515C302908D0B84202DAEF
:1016100010F1040F06DA0121CDE9011015E0AAF15D
:101620000101E9E7002805DC049901440491AAEBD3
:10163000000102E0411C514500DD8A460499401A30
:10164000401C01904FF000400290200704D4019804
:10165000504501DBCDF8048000208DF84F00029842
:101660000DF14F07B0F1004F25D02B200E900298BE
:101670004FF0020800280CDA404202902D200E9014
:1016800007E00A210298FEF7D0FD3031029007F8FA
:10169000011DB8F10001A8F10108F2DC0298002850
:1016A000EFD1791E0E980870307800F0200040F0DD
:1016B000450007F8020D12A8C01B00F10708149896
:1016C000007800B1012000EB0A01019801EBE07104
:1016D00005984144401A401E0590E00306D45B463D
:1016E0002146179A059800F05DF805441498007893
:1016F00018B15A46179990476D1CE00324D55B46F4
:101700002146179A059800F04DF805441CE004980E
:10171000002807DBDDE90301884203DD0098405C17
:10172000179901E0179930205A469047049805F11F
:101730000105401C04900198401E019004D12E2008
:101740005A46179990476D1CBAF10001AAF1010A97
:10175000DDDC05E017F8010B5A46179990476D1C20
:10176000B8F10001A8F10108F4DC5B462146179AA4
:101770000598ABE62D0000002B00000020000000C3
:101780002DE9F041044600251E461746880404D47E
:1017900005E039462020B0476D1C641EF9D5284667
:1017A000BDE8F0812DE9F041044600251E46904633
:1017B000C80301D5302700E02027880404D505E0C0
:1017C00041463846B0476D1C641EF9D52846BDE831
:1017D000F081816841F00801816000BF816801F0FB
:1017E00008010029FAD1816841F00401816000BF3D
:1017F000816801F004010029FAD1704730B5012950
:1018000002D002291AD10CE0C36A23F47003C36228
:10181000C36A541E4FF4700505EA04542343C3629F
:101820000DE0836B23F440138363836B541E4FF4EA
:10183000401505EA04542343836300E000BF00BF62
:1018400030BD21B1826842F40062826003E08268A8
:1018500022F4006282607047816801F0010119B9C9
:10186000816841F001018160704772B101F00103AC
:101870001BB1836843F48013836001F0020393B1CA
:10188000836843F4004383600DE001F001031BB162
:10189000836823F48013836001F002031BB1836823
:1018A00023F4004383607047012902D0022910D13C
:1018B00007E0836823F460238360836813438360B5
:1018C00008E0836823F4E043836083681343836004
:1018D00000E000BF00BF70470246002013680B40C5
:1018E00003B10120704700000549096821F4702107
:1018F000034A1160114609680143116070470000F6
:101900000424014030B5B1F5007F06D1D0F8804005
:1019100044F40074C0F8804005E0D0F8804024F41E
:101920000074C0F8804050F8804F24F4FE740460C6
:10193000046842EA03052C4340F8804930BDD0F8E2
:10194000801041F00101C0F880107047F0B51D46CD
:1019500006290CD2436B01EB81071F26BE40B3431F
:1019600001EB810602FA06F63343436322E00C29B9
:101970000ED2036B8E1F06EB86071F26BE40B343B5
:101980008E1F06EB860602FA06F63343036311E068
:1019900010290FD2C36AA1F10C0606EB86071F2699
:1019A000BE40B343A1F10C0606EB860602FA06F62A
:1019B0003343C3620A2A0CD2046902EB42070726AA
:1019C000BE40B44302EB420605FA06F63443046116
:1019D00011E0122A0FD2C468A2F10A0606EB4607EC
:1019E0000726BE40B443A2F10A0606EB460605FAF6
:1019F00006F63443C460F0BD0146C86C80B270473F
:101A000001F001021AB1826842F48002826001F0A2
:101A100002021AB1826842F4001282607047AAB1D1
:101A200001F480731BB1436843F48073436001F495
:101A300080631BB1436843F48063436001F0020399
:101A4000CBB1836843F00203836014E001F4807338
:101A50001BB1436823F48073436001F480631BB1BE
:101A6000436823F48063436001F002031BB1836881
:101A700023F002038360704710B500F06BF900F0AB
:101A80005FF910BD014600200B2909DB2A2907DC7C
:101A9000A1F10B02084B03EB8202B2F8400C09E003
:101AA000012907DB0A2905DC4A1E034B03EB8202EE
:101AB000B2F8040C70470000006000400B2809DBFE
:101AC0002A2807DCA0F10B02084B03EB8202A2F8E4
:101AD000401C09E0012807DB0A2805DC421E034BF5
:101AE00003EB8202A2F8041C704700000060004073
:101AF00070B504460D46E1B2064A106800F0EFFBEF
:101B000000BF04490868072100F03BFC0028F8D01A
:101B1000204670BD6C00002041617047F0B504465E
:101B200016460025002201F00F0501F0100747B10D
:101B3000042E05D145F00305E76B1F43E76300E082
:101B4000354300201EE0012787401F40C7B12268AF
:101B50004FEA800C0F2707FA0CF7BA43870005FA03
:101B600007F73A43282904D1012787401F406761BE
:101B700005E0482903D1012787401F4027612260E3
:101B8000471CB8B20828DED3082022E0012787408E
:101B90001F40E7B16268A0F108074FEA870C0F27E2
:101BA00007FA0CF7BA43A0F10807BF0005FA07F7D8
:101BB0003A43282904D1012787401F40676105E087
:101BC000482903D1012787401F4027616260471CD5
:101BD000B8B21028DAD3F0BDFEF7AAFEFEF72EFE4B
:101BE00001E0FFF775F8FCE72DE9F04103460D46EB
:101BF000164600240027A0462A48006800F4E0604A
:101C0000B0F5E06F03D100BF4FF0040830E0254885
:101C1000006800F4E060B0F5C06F03D101274FF019
:101C2000030825E01F48006800F4E060B0F5A06FED
:101C300002D10227B8461BE01A48006800F4E060B1
:101C4000B0F5806F03D103274FF0010810E015486D
:101C5000006800F4E060B0F5407F03D104274FF046
:101C6000000805E04FF4A06000F020F80227B84615
:101C7000C7F1040005FA00F4C8F104010F20C840C0
:101C80003040044324010848C45403F01F010120DC
:101C900088405911890001F1E021C1F80001BDE837
:101CA000F08100000CED00E000E400E00249014397
:101CB000024A1160704700000000FA050CED00E0D8
:101CC0000348006840F480700149086070470000D4
:101CD00000700040184B5968184B1940164BDA6ACF
:101CE00022F000520C2820D2DFE800F00607080995
:101CF0001F0C1F0D1516171800BF00BF00BF41EACB
:101D0000803113E000BF20F004004FF0805343EA1D
:101D1000803319430AE000BF00BF00BF20F00C0071
:101D200041EA803142F0005200E000BF00BF024BA8
:101D30005960DA627047000000100240FF3FFFEF79
:101D40000348006A20F480300149086270470000AF
:101D5000001002400348006A40F4803001490862E4
:101D600070470000001002402DE9F04F8CB007468C
:101D700000200A904AA090E8004CC068CDE905BE5A
:101D8000CDF810A007900FF21C1ADAE9000ACDE98D
:101D9000020A0FF2101ADAE9000ACDE9000A4448F3
:101DA0004068C0F381000B900B9820B1012804D04B
:101DB00002283FD103E03F4A3EE03E4A3CE03C4837
:101DC000406800F4803CBCF5803F12D13848C06ABE
:101DD00000F08048B8F1000F01D1364B00E0364BDF
:101DE0003348406800F40039B9F5003F02D15B0880
:101DF00000E0324B2E484068C0F383412C484068D5
:101E000000F0006008B141F010012948406800F07E
:101E1000804008B141F020010F2901D2891C06E061
:101E20000F2903D33E2901D8491C00E03F2103FBC1
:101E300001F201E01F4A00BF00BF1D484068C0F327
:101E4000031504A8465D22FA06F419484068C0F359
:101E5000022502A8465D24FA06F00990144840685D
:101E6000C0F3C2251DF8056024FA06F0089037B1CA
:101E7000012F06D0022F06D0032F0AD106E00A92C6
:101E800008E00A9406E009980A9003E008980A908E
:101E900000E000BF00BF0A980CB0BDE8F08F000062
:101EA000000000000000000001020304060708090A
:101EB0000010024000127A00006CDC0200093D00B4
:101EC0000146074A02EB9110006801F01F0301224E
:101ED0009A40104008B1012070470020FCE7000044
:101EE00000100240064A02EB9011096800F01F033F
:101EF00001229A401143024B03EB9012116070478C
:101F000000100240F0B50646002400270025B6F573
:101F1000006F20D005DC8EB3102E0BD0182E73D19D
:101F200061E0B6F5106F4CD0A6F54050103800288F
:101F30006AD134E004E01120FFF7C2FF0546641CBB
:101F40001DB94FF6FF708442F5D11120FFF7B8FF9D
:101F500000B1012759E005E040F60100FFF7B0FFAE
:101F60000546641C1DB96FF07C408442F4D140F6F4
:101F70000100FFF7A5FF00B1012746E0FFE704E0FD
:101F80000120FFF79DFF0546641C15B9B4F5A06F4D
:101F9000F6D10120FFF794FF00B1012735E005E0FD
:101FA00043F21100FFF78CFF0546641C15B9184871
:101FB0008442F5D143F21100FFF782FF00B10127FF
:101FC00023E005E040F60110FFF77AFF0546641CA8
:101FD00015B90F488442F5D140F60110FFF770FFA4
:101FE00000B1012711E004E01920FFF769FF054661
:101FF000641C15B906488442F6D11920FFF760FF2A
:1020000000B1012701E0FFE700BF00BF3846F0BD87
:10201000FFFF0F00064A02EB9011096800F01F0352
:1020200001229A401143024B03EB9012116070475A
:1020300000100240064A02EB9011096800F01F03ED
:1020400001229A409143024B03EB901211607047BA
:1020500000100240064A02EB9011096800F01F03CD
:1020600001229A401143024B03EB9012116070471A
:1020700000100240044A116A21F4407141EA000252
:10208000014B1A62704700000010024003480068CC
:1020900040F010000149086070470000042800402B
:1020A0000348006820F010000149086070470000F4
:1020B0000428004000B50246FFF7E8FF100C044971
:1020C000086090B2091D0860FFF7EAFF00BD00003C
:1020D0001828004000BF0348006800F020000028D6
:1020E000F9D070470428004000B50246FFF7CEFF44
:1020F000C2F303400349086090B2091D0860FFF76E
:10210000CFFF00BD082800400648006820F0080006
:102110000449086000BF0348006800F00800002878
:10212000F9D0704704280040002000213F4A12687F
:1021300042F480323D4B1A6000BF401C3B4A12689B
:1021400002F4003119B94FF6FF729042F5D1374AC7
:10215000126802F400320AB900BFFEE7334AD269BE
:1021600042F08052314BDA61314A126842F4404207
:102170002F4B1A602D4A52682C4B5A601A465268EF
:102180005A601A46526842F480625A601A4652688F
:1021900022F440325A601A46526842F440325A6081
:1021A0001A465268234B1A40204B5A601A4652680E
:1021B000214B1A431D4B5A601A46126842F0807236
:1021C0001A6000BF194A126802F00072002AF9D0A2
:1021D000174A126842F48032154B1A6000BF144A45
:1021E000526802F48032002AF9D0114A126842F48F
:1021F00000320F4B1A6000BF0D4A526802F40032E1
:10220000002AF9D0094A526822F00302074B5A60AB
:102210001A46526842F002025A6000BF034A5268EE
:1022200002F00802002AF9D07047000000100240B6
:1022300000700040FFFFC3B70000340810B5FFF77F
:1022400073FF10BD2DE9F04704460D460027B84640
:10225000B94600261D49601A8C421CD006DC1C4879
:10226000204470B1B0F5806F1FD10FE0B0F5806FE2
:1022700016D0B0F56C4F18D10320FFF775FD074657
:1022800014E00220FFF770FD07460FE00220FFF781
:102290006BFD07460AE00220FFF766FD074605E0F2
:1022A0000220FFF761FD074600E000BF00BF07EB1B
:1022B0005500B0FBF5F64FF6F07006EA000806F0A0
:1022C0000F0948EA0900A060BDE8F087004C004013
:1022D00000BCFFBF01464868C0F308007047C1F367
:1022E000080242607047000010B504462049601A99
:1022F0008C4228D006DC1F48204490B1B0F5806F96
:1023000033D117E0B0F5806F26D0B0F56C4F2CD1EB
:1023100040F20E30FFF79EFE40F20E30FFF78AFECD
:1023200024E040F21140FFF795FE40F21140FFF724
:1023300081FE1BE040F21240FFF78CFE40F212409B
:10234000FFF778FE12E040F21340FFF783FE40F201
:102350001340FFF76FFE09E040F21440FFF77AFEEA
:1023600040F21440FFF766FE00E000BF00BF10BD62
:10237000004C004000BCFFBFC16841F40051C16087
:10238000704710B5024602EB9110006801F01F047F
:102390000123A340184008B1012010BD0020FCE734
:1023A00010B500EB9112126801F01F040123A34045
:1023B0001A4300EB91131A6010BDC1F304430122CC
:1023C0009A40D24300EB91531A60704770B50246B1
:1023D00000230024C1F38910105801F01F060125C5
:1023E000B54000EA050302EB91500068C1F30446D2
:1023F0000125B54000EA050414B10BB1012070BD00
:102400000020FCE7C26822F00402C260C26801F04A
:1024100004031A43C2607047C26822F00802C26017
:10242000C26801F008031A43C2607047330C110CF4
:10243000EB0BC50B9D0B750B4D0B240BFA0ACF0A4A
:10244000A00A790A4D0A210AF409C7099A096C09F8
:102450003F091109E308B60888085A082D08000842
:10246000D207A60779074D072107F606CB06A10676
:1024700077064E062506FD05D605AF0589056405D8
:102480003F051B05F804D504B304920472045204FA
:1024900039041504F803DB03BF03A40389036F03A6
:1024A00056033D0326030E03F802E202CC02B802F3
:1024B000A30290027D026A025802470236022602F7
:1024C00016020602F701E901DB01CD01C001B301EB
:1024D000A6019A018E01830178016D016301590102
:1024E0004F0146013C0134012B0122011B01120165
:1024F0000B010301142500080000002094000000D7
:10250000000F0008A8250008940000201404000013
:10251000100F00080000F401F4010000A9090008F0
:102520000000E803E80300008B0B0008020600002F
:1025300000080140010000000806000000200140E2
:1025400000200000080600000020014000400000BC
:10255000020600000008014000010000060600001D
:10256000001801404000000007060000001C014068
:10257000400000000000000000000000000000001B
:10258000003801400E06020600080140000200006B
:102590000004000025000000000000000000000012
:0825A000000000000000000033
:0400000508000131BD
:00000001FF
