:020000040800F2
:10000000A00400204501000871030008C101000898
:100010006D0300088D010008F504000800000000D1
:100020000000000000000000000000007503000850
:100030009101000800000000730300087903000824
:100040005F0100085F0100085F0100085F01000810
:100050005F0100085F0100085F0100085F01000800
:100060005F0100085F0100085F0100085F010008F0
:100070005F0100085F0100085F0100085F010008E0
:100080005F0100085F0100085F0100085F010008D0
:100090005F0100085F0100085F0100085F010008C0
:1000A0005F0100085F0100085F0100085F010008B0
:1000B0005F0100085F0100085F0100085F010008A0
:1000C0005F0100085F0100085F0100085F01000890
:1000D0005F0100085F0100085F0100085F01000880
:1000E0005F0100085F0100085F0100085F01000870
:1000F0005F0100085F0100085F0100085F01000860
:100100005F0100085F0100085F0100085F0100084F
:100110005F0100085F0100085F0100085F0100083F
:100120005F0100085F0100085F0100085F0100082F
:10013000DFF80CD000F018F800480047EB05000885
:10014000A00400200648804706480047FEE7FEE777
:10015000FEE7FEE7FEE7FEE7FEE7FEE7FEE7FEE777
:100160009103000831010008064C074D06E0E068E5
:1001700040F0010394E8070098471034AC42F6D3EE
:10018000FFF7DAFF180900083809000800BFFEE78A
:10019000704770B50025002407E0204600F032F8D3
:1001A000054605B103E0601CC4B2042CF5D300BFC2
:1001B000284670BD014903C970470000580000205F
:1001C00000BFFEE710B5002417E004EB44010C4A21
:1001D00032F8210000F002FB04EB4401084A02EB74
:1001E00081018B6804EB440102EB81010222486823
:1001F000042100F094F9601CC4B2042CE5D310BDB6
:10020000240000207CB5044604EB44023E4B03EB83
:100210008202916804EB440203EB8202506800F012
:10022000DCF90546394800EB0410007830B10128AC
:1002300012D0022830D003285CD150E05DB90120F3
:10024000324901EB04110870FFF7B4FF2F4A02EBAB
:100250000412C2E9020153E0C5B9FFF7ABFFCDE9D3
:1002600000012A4800EB0410D0E90223DDE9001068
:100270008A1A60EB03000A2300219A1A81410AD2EC
:100280000220224901EB0411087004E000201F49FC
:1002900001EB0411087033E03DB100201B4901EB74
:1002A00004110870601CC0B27CBDFFF783FFCDE96C
:1002B0000001164800EB0410D0E90216DDE9003019
:1002C0005A1A60EB06004FF47A7300219A1A8141A2
:1002D00004D203200D4901EB0411087010E045B170
:1002E00000200A4901EB0411087004F18100C0B23A
:1002F000DAE705E00020054901EB0411087000BFB2
:1003000000BF0020D0E70000240000206000002093
:1003100010B5002424E004EB4401134A32F8210014
:1003200000F05CFA04EB44010F4A02EB81018B6898
:1003300004EB440102EB810102224868102100F025
:10034000EEF804EB4402084B03EB8202916804EBE5
:10035000440203EB8202506800F0DDF8601CC4B276
:10036000032CD8D310BD00000000002000BFFEE722
:1003700070477047704700000448D0E900305A1CAD
:1003800040F100000149C1E90020704758000020F9
:1003900008B52648006840F47000244908602448E5
:1003A000006840F001002249086000BF2048006852
:1003B00000F002000028F9D000BF1D48406840F05E
:1003C00080001B4948600020009002E00098401C1B
:1003D000009000985028F9D31548406840F09000EC
:1003E000134948600020009002E00098401C0090F3
:1003F00000985028F9D300BF0D48406820F0030052
:100400000B494860084600680A49084008490860E6
:100410004FF41F0088600846006820F480200860C0
:1004200000204860C86200F073FA08BD88ED00E063
:1004300000100240FFFFF6FE70B5012000F022F927
:100440004FF47A71B0FBF1F4601EB0F1807F01D3FC
:1004500001201BE0601E4FF0E021486148170F218A
:10046000002807DA0A07150E0A4A00F00F031B1FBF
:10047000D55403E00A07130E074A135400BF0020A7
:100480004FF0E021886107200861002008B100BF1B
:10049000FEE770BD18ED00E000E400E010B5044692
:1004A000032C00D310BD04EB4402064B03EB820285
:1004B000916804EB440203EB8202506800F02BF8D1
:1004C00000BFEFE70000002010B50446032C00D366
:1004D00010BD04EB4402064B03EB8202916804EB6F
:1004E000440203EB8202506800F017F800BFEFE708
:1004F0000000002000BFFEE702E008C8121F08C18C
:10050000002AFAD170477047002001E001C1121F94
:10051000002AFBD170474161704701617047F0B517
:10052000044616460025002201F00F0501F01007D1
:1005300047B1042E05D145F00305E76B1F43E76380
:1005400000E0354300201EE0012787401F40C7B16F
:1005500022684FEA800C0F2707FA0CF7BA4387008E
:1005600005FA07F73A43282904D1012787401F409D
:10057000676105E0482903D1012787401F402761B3
:100580002260471CB8B20828DED3082022E00127E9
:1005900087401F40E7B16268A0F108074FEA870C67
:1005A0000F2707FA0CF7BA43A0F10807BF0005FAB6
:1005B00007F73A43282904D1012787401F40676184
:1005C00005E0482903D1012787401F402761626069
:1005D000471CB8B21028DAD3F0BD02469068084034
:1005E00008B1012070470020FCE7FFF791FEFFF7FC
:1005F000E9FDFFF721FF43E0FFF7CBFD0446812C27
:1006000014D008DC012C0DD0022C13D0032C19D0EF
:10061000042C33D11EE0822C10D0832C16D0842CD5
:100620002CD121E00020FFF74FFF28E00020FFF74A
:1006300035FF24E00120FFF747FF20E00120FFF70E
:100640002DFF1CE00220FFF73FFF18E00220FFF71C
:1006500025FF14E00020FFF737FF0120FFF734FFEC
:100660000220FFF731FF0AE00020FFF717FF01200B
:10067000FFF714FF0220FFF711FF00E000BF00BFEB
:10068000BAE700002DE9F04F8CB0074600200A9031
:100690004AA090E8004CC068CDE905BECDF810A096
:1006A00007900FF21C1ADAE9000ACDE9020A0FF2EC
:1006B000101ADAE9000ACDE9000A44484068C0F39C
:1006C00081000B900B9820B1012804D002283FD163
:1006D00003E03F4A3EE03E4A3CE03C48406800F4CC
:1006E000803CBCF5803F12D13848C06A00F0804899
:1006F000B8F1000F01D1364B00E0364B334840686B
:1007000000F40039B9F5003F02D15B0800E0324B3C
:100710002E484068C0F383412C48406800F00060D8
:1007200008B141F010012948406800F0804008B14C
:1007300041F020010F2901D2891C06E00F2903D3C3
:100740003E2901D8491C00E03F2103FB01F201E0F2
:100750001F4A00BF00BF1D484068C0F3031504A82E
:10076000465D22FA06F419484068C0F3022502A843
:10077000465D24FA06F0099014484068C0F3C2258B
:100780001DF8056024FA06F0089037B1012F06D055
:10079000022F06D0032F0AD106E00A9208E00A943D
:1007A00006E009980A9003E008980A9000E000BF6C
:1007B00000BF0A980CB0BDE8F08F000000000000F8
:1007C00000000000010203040607080900100240AF
:1007D00000127A00006CDC0200093D00064A02EBC0
:1007E0009011096800F01F0301229A401143024B47
:1007F00003EB9012116070470010024000200021AE
:100800003F4A126842F480323D4B1A6000BF401CE0
:100810003B4A126802F4003119B94FF6FF72904258
:10082000F5D1374A126802F400320AB900BFFEE778
:10083000334AD26942F08052314BDA61314A126850
:1008400042F440422F4B1A602D4A52682C4B5A609A
:100850001A4652685A601A46526842F480625A60D8
:100860001A46526822F440325A601A46526842F4DC
:1008700040325A601A465268234B1A40204B5A6045
:100880001A465268214B1A431D4B5A601A46126889
:1008900042F080721A6000BF194A126802F00072BA
:1008A000002AF9D0174A126842F48032154B1A60B8
:1008B00000BF144A526802F48032002AF9D0114A6B
:1008C000126842F400320F4B1A6000BF0D4A5268A2
:1008D00002F40032002AF9D0094A526822F00302D9
:1008E000074B5A601A46526842F002025A6000BF33
:1008F000034A526802F00802002AF9D0704700004B
:100900000010024000700040FFFFC3B70000340831
:1009100010B5FFF773FF10BD380900080000002074
:1009200060000000F804000898090008600000203A
:10093000400400000805000802060000000801400D
:100940000001000006060000001801404000000001
:1009500007060000001C01404000000002060000E5
:1009600000080140010000000806000000200140CE
:1009700000200000080600000020014000400000A8
:100980000806000000200140008000000000000078
:0809900000000000000000005F
:0400000508000131BD
:00000001FF
