:020000040800F2
:10000000B804002049010008F9030008FF020008B5
:10001000F503000865020008C5060008000000009E
:100020000000000000000000000000009104000833
:100030006902000800000000FB030008A10400089A
:100040006301000863010008630100086301000800
:1000500063010008630100086301000863010008F0
:1000600063010008630100086301000863010008E0
:1000700063010008630100086301000863010008D0
:1000800063010008630100086301000863010008C0
:1000900063010008630100086301000863010008B0
:1000A00063010008630100086301000863010008A0
:1000B0006301000863010008630100086301000890
:1000C0006301000863010008630100086301000880
:1000D0006301000889060008630100086301000845
:1000E0006301000863010008630100086301000860
:1000F0006301000863010008630100086301000850
:10010000630100086301000863010008630100083F
:10011000630100086301000863010008630100082F
:10012000630100086301000863010008630100081F
:10013000DFF810D000F07CF800480047410C0008C0
:10014000AFF30080B8040020064880470648004707
:10015000FEE7FEE7FEE7FEE7FEE7FEE7FEE7FEE777
:10016000FEE7FEE7D10400083101000830B50B4678
:10017000014600202022012409E021FA02F59D42D7
:1001800005D303FA02F5491B04FA02F52844151EAB
:10019000A2F10102F1DC30BD014900F003B800001A
:1001A0008C00002010B500683C22B0FBF2F302FB8B
:1001B0001303B0FBF2F00B60B0FBF2F302FB13038E
:1001C000B0FBF2F018224B60B0FBF2F302FB13031A
:1001D000B0FBF2F0021D8B600723B2FBF3F403FBCC
:1001E0001422800040F2B55300F66C308A61B0FBF7
:1001F000F3F2B0FBF3F403FB1400443280084A61CD
:10020000C8613B2802D3920700D0401C0022074C53
:1002100013460A61E25C824203D8801A5B1C0B61C0
:10022000F8E7401CC860084610BD00003C140008F8
:10023000064C074D06E0E06840F0010394E8070033
:1002400098471034AC42F6D3FFF776FF4814000805
:100250006814000810B5024800F010FA10BD000044
:100260001506000800BFFEE7704700000C48006854
:1002700020F080700A4908600846006840F08070ED
:1002800008600848006820F0010006490860084638
:10029000006840F0010008600020486070470000DE
:1002A000FCED00E0001000E010B5FFF7DFFF00F00C
:1002B00073F800F051F800F007FA00F09FF800F032
:1002C000E8F800F059F910BD38B5044600F0F0FE2A
:1002D00000F5E14000906846FFF75EFF0546A88AFA
:1002E00000F26C702080287C401CA070287BE0709D
:1002F000287A2071287960712878A07138BD00BFF4
:10030000FEE7000000B585B003A8FFF7DDFF9DF80C
:1003100012009DF811109DF81020CDE900210290E7
:100320009DF80F309DF80E20BDF80C1002A000F0D3
:1003300015FA05B000BD000025642D253032642D6E
:100340002530326420253032643A253032643A2533
:100350003032640A0000000010B5002417E004EBFE
:1003600044010C4A32F8210000F052FE04EB440133
:10037000084A02EB81018B6804EB440102EB810126
:1003800002224868042100F0FDFB601CC4B2032C6B
:10039000E5D310BD1800002010B5002424E004EBC4
:1003A0004401134A32F8210000F032FE04EB44010C
:1003B0000F4A02EB81018B6804EB440102EB8101DF
:1003C00002224868102100F0DDFB04EB4402084BD8
:1003D00003EB8202916804EB440203EB8202506853
:1003E00000F0CEFB601CC4B2032CD8D310BD0000BB
:1003F0003C00002000BFFEE77047704710B50120A9
:1004000000F074FB45F65A2188422ED040F21C7051
:1004100000F0FEFD40F21B7000F0FAFD00F084FCDD
:1004200000F05DFB4FF4006000F05AFD4FF40060F7
:1004300000F066FD4FF4807000F01AFE40F60F00E9
:1004400000F0E6FD00F068FE00F04CFE47F6FF709D
:1004500000F052FE00F046FE0C4800F033FE45F678
:100460005A21012000F05EFB10BD40F21C7000F02C
:10047000CFFD40F21B7000F0CBFD00F055FC00F00A
:100480004BFE00F02FFE00BFEEE70000F624FE63F7
:1004900070477047704710B5FFF7FCFF10BD0000B4
:1004A00010B5094802684068521C40F10000064936
:1004B0000A6048600548006800B910BD034800683C
:1004C000804700BFF9E700006000002068000020BE
:1004D00008B52648006840F47000244908602448A4
:1004E000006840F001002249086000BF2048006811
:1004F00000F002000028F9D000BF1D48406840F01D
:1005000080001B4948600020009002E00098401CD9
:10051000009000985028F9D31548406840F09000AA
:10052000134948600020009002E00098401C0090B1
:1005300000985028F9D300BF0D48406820F0030010
:100540000B494860084600680A49084008490860A5
:100550004FF41F0088600846006820F4802008607F
:1005600000204860C86200F071FE08BD88ED00E020
:1005700000100240FFFFF6FE70B5012000F0F2FB14
:100580004FF47A71B0FBF1F4601EB0F1807F01D3BB
:1005900001201BE0601E4FF0E021486148170F2149
:1005A000002807DA0A07150E0A4A00F00F031B1F7E
:1005B000D55403E00A07130E074A135400BF002066
:1005C0004FF0E021886107200861002008B100BFDA
:1005D000FEE770BD18ED00E000E400E010B5002477
:1005E00013E004EB44000A4911F8200058B1002040
:1005F00004EB4401064A02F8210004EB440102EB3B
:10060000810188688047601CC4B2022CE9D310BD08
:100610000000002000202BE000EB4001164A02EB16
:100620008101498811B300EB400102EB8101498847
:10063000491E00EB4002104B03EB8202518000EB9D
:1006400040011A4602EB8101498879B9012100EB8A
:10065000400203F8221000EB40011A4602EB810130
:10066000898800EB400203EB82025180411CC8B232
:100670000228D1D370470000000000200149086023
:10068000704700006800002010B50B4908680B494E
:1006900000F0A4FE70B108490868084900F095FE12
:1006A0000549086800F01EFEC4B2204604490968E6
:1006B000884700BF10BD00006C0000200503050046
:1006C0008400002000BFFEE710B500F005F84FF4ED
:1006D000E13000F017F810BD10B50949C88800F0E6
:1006E00097FC0749CB6801228868182100F04AFA74
:1006F00003490B6901228868482100F043FA10BDC4
:100700006C00002010B504461349888800F080FC76
:100710001149086800F0F0FD0F490868214600F013
:1007200099FD0D490868082100F07EFE0A49086815
:10073000042100F06FFE0849086840F2053100F01E
:1007400037FE0549087D0022114600F081FA024972
:10075000086800F019FE10BD6C0000200FB4054BB6
:1007600010B503A9044A029800F018F810BC5DF80F
:1007700014FB0000590B00088800002002E008C8A4
:10078000121F08C1002AFAD170477047002001E00B
:1007900001C1121F002AFBD1704700002DE9FF4F55
:1007A0008BB088460546002606E025280BD0DDE9FB
:1007B0000D1290476D1C761C28780028F5D10FB0DB
:1007C0003046BDE8F08F0024A146A2460122AE4982
:1007D00000E0044315F8013F203B02FA03F0084211
:1007E000F7D128782A2810D06FF02F022878A0F1AE
:1007F0003001092915D809EB890102EB410144F0C8
:10080000020400EB01096D1CF0E758F8041B5FEAD5
:10081000010903D544F40054C9F1000944F002046D
:100820006D1C28782E2817D115F8010F44F0040408
:100830002A280ED06FF02F022878A0F13001092964
:100840000AD80AEB8A0102EB410100EB010A6D1C98
:10085000F2E758F804AB6D1C28786C280FD006DC42
:100860004C2817D068280DD06A2814D104E07428C9
:1008700010D07A280FD10DE044F400140AE044F4BB
:10088000801401E044F440146978814202D104F5F7
:1008900080146D1C6D1C2878692865D006DC002842
:1008A0008DD0632827D0642806D15DE06E2808D05B
:1008B00073282AD0752877D0DDE90D129047761C71
:1008C000E0E0C4F30250022809D003280DD0D8F884
:1008D000001004280DD00E6008F10408D2E0D8F80A
:1008E0000010F217C1E90062F6E7D8F800100E8098
:1008F000F2E70E70F0E718F8041B8DF800100020E6
:100900008DF80100EB46012003E058F804BB4FF0DE
:10091000FF3061074FF0000701D40AE07F1C574504
:100920000DDA8742FADB1BF807100029F6D106E042
:100930007F1C8742FCDB1BF807100029F8D1DDE99A
:100940000D23A9EB07008146214600F0B1F83044A1
:10095000C61904E0DDE90D121BF8010B90477F1E5C
:10096000F8D22146484688E058F8040BC4F30251F7
:100970004FF00A0B032900D100B2042900D140B284
:10098000002802DA40422D2102E0210505D52B2165
:100990008DF82410012104E006E0E10710D02021A9
:1009A000F6E708AF089113E058F8040BC4F30251BE
:1009B0004FF00A0B032900D180B2042900D1C0B244
:1009C0000021EEE75946FFF7D1FB303107F8011D52
:1009D0000028F7D1ADEB070000F1200B600702D52E
:1009E00024F4803401E04FF0010ADA4502DDAAEB7D
:1009F0000B0000E00020824600EB0B010898014448
:100A0000A9EB01000A90E00306D4DDE90D2321469D
:100A10000A9800F04DF806444FF0000908E009A9D3
:100A200011F80900DDE90D12904709F10109761C62
:100A300008998945F3DBE0030CD5DDE90D23214658
:100A40000A9800F035F8064404E0DDE90D12302084
:100A50009047761CBAF10001AAF1010AF5DC05E025
:100A6000DDE90D1217F8010B9047761CBBF1000170
:100A7000ABF1010BF4DC0A982146DDE90D2300F00F
:100A800005F806446D1C97E6092801002DE9F041A0
:100A9000044600251E461746880404D405E039465E
:100AA0002020B0476D1C641EF9D52846BDE8F081B2
:100AB0002DE9F041044600251E469046C80301D5A5
:100AC000302700E02027880404D505E04146384659
:100AD000B0476D1C641EF9D52846BDE8F08110B5FD
:100AE00000F036F900F02AF910BD000001460020A0
:100AF0000B2909DB2A2907DCA1F10B02084B03EBC8
:100B00008202B2F8400C09E0012907DB0A2905DC62
:100B10004A1E034B03EB8202B2F8040C704700003C
:100B2000006000400B2809DB2A2807DCA0F10B023B
:100B3000084B03EB8202A2F8401C09E0012807DB06
:100B40000A2805DC421E034B03EB8202A2F8041CB8
:100B5000704700000060004070B504460D46E1B2E9
:100B6000064A106800F0C3FB00BF0449086807216B
:100B700000F00FFC0028F8D0204670BD6C0000206B
:100B800041617047F0B5044616460025002201F089
:100B90000F0501F0100747B1042E05D145F00305FC
:100BA000E76B1F43E76300E0354300201EE00127A9
:100BB00087401F40C7B122684FEA800C0F2707FA11
:100BC0000CF7BA43870005FA07F73A43282904D1FE
:100BD000012787401F40676105E0482903D10127AD
:100BE00087401F4027612260471CB8B20828DED327
:100BF000082022E0012787401F40E7B16268A0F18A
:100C000008074FEA870C0F2707FA0CF7BA43A0F141
:100C10000807BF0005FA07F73A43282904D101273E
:100C200087401F40676105E0482903D101278740BD
:100C30001F4027616260471CB8B21028DAD3F0BDAC
:100C4000FFF732FBFFF706FB01E0FFF7C7FCFCE70D
:100C50002DE9F04103460D46164600240027A04624
:100C60002A48006800F4E060B0F5E06F03D100BFEF
:100C70004FF0040830E02548006800F4E060B0F56B
:100C8000C06F03D101274FF0030825E01F4800681B
:100C900000F4E060B0F5A06F02D10227B8461BE077
:100CA0001A48006800F4E060B0F5806F03D10327B4
:100CB0004FF0010810E01548006800F4E060B0F55E
:100CC000407F03D104274FF0000805E04FF4A060F7
:100CD00000F020F80227B846C7F1040005FA00F436
:100CE000C8F104010F20C8403040044324010848E3
:100CF000C45403F01F01012088405911890001F1FB
:100D0000E021C1F80001BDE8F08100000CED00E039
:100D100000E400E002490143024A1160704700000C
:100D20000000FA050CED00E00348006840F4807014
:100D30000149086070470000007000400348006AE5
:100D400020F4803001490862704700000010024022
:100D50000348006A40F4803001490862704700008F
:100D6000001002402DE9F04F8CB0074600200A9099
:100D70004AA090E8004CC068CDE905BECDF810A0AF
:100D800007900FF21C1ADAE9000ACDE9020A0FF205
:100D9000101ADAE9000ACDE9000A44484068C0F3B5
:100DA00081000B900B9820B1012804D002283FD17C
:100DB00003E03F4A3EE03E4A3CE03C48406800F4E5
:100DC000803CBCF5803F12D13848C06A00F08048B2
:100DD000B8F1000F01D1364B00E0364B3348406884
:100DE00000F40039B9F5003F02D15B0800E0324B56
:100DF0002E484068C0F383412C48406800F00060F2
:100E000008B141F010012948406800F0804008B165
:100E100041F020010F2901D2891C06E00F2903D3DC
:100E20003E2901D8491C00E03F2103FB01F201E00B
:100E30001F4A00BF00BF1D484068C0F3031504A847
:100E4000465D22FA06F419484068C0F3022502A85C
:100E5000465D24FA06F0099014484068C0F3C225A4
:100E60001DF8056024FA06F0089037B1012F06D06E
:100E7000022F06D0032F0AD106E00A9208E00A9456
:100E800006E009980A9003E008980A9000E000BF85
:100E900000BF0A980CB0BDE8F08F00000000000011
:100EA00000000000010203040607080900100240C8
:100EB00000127A00006CDC0200093D000146074A7E
:100EC00002EB9110006801F01F0301229A401040CC
:100ED00008B1012070470020FCE70000001002402C
:100EE000064A02EB9011096800F01F0301229A40A4
:100EF0001143024B03EB9012116070470010024047
:100F0000F0B50646002400270025B6F5006F20D076
:100F100005DC8EB3102E0BD0182E73D161E0B6F520
:100F2000106F4CD0A6F54050103800286AD134E03C
:100F300004E01120FFF7C2FF0546641C1DB94FF6FF
:100F4000FF708442F5D11120FFF7B8FF00B10127EF
:100F500059E005E040F60100FFF7B0FF0546641CCC
:100F60001DB96FF07C408442F4D140F60100FFF7D8
:100F7000A5FF00B1012746E0FFE704E00120FFF7ED
:100F80009DFF0546641C15B9B4F5A06FF6D101208C
:100F9000FFF794FF00B1012735E005E043F21100AF
:100FA000FFF78CFF0546641C15B918488442F5D13B
:100FB00043F21100FFF782FF00B1012723E005E0B3
:100FC00040F60110FFF77AFF0546641C15B90F487B
:100FD0008442F5D140F60110FFF770FF00B1012700
:100FE00011E004E01920FFF769FF0546641C15B9FC
:100FF00006488442F6D11920FFF760FF00B10127AF
:1010000001E0FFE700BF00BF3846F0BDFFFF0F0063
:10101000064A02EB9011096800F01F0301229A4072
:101020001143024B03EB9012116070470010024015
:10103000064A02EB9011096800F01F0301229A4052
:101040009143024B03EB9012116070470010024075
:10105000064A02EB9011096800F01F0301229A4032
:101060001143024B03EB90121160704700100240D5
:10107000044A116A21F4407141EA0002014B1A62EC
:1010800070470000001002400348006840F0100064
:1010900001490860704700000428004003480068C8
:1010A00020F010000149086070470000042800404B
:1010B000002003490868091F096840EA0140704799
:1010C0001C28004000B50246FFF7DEFF100C044963
:1010D000086090B2091D0860FFF7E0FF00BD000046
:1010E0001828004000BF0348006800F020000028D6
:1010F000F9D070470428004000B50246FFF7C4FF4E
:10110000C2F303400349086090B2091D0860FFF76D
:10111000C5FF00BD082800400648006820F0080010
:101120000449086000BF0348006800F00800002878
:10113000F9D0704704280040002000213F4A12687F
:1011400042F480323D4B1A6000BF401C3B4A12689B
:1011500002F4003119B94FF6FF729042F5D1374AC7
:10116000126802F400320AB900BFFEE7334AD269BE
:1011700042F08052314BDA61314A126842F4404207
:101180002F4B1A602D4A52682C4B5A601A465268EF
:101190005A601A46526842F480625A601A4652688F
:1011A00022F440325A601A46526842F440325A6081
:1011B0001A465268234B1A40204B5A601A4652680E
:1011C000214B1A431D4B5A601A46126842F0807236
:1011D0001A6000BF194A126802F00072002AF9D0A2
:1011E000174A126842F48032154B1A6000BF144A45
:1011F000526802F48032002AF9D0114A126842F48F
:1012000000320F4B1A6000BF0D4A526802F40032E0
:10121000002AF9D0094A526822F00302074B5A60AB
:101220001A46526842F002025A6000BF034A5268EE
:1012300002F00802002AF9D07047000000100240B6
:1012400000700040FFFFC3B70000340810B5FFF77F
:1012500073FF10BD2DE9F04704460D460027B84640
:10126000B94600261D49601A8C421CD006DC1C4879
:10127000204470B1B0F5806F1FD10FE0B0F5806FE2
:1012800016D0B0F56C4F18D10320FFF76BFD074661
:1012900014E00220FFF766FD07460FE00220FFF78B
:1012A00061FD07460AE00220FFF75CFD074605E006
:1012B0000220FFF757FD074600E000BF00BF07EB25
:1012C0005500B0FBF5F64FF6F07006EA000806F0A0
:1012D0000F0948EA0900A060BDE8F087004C004013
:1012E00000BCFFBF01464868C0F308007047C1F367
:1012F000080242607047000010B504462049601A99
:101300008C4228D006DC1F48204490B1B0F5806F95
:1013100033D117E0B0F5806F26D0B0F56C4F2CD1EB
:1013200040F20E30FFF794FE40F20E30FFF780FEE1
:1013300024E040F21140FFF78BFE40F21140FFF72E
:1013400077FE1BE040F21240FFF782FE40F21240AF
:10135000FFF76EFE12E040F21340FFF779FE40F215
:101360001340FFF765FE09E040F21440FFF770FEFE
:1013700040F21440FFF75CFE00E000BF00BF10BD6C
:10138000004C004000BCFFBFC16841F40051C16087
:10139000704710B5024602EB9110006801F01F047F
:1013A0000123A340184008B1012010BD0020FCE734
:1013B00010B500EB9112126801F01F040123A34045
:1013C0001A4300EB91131A6010BDC1F304430122CC
:1013D0009A40D24300EB91531A60704770B50246B1
:1013E00000230024C1F38910105801F01F060125C5
:1013F000B54000EA050302EB91500068C1F30446D2
:101400000125B54000EA050414B10BB1012070BDFF
:101410000020FCE7C26822F00402C260C26801F04A
:1014200004031A43C2607047C26822F00802C26017
:10143000C26801F008031A43C26070471F1D1F1ED7
:101440001F1E1F1F1E1F1E1F681400080000002003
:101450008C0000007C070008F41400088C000020B9
:101460002C0400008C0700080000F401F4010000C7
:10147000050300080000E803E803000097040008E3
:1014800002060000000801400100000008060000FC
:10149000002001400020000008060000002001405C
:1014A00000400000020600000008014000010000AA
:1014B000060600000018014040000000070600007A
:1014C000001C01404000000000000000000000007F
:1014D00000000000003801400E060206000801402E
:1014E00000020000000400002500000000000000D1
:0414F00000000000F8
:0400000508000131BD
:00000001FF
