:020000040800F2
:10000000480400204501000805030008E30100083A
:10001000010300088D0100081D0400080000000015
:1000200000000000000000000000000009030008BC
:100030009101000800000000070300080D030008FC
:100040005F0100085F0100085F0100085F01000810
:100050005F0100085F010008930100085F010008CC
:100060005F0100085F0100085F0100085F010008F0
:100070005F0100085F0100085F0100085F010008E0
:100080005F0100085F0100085F0100085F010008D0
:100090005F0100085F0100085F0100085F010008C0
:1000A0005F0100085F0100085F0100085F010008B0
:1000B0005F0100085F0100085F0100085F010008A0
:1000C0005F0100085F0100085F0100085F01000890
:1000D0005F0100085F0100085F0100085F01000880
:1000E000AF0100085F0100085F0100085F01000820
:1000F0005F0100085F0100085F0100085F01000860
:100100005F0100085F0100085F0100085F0100084F
:100110005F0100085F0100085F0100085F0100083F
:100120005F0100085F0100085F0100085F0100082F
:10013000DFF80CD000F018F800480047610700080D
:10014000480400200648804706480047FEE7FEE7CF
:10015000FEE7FEE7FEE7FEE7FEE7FEE7FEE7FEE777
:100160002503000831010008064C074D06E0E06851
:1001700040F0010394E8070098471034AC42F6D3EE
:10018000FFF7DAFFA40C0008C40C000800BFFEE76C
:10019000704710B5012000F009FA38B1002000F0D6
:1001A00015F9012000F0FCF900BFFEE710BD10B505
:1001B0004FF4005000F0FAF930B1012000F006F9D8
:1001C0004FF4005000F0ECF94FF4804000F0EEF9ED
:1001D00030B1022000F0FAF84FF4804000F0E0F96E
:1001E00010BD00BFFEE710B500F03AF800F001F8CE
:1001F00010BD10B54FF4C06000F0E4FB00210846CC
:1002000000F0FCF901220021104600F06BF90120FA
:1002100000F0C6F901221146062000F0BBFA0D21BC
:10022000062000F0EBF901220021500300F05AF9FA
:100230004FF4005000F0B4F90E21062000F0DEF972
:1002400001220021900300F04DF94FF4804000F0AE
:10025000A7F901220021282000F09CFA10BD00001F
:1002600010B540F2026000F0ADFB01230222042130
:100270000A4800F00FFA4FF4C16000F0A3FB4FF4FE
:10028000005302220421064800F004FA4FF4804390
:1002900002220421024800F0FDF910BD00080140CF
:1002A0000020014010B5002424E004EB4401134A6F
:1002B00032F8210000F086FB04EB44010F4A02EB08
:1002C00081018B6804EB440102EB81010222486842
:1002D000102100F0DFF904EB4402084B03EB82022B
:1002E000916804EB440203EB8202506800F07EF94F
:1002F000601CC4B2032CD8D310BD00000000002045
:1003000000BFFEE770477047704700000448D0E91F
:1003100000305A1C40F100000149C1E9002070473B
:100320002800002008B52648006840F470002449E1
:1003300008602448006840F001002249086000BFBE
:100340002048006800F002000028F9D000BF1D48D6
:10035000406840F080001B4948600020009002E0A7
:100360000098401C009000985028F9D31548406828
:1003700040F09000134948600020009002E000988F
:10038000401C009000985028F9D300BF0D484068E9
:1003900020F003000B494860084600680A490840FD
:1003A000084908604FF41F0088600846006820F480
:1003B0008020086000204860C86200F0BDFB08BDD6
:1003C00088ED00E000100240FFFFF6FE70B5044625
:1003D000032C00D370BD04EB44020F4B03EB8202ED
:1003E000916804EB440203EB8202506800F0B0F91C
:1003F0000546C5F10100C5B204EB4402064B03EB10
:100400008202916804EB440203EB820250682A46A0
:1004100000F0EEF800BFDDE70000002000BFFEE7BF
:1004200010B500F005F84FF4E13000F017F810BDFA
:1004300010B50949C88800F0C5FA0749CB68012200
:100440008868182100F026F903490B6901228868A1
:10045000482100F01FF910BD3000002010B50446FF
:100460000B49888800F0AEFA0949086800F0B4FB2F
:1004700007490868214600F063FB05490868082120
:1004800000F006FC0249086800F0EEFB10BD000019
:1004900030000020014A024900F013B8C5050008E9
:1004A0004400002002E008C8121F08C1002AFAD147
:1004B00070477047002001E001C1121F002AFBD1E4
:1004C00070472DE9F04116460F460446002503E02B
:1004D0003946B047641C6D1C20780028F8D12846A6
:1004E000BDE8F08110B52D4B1B6883432B4C236076
:1004F000231D1B688343241D2360231D1B68834326
:10050000241D2360231D1B688343241D236011B118
:1005100001290ED105E0214B1B6803431F4C2360CA
:1005200008E01E4B1B1D1B6803431C4C241D23604D
:1005300000E000BF00BF32B1012A11D0022A1CD056
:10054000032A27D127E0154B08331B680343134CBC
:1005500008342360231D1B688343241D23601BE094
:100560000E4B08331B6883430C4C08342360231D57
:100570001B680343241D23600EE0084B08331B68EF
:100580000343064C08342360231D1B680343241DCA
:10059000236001E000BF00BF00BF10BD00040140A8
:1005A00001490860704700001404014001460448F6
:1005B0000068084008B1012070470020FCE70000F7
:1005C0001404014070B504460D46E1B2064A1068B5
:1005D00000F0FEFA00BF04490868072100F049FB5B
:1005E0000028F8D0204670BD3000002041617047DF
:1005F0000AB1016100E041617047000010B50022BE
:100600008B071C0F0F2303FA04F204290EDA204B88
:100610009B6893431E4CA36023469B688C07240F62
:1006200000FA04F423431A4CA3602FE008290EDAE1
:10063000174BDB689343164CE3602346DB688C075B
:10064000240F00FA04F42343114CE3601EE00C294C
:100650000EDA0F4B1B6993430D4C236123461B6934
:100660008C07240F00FA04F42343094C23610DE0A6
:10067000074B5B699343064C636123465B698C07B8
:10068000240F00FA04F42343014C636110BD000001
:1006900000000140F0B5044616460025002201F096
:1006A0000F0501F0100747B1042E05D145F00305F1
:1006B000E76B1F43E76300E0354300201EE001279E
:1006C00087401F40C7B122684FEA800C0F2707FA06
:1006D0000CF7BA43870005FA07F73A43282904D1F3
:1006E000012787401F40676105E0482903D10127A2
:1006F00087401F4027612260471CB8B20828DED31C
:10070000082022E0012787401F40E7B16268A0F17E
:1007100008074FEA870C0F2707FA0CF7BA43A0F136
:100720000807BF0005FA07F73A43282904D1012733
:1007300087401F40676105E0482903D101278740B2
:100740001F4027616260471CB8B21028DAD3F0BDA1
:1007500002469068084008B1012070470020FCE77D
:10076000FFF7A0FDFFF73FFDFFF75AFE03A0FFF7DD
:1007700091FE06A0FFF78EFE00BFFEE748656C6C99
:100780006F20776F726C6421200A0000D7F6C4E0F6
:100790000D0A00002DE9F04103460D4616460024DF
:1007A0000027A0462A48006800F4E060B0F5E06F3A
:1007B00003D100BF4FF0040830E02548006800F482
:1007C000E060B0F5C06F03D101274FF0030825E0CA
:1007D0001F48006800F4E060B0F5A06F02D1022766
:1007E000B8461BE01A48006800F4E060B0F5806F7E
:1007F00003D103274FF0010810E01548006800F40A
:10080000E060B0F5407F03D104274FF0000805E019
:100810004FF4A06000F020F80227B846C7F10400AA
:1008200005FA00F4C8F104010F20C8403040044329
:1008300024010848C45403F01F01012088405911C5
:10084000890001F1E021C1F80001BDE8F08100005C
:100850000CED00E000E400E002490143024A1160AF
:10086000704700000000FA050CED00E02DE9F04FA4
:100870008CB0074600200A904AA090E8004CC0685F
:10088000CDE905BECDF810A007900FF21C1ADAE9E9
:10089000000ACDE9020A0FF2101ADAE9000ACDE9DE
:1008A000000A44484068C0F381000B900B9820B1C7
:1008B000012804D002283FD103E03F4A3EE03E4AEF
:1008C0003CE03C48406800F4803CBCF5803F12D1DD
:1008D0003848C06A00F08048B8F1000F01D1364BAB
:1008E00000E0364B3348406800F40039B9F5003F6A
:1008F00002D15B0800E0324B2E484068C0F38341D0
:100900002C48406800F0006008B141F0100129480F
:10091000406800F0804008B141F020010F2901D269
:10092000891C06E00F2903D33E2901D8491C00E0A9
:100930003F2103FB01F201E01F4A00BF00BF1D4839
:100940004068C0F3031504A8465D22FA06F419486E
:100950004068C0F3022502A8465D24FA06F009901B
:1009600014484068C0F3C2251DF8056024FA06F05B
:10097000089037B1012F06D0022F06D0032F0AD1DD
:1009800006E00A9208E00A9406E009980A9003E05B
:1009900008980A9000E000BF00BF0A980CB0BDE8BC
:1009A000F08F0000000000000000000001020304BE
:1009B000060708090010024000127A00006CDC02F1
:1009C00000093D00064A02EB9011096800F01F0380
:1009D00001229A401143024B03EB901211607047C1
:1009E00000100240064A02EB9011096800F01F0354
:1009F00001229A409143024B03EB90121160704721
:100A000000100240064A02EB9011096800F01F0333
:100A100001229A401143024B03EB90121160704780
:100A200000100240002000213F4A126842F4803248
:100A30003D4B1A6000BF401C3B4A126802F4003173
:100A400019B94FF6FF729042F5D1374A126802F495
:100A500000320AB900BFFEE7334AD26942F0805241
:100A6000314BDA61314A126842F440422F4B1A602E
:100A70002D4A52682C4B5A601A4652685A601A46E0
:100A8000526842F480625A601A46526822F4403238
:100A90005A601A46526842F440325A601A46526806
:100AA000234B1A40204B5A601A465268214B1A4376
:100AB0001D4B5A601A46126842F080721A6000BFDD
:100AC000194A126802F00072002AF9D0174A126817
:100AD00042F48032154B1A6000BF144A526802F487
:100AE0008032002AF9D0114A126842F400320F4BCA
:100AF0001A6000BF0D4A526802F40032002AF9D091
:100B0000094A526822F00302074B5A601A4652689B
:100B100042F002025A6000BF034A526802F0080223
:100B2000002AF9D070470000001002400070004019
:100B3000FFFFC3B70000340810B5FFF773FF10BD07
:100B40002DE9F04704460D460027B846B946002671
:100B50001D49601A8C421CD006DC1C48204470B130
:100B6000B0F5806F1FD10FE0B0F5806F16D0B0F5F3
:100B70006C4F18D10320FFF779FE074614E00220DE
:100B8000FFF774FE07460FE00220FFF76FFE0746EF
:100B90000AE00220FFF76AFE074605E00220FFF7A1
:100BA00065FE074600E000BF00BF07EB5500B0FB45
:100BB000F5F64FF6F07006EA000806F00F0948EA6D
:100BC0000900A060BDE8F087004C004000BCFFBFFA
:100BD000C1F308024260704710B504462049601A0C
:100BE0008C4228D006DC1F48204490B1B0F5806FBD
:100BF00033D117E0B0F5806F26D0B0F56C4F2CD113
:100C000040F20E30FFF7FEFE40F20E30FFF7EAFE34
:100C100024E040F21140FFF7F5FE40F21140FFF7EB
:100C2000E1FE1BE040F21240FFF7ECFE40F2124002
:100C3000FFF7D8FE12E040F21340FFF7E3FE40F268
:100C40001340FFF7CFFE09E040F21440FFF7DAFE51
:100C500040F21440FFF7C6FE00E000BF00BF10BD29
:100C6000004C004000BCFFBFC16841F40051C160AE
:100C7000704710B5024602EB9110006801F01F04A6
:100C80000123A340184008B1012010BD0020FCE75B
:100C9000C26822F00802C260C26801F008031A4369
:100CA000C2607047C40C000800000020480000002B
:100CB000A40400080C0D00084800002000040000F7
:100CC000B404000802060000000801400001000012
:100CD0000606000000180140400000000706000062
:100CE000001C014040000000000000000000000067
:100CF00000000000003801400E0602060008014016
:0C0D0000000200000004000000000000E1
:0400000508000131BD
:00000001FF
