:020000040800F2
:100000005004002045010008AD0200084902000824
:10001000A90200088D010008ED040008000000009E
:10002000000000000000000000000000FD020008C9
:100030009101000800000000AF0200080103000861
:100040005F0100085F0100085F0100085F01000810
:100050005F0100085F0100085F0100085F01000800
:100060005F0100085F0100085F0100085F010008F0
:100070005F0100085F0100085F0100085F010008E0
:100080005F0100085F0100085F0100085F010008D0
:100090005F0100085F0100085F0100085F010008C0
:1000A0005F0100085F0100085F0100085F010008B0
:1000B0005F0100085F0100085F0100085F010008A0
:1000C0005F0100085F0100085F0100085F01000890
:1000D0005F010008B10400085F0100085F0100082B
:1000E0005F0100085F0100085F0100085F01000870
:1000F0005F0100085F0100085F0100085F01000860
:100100005F0100085F010008CD0300085F010008DF
:100110005F0100085F0100085F0100085F0100083F
:100120005F0100085F0100085F0100085F0100082F
:10013000DFF80CD000F018F8004800477D060008F2
:10014000500400200648804706480047FEE7FEE7C7
:10015000FEE7FEE7FEE7FEE7FEE7FEE7FEE7FEE777
:100160002503000831010008064C074D06E0E06851
:1001700040F0010394E8070098471034AC42F6D3EE
:10018000FFF7DAFF401000086010000800BFFEE72C
:10019000704700000C48006820F080700A49086031
:1001A0000846006840F0807008600848006820F049
:1001B0000100064908600846006840F00100086038
:1001C0000020486070470000FCED00E0001000E0F7
:1001D00070B50446002504E04FF47A7000F004F88E
:1001E0006D1CA542F8D370BD70B50446074845683C
:1001F000012000F0B5FA0649B0FBF1F0444300BF1E
:1002000002484068401BA042FAD370BD001000E0D5
:1002100040420F0010B500F019F8FFF7BBFF00F0E7
:1002200067F900F045F810BD10B540F2026000F02B
:1002300043FB4FF4807301221821024800F0B8F903
:1002400010BD00000008014000BFFEE710B500240B
:1002500024E004EB4401134A32F8210000F02CFBA7
:1002600004EB44010F4A02EB81018B6804EB44016B
:1002700002EB810102224868102100F099F904EB99
:100280004402084B03EB8202916804EB440203EB47
:100290008202506800F085F9601CC4B2032CD8D3E8
:1002A00010BD00000000002000BFFEE7704770474F
:1002B00010B5FFF7B9FF00F099F810BD10B5002494
:1002C00008E0224600210C4800F0D7FC3220FFF75E
:1002D0007FFF0A34B4F5FA7FF3D34FF4FA7408E0E1
:1002E00022460021044800F0C8FC3220FFF770FFCE
:1002F0000A3C002CF4D110BD002C014070470000D6
:1003000010B50648D0E900305A1C40F100000349FE
:10031000C1E9002002480068804710BD2800002085
:100320003000002008B52648006840F470002449D9
:1003300008602448006840F001002249086000BFBE
:100340002048006800F002000028F9D000BF1D48D6
:10035000406840F080001B4948600020009002E0A7
:100360000098401C009000985028F9D31548406828
:1003700040F09000134948600020009002E000988F
:10038000401C009000985028F9D300BF0D484068E9
:1003900020F003000B494860084600680A490840FD
:1003A000084908604FF41F0088600846006820F480
:1003B0008020086000204860C86200F037FB08BD5C
:1003C00088ED00E000100240FFFFF6FE10B50121AD
:1003D000054800F030FD30B10121034800F028FD50
:1003E000002000F03DF810BD000C004000B587B0C3
:1003F00040F20B6000F060FA184800F059FC03A8C6
:1004000000F031FD7720ADF80C0040F2F3100590BC
:1004100003A9124800F0C0FC684600F041FC01202E
:10042000ADF802000020ADF804006A4600210B4838
:1004300000F000FBF9220021084800F01EFC6022B9
:100440000021064800F0ECFB0121044800F0FFFC0D
:10045000024800F09BFC07B000BD0000002C0140EA
:1004600070B50446032C00D370BD04EB44020F4B5F
:1004700003EB8202916804EB440203EB82025068B2
:1004800000F0F4F80546C5F10100C5B204EB4402E2
:10049000064B03EB8202916804EB440203EB8202F9
:1004A00050682A4600F07FF800BFDDE7000000201A
:1004B00010B50B4908680B4900F091FD70B108496F
:1004C0000868084900F082FD0549086800F01EFD33
:1004D000C4B2204604490968884700BF10BD000027
:1004E00034000020050305004C00002000BFFEE79B
:1004F00010B500F005F84FF4E13000F017F810BD2A
:1005000010B50949C88800F0D7F90749CB6801221E
:100510008868182100F04CF803490B6901228868AB
:10052000482100F045F810BD3400002010B5044605
:100530001349888800F0C0F91149086800F0ECFC04
:100540000F490868214600F099FC0D490868082108
:1005500000F06BFD0A490868042100F05CFD0849C1
:10056000086840F2053100F024FD0549087D0022AD
:10057000114600F089F80249086800F015FD10BD29
:100580003400002002E008C8121F08C1002AFAD176
:1005900070477047002001E001C1121F002AFBD103
:1005A0007047416170470AB1016100E041617047E5
:1005B000F0B5044616460025002201F00F0501F0B3
:1005C000100747B1042E05D145F00305E76B1F4323
:1005D000E76300E0354300201EE0012787401F400D
:1005E000C7B122684FEA800C0F2707FA0CF7BA430D
:1005F000870005FA07F73A43282904D101278740E5
:100600001F40676105E0482903D1012787401F404B
:1006100027612260471CB8B20828DED3082022E0F8
:10062000012787401F40E7B16268A0F108074FEA41
:10063000870C0F2707FA0CF7BA43A0F10807BF0091
:1006400005FA07F73A43282904D1012787401F40BC
:10065000676105E0482903D1012787401F402761D2
:100660006260471CB8B21028DAD3F0BD0246906829
:10067000084008B1012070470020FCE7FFF7CAFDE1
:1006800001E0FFF71BFEFCE72DE9F04103460D46B4
:10069000164600240027A0462A48006800F4E060BF
:1006A000B0F5E06F03D100BF4FF0040830E02548FB
:1006B000006800F4E060B0F5C06F03D101274FF08F
:1006C000030825E01F48006800F4E060B0F5A06F63
:1006D00002D10227B8461BE01A48006800F4E06027
:1006E000B0F5806F03D103274FF0010810E01548E3
:1006F000006800F4E060B0F5407F03D104274FF0BC
:10070000000805E04FF4A06000F020F80227B8468A
:10071000C7F1040005FA00F4C8F104010F20C84035
:100720003040044324010848C45403F01F01012051
:1007300088405911890001F1E021C1F80001BDE8AC
:10074000F08100000CED00E000E400E0024901430C
:10075000024A1160704700000000FA050CED00E04D
:100760002DE9F04F8CB0074600200A904AA090E88F
:10077000004CC068CDE905BECDF810A007900FF27F
:100780001C1ADAE9000ACDE9020A0FF2101ADAE9B6
:10079000000ACDE9000A44484068C0F381000B908C
:1007A0000B9820B1012804D002283FD103E03F4A32
:1007B0003EE03E4A3CE03C48406800F4803CBCF5EA
:1007C000803F12D13848C06A00F08048B8F1000F6D
:1007D00001D1364B00E0364B3348406800F4003915
:1007E000B9F5003F02D15B0800E0324B2E4840686B
:1007F000C0F383412C48406800F0006008B141F02C
:1008000010012948406800F0804008B141F0200103
:100810000F2901D2891C06E00F2903D33E2901D8F4
:10082000491C00E03F2103FB01F201E01F4A00BF29
:1008300000BF1D484068C0F3031504A8465D22FAB6
:1008400006F419484068C0F3022502A8465D24FA60
:1008500006F0099014484068C0F3C2251DF80560F1
:1008600024FA06F0089037B1012F06D0022F06D0E7
:10087000032F0AD106E00A9208E00A9406E00998DC
:100880000A9003E008980A9000E000BF00BF0A98B1
:100890000CB0BDE8F08F0000000000000000000078
:1008A00001020304060708090010024000127A0042
:1008B000006CDC0200093D00064A02EB9011096859
:1008C00000F01F0301229A401143024B03EB9012E8
:1008D0001160704700100240064A02EB901109684F
:1008E00000F01F0301229A409143024B03EB901248
:1008F0001160704700100240064A02EB901109682F
:1009000000F01F0301229A401143024B03EB9012A7
:100910001160704700100240002000213F4A126819
:1009200042F480323D4B1A6000BF401C3B4A1268C3
:1009300002F4003119B94FF6FF729042F5D1374AEF
:10094000126802F400320AB900BFFEE7334AD269E6
:1009500042F08052314BDA61314A126842F440422F
:100960002F4B1A602D4A52682C4B5A601A46526817
:100970005A601A46526842F480625A601A465268B7
:1009800022F440325A601A46526842F440325A60A9
:100990001A465268234B1A40204B5A601A46526836
:1009A000214B1A431D4B5A601A46126842F080725E
:1009B0001A6000BF194A126802F00072002AF9D0CA
:1009C000174A126842F48032154B1A6000BF144A6D
:1009D000526802F48032002AF9D0114A126842F4B7
:1009E00000320F4B1A6000BF0D4A526802F4003209
:1009F000002AF9D0094A526822F00302074B5A60D4
:100A00001A46526842F002025A6000BF034A526816
:100A100002F00802002AF9D07047000000100240DE
:100A200000700040FFFFC3B70000340810B5FFF7A7
:100A300073FF10BD10B531B101293FD002297DD01F
:100A400003297CD1BFE0036A23F0010303628369B9
:100A500023F003038361036A148823430362036A58
:100A600023F002030362036A9488234303626A4B00
:100A7000984202D0694B98421FD1036A23F00403C5
:100A80000362036A548823430362036A23F0080362
:100A90000362036AD48823430362436823F48073A8
:100AA00043604368148923434360436823F400731D
:100AB00043604368548923434360ABE0036A23F0F7
:100AC00010030362836923F440738361036A14880B
:100AD00043EA04130362036A23F020030362036AF8
:100AE000948843EA041303624B4B984202D04B4B69
:100AF000984226D1036A23F040030362036A5488B4
:100B000043EA04130362036A23F080030362036A67
:100B1000D48843EA04130362436823F48063436088
:100B20004368148943EA84034360436823F4006301
:100B300043604368548943EA840301E002E068E0CB
:100B4000436067E0036A23F480730362C36923F0A0
:100B50000303C361036A148843EA04230362036A3C
:100B600023F400730362036A948843EA0423036254
:100B7000294B984202D0294B984223D1036A23F48F
:100B800080630362036A548843EA04230362036AAE
:100B900023F400630362036AD48843EA04230362F4
:100BA000436823F4805343604368148943EA041381
:100BB0004360436823F4005343604368548943EA25
:100BC0000413436026E0036A23F480530362C3697D
:100BD00023F44073C361036A148843EA0433036255
:100BE000036A23F400530362036A948843EA0433DC
:100BF0000362094B984202D0084B984208D14368DF
:100C000023F4804343604368148943EA84134360B8
:100C100000E000BF00BF10BD002C014000340140C7
:100C200031B101290CD0022913D0032922D118E0B7
:100C3000836923F0700383618369134383611AE03E
:100C4000836923F4E0438361836943EA0223836178
:100C500011E0C36923F07003C361C3691343C36127
:100C600009E0C36923F4E043C361C36943EA022393
:100C7000C36100E000BF00BF704731B1012906D059
:100C8000022906D0032908D105E0426306E0826309
:100C900004E0C26302E0026400E000BF00BF7047EE
:100CA0000021018041808180C180018141817047A4
:100CB00010B504463349601A8C4244D00CDCB4F1C0
:100CC000804F1CD03048204410B3B0F5806F28D03E
:100CD000B0F5006F52D12DE0B0F5806F3CD0B0F58B
:100CE0008E3F03D0B0F5923F48D13EE040F20B304A
:100CF000FFF702FE40F20B30FFF7EEFD3FE04FF44E
:100D00008060FFF7F9FD4FF48060FFF7E5FD36E006
:100D100040F20140FFF7F0FD40F20140FFF7DCFD3B
:100D20002DE040F20240FFF7E7FD40F20240FFF7FE
:100D3000D3FD24E040F20340FFF7DEFD40F2034024
:100D4000FFF7CAFD1BE040F20440FFF7D5FD40F27B
:100D50000440FFF7C1FD12E040F20540FFF7CCFD73
:100D600040F20540FFF7B8FD09E040F20D30FFF713
:100D7000C3FD40F20D30FFF7AFFD00E000BF00BF44
:100D800010BD00000010004000FCFFBF016841F0F2
:100D900001010160704700000A8882621D4A90428A
:100DA0000ED0B0F1804F0BD01B4A904208D01B4AA6
:100DB000904205D01A4A904202D01A4A90420BD172
:100DC000026822F07002026002684B881A430260D7
:100DD00002688B881A4302608A68C262124A904293
:100DE0000AD0124A904207D0026822F44072026090
:100DF0000268CB881A430260064A904202D0094A30
:100E0000904201D10A7B0263426942F001024261D1
:100E100070470000002C0140000400400008004022
:100E2000000C00400034014000100040001400405D
:100E3000CA43026170470246D06800EA01031069A4
:100E4000084010B10BB1012070470020FCE70129D8
:100E500004D1426C42F40042426403E0426C22F44A
:100E600000424264704700210180418081804FF63A
:100E7000FF7181600021C180017370472DE9F04747
:100E800004460D460027B846B94600261D49601A9B
:100E90008C421CD006DC1C48204470B1B0F5806F39
:100EA0001FD10FE0B0F5806F16D0B0F56C4F18D1A0
:100EB0000320FFF755FC074614E00220FFF750FC23
:100EC00007460FE00220FFF74BFC07460AE002202E
:100ED000FFF746FC074605E00220FFF741FC074606
:100EE00000E000BF00BF07EB5500B0FBF5F64FF682
:100EF000F07006EA000806F00F0948EA0900A06051
:100F0000BDE8F087004C004000BCFFBF01464868C8
:100F1000C0F308007047000010B504462049601A6D
:100F20008C4228D006DC1F48204490B1B0F5806F79
:100F300033D117E0B0F5806F26D0B0F56C4F2CD1CF
:100F400040F20E30FFF7D8FC40F20E30FFF7C4FC41
:100F500024E040F21140FFF7CFFC40F21140FFF7D0
:100F6000BBFC1BE040F21240FFF7C6FC40F212400F
:100F7000FFF7B2FC12E040F21340FFF7BDFC40F275
:100F80001340FFF7A9FC09E040F21440FFF7B4FC5E
:100F900040F21440FFF7A0FC00E000BF00BF10BD0E
:100FA000004C004000BCFFBFC16841F40051C1606B
:100FB000704710B500EB9112126801F01F04012375
:100FC000A3401A4300EB91131A6010BDC1F3044310
:100FD00001229A40D24300EB91531A60704770B5DA
:100FE000024600230024C1F38910105801F01F06A7
:100FF0000125B54000EA050302EB91500068C1F3FA
:1010000004460125B54000EA050414B10BB10120E6
:1010100070BD0020FCE7C26822F00402C260C26812
:1010200001F004031A43C2607047C26822F008024C
:10103000C260C26801F008031A43C2607047000032
:101040006010000800000020500000008405000827
:10105000B0100008500000200004000094050008B3
:101060000206000000080140000100000606000022
:10107000001801404000000007060000001C01406D
:101080004000000000000000000000000000000020
:1010900000000000003801400E0602060008014072
:1010A0000002000000040000250000000000000015
:0400000508000131BD
:00000001FF
